{
	"view.sol": {
		"View": {
			"abi": [
				{
					"inputs": [],
					"name": "Num1",
					"outputs": [
						{
							"internalType": "uint256",
							"name": "",
							"type": "uint256"
						}
					],
					"stateMutability": "view",
					"type": "function"
				},
				{
					"inputs": [],
					"name": "Num2",
					"outputs": [
						{
							"internalType": "uint256",
							"name": "",
							"type": "uint256"
						}
					],
					"stateMutability": "view",
					"type": "function"
				},
				{
					"inputs": [],
					"name": "getdata",
					"outputs": [
						{
							"internalType": "uint256",
							"name": "product",
							"type": "uint256"
						},
						{
							"internalType": "uint256",
							"name": "total",
							"type": "uint256"
						},
						{
							"internalType": "uint256",
							"name": "diff",
							"type": "uint256"
						}
					],
					"stateMutability": "nonpayable",
					"type": "function"
				}
			],
			"devdoc": {
				"kind": "dev",
				"methods": {},
				"version": 1
			},
			"evm": {
				"assembly": "    /* \"view.sol\":61:372  contract View{... */\n  mstore(0x40, 0x80)\n    /* \"view.sol\":104:105  5 */\n  0x05\n    /* \"view.sol\":83:105  uint256 public Num1 =5 */\n  0x00\n  sstore\n    /* \"view.sol\":133:134  7 */\n  0x07\n    /* \"view.sol\":112:134  uint256 public Num2 =7 */\n  0x01\n  sstore\n    /* \"view.sol\":61:372  contract View{... */\n  callvalue\n  dup1\n  iszero\n  tag_1\n  jumpi\n  0x00\n  dup1\n  revert\ntag_1:\n  pop\n  dataSize(sub_0)\n  dup1\n  dataOffset(sub_0)\n  0x00\n  codecopy\n  0x00\n  return\nstop\n\nsub_0: assembly {\n        /* \"view.sol\":61:372  contract View{... */\n      mstore(0x40, 0x80)\n      callvalue\n      dup1\n      iszero\n      tag_1\n      jumpi\n      0x00\n      dup1\n      revert\n    tag_1:\n      pop\n      jumpi(tag_2, lt(calldatasize, 0x04))\n      shr(0xe0, calldataload(0x00))\n      dup1\n      0x254d6005\n      eq\n      tag_3\n      jumpi\n      dup1\n      0x4fa10cfc\n      eq\n      tag_4\n      jumpi\n      dup1\n      0x7e09697d\n      eq\n      tag_5\n      jumpi\n    tag_2:\n      0x00\n      dup1\n      revert\n        /* \"view.sol\":112:134  uint256 public Num2 =7 */\n    tag_3:\n      tag_6\n      tag_7\n      jump\t// in\n    tag_6:\n      mload(0x40)\n      tag_8\n      swap2\n      swap1\n      tag_9\n      jump\t// in\n    tag_8:\n      mload(0x40)\n      dup1\n      swap2\n      sub\n      swap1\n      return\n        /* \"view.sol\":143:369  function getdata()public returns (uint256 product, uint256 total, uint256 diff){... */\n    tag_4:\n      tag_10\n      tag_11\n      jump\t// in\n    tag_10:\n      mload(0x40)\n      tag_12\n      swap4\n      swap3\n      swap2\n      swap1\n      tag_13\n      jump\t// in\n    tag_12:\n      mload(0x40)\n      dup1\n      swap2\n      sub\n      swap1\n      return\n        /* \"view.sol\":83:105  uint256 public Num1 =5 */\n    tag_5:\n      tag_14\n      tag_15\n      jump\t// in\n    tag_14:\n      mload(0x40)\n      tag_16\n      swap2\n      swap1\n      tag_9\n      jump\t// in\n    tag_16:\n      mload(0x40)\n      dup1\n      swap2\n      sub\n      swap1\n      return\n        /* \"view.sol\":112:134  uint256 public Num2 =7 */\n    tag_7:\n      sload(0x01)\n      dup2\n      jump\t// out\n        /* \"view.sol\":143:369  function getdata()public returns (uint256 product, uint256 total, uint256 diff){... */\n    tag_11:\n        /* \"view.sol\":177:192  uint256 product */\n      0x00\n        /* \"view.sol\":194:207  uint256 total */\n      dup1\n        /* \"view.sol\":209:221  uint256 diff */\n      0x00\n        /* \"view.sol\":243:244  5 */\n      0x05\n        /* \"view.sol\":235:239  Num1 */\n      0x00\n      dup1\n        /* \"view.sol\":235:244  Num1 += 5 */\n      dup3\n      dup3\n      sload\n      tag_18\n      swap2\n      swap1\n      tag_19\n      jump\t// in\n    tag_18:\n      swap3\n      pop\n      pop\n      dup2\n      swap1\n      sstore\n      pop\n        /* \"view.sol\":273:274  7 */\n      0x07\n        /* \"view.sol\":265:269  Num2 */\n      0x01\n      0x00\n        /* \"view.sol\":265:274  Num2 += 7 */\n      dup3\n      dup3\n      sload\n      tag_20\n      swap2\n      swap1\n      tag_19\n      jump\t// in\n    tag_20:\n      swap3\n      pop\n      pop\n      dup2\n      swap1\n      sstore\n      pop\n        /* \"view.sol\":302:306  Num2 */\n      sload(0x01)\n        /* \"view.sol\":297:301  Num1 */\n      sload(0x00)\n        /* \"view.sol\":297:306  Num1*Num2 */\n      tag_21\n      swap2\n      swap1\n      tag_22\n      jump\t// in\n    tag_21:\n        /* \"view.sol\":287:306  product = Num1*Num2 */\n      swap3\n      pop\n        /* \"view.sol\":330:334  Num2 */\n      sload(0x01)\n        /* \"view.sol\":325:329  Num1 */\n      sload(0x00)\n        /* \"view.sol\":325:334  Num1+Num2 */\n      tag_23\n      swap2\n      swap1\n      tag_19\n      jump\t// in\n    tag_23:\n        /* \"view.sol\":317:334  total = Num1+Num2 */\n      swap2\n      pop\n        /* \"view.sol\":357:361  Num2 */\n      sload(0x01)\n        /* \"view.sol\":352:356  Num1 */\n      sload(0x00)\n        /* \"view.sol\":352:361  Num1-Num2 */\n      tag_24\n      swap2\n      swap1\n      tag_25\n      jump\t// in\n    tag_24:\n        /* \"view.sol\":345:361  diff = Num1-Num2 */\n      swap1\n      pop\n        /* \"view.sol\":143:369  function getdata()public returns (uint256 product, uint256 total, uint256 diff){... */\n      swap1\n      swap2\n      swap3\n      jump\t// out\n        /* \"view.sol\":83:105  uint256 public Num1 =5 */\n    tag_15:\n      sload(0x00)\n      dup2\n      jump\t// out\n        /* \"#utility.yul\":7:84   */\n    tag_26:\n        /* \"#utility.yul\":44:51   */\n      0x00\n        /* \"#utility.yul\":73:78   */\n      dup2\n        /* \"#utility.yul\":62:78   */\n      swap1\n      pop\n        /* \"#utility.yul\":7:84   */\n      swap2\n      swap1\n      pop\n      jump\t// out\n        /* \"#utility.yul\":90:208   */\n    tag_27:\n        /* \"#utility.yul\":177:201   */\n      tag_32\n        /* \"#utility.yul\":195:200   */\n      dup2\n        /* \"#utility.yul\":177:201   */\n      tag_26\n      jump\t// in\n    tag_32:\n        /* \"#utility.yul\":172:175   */\n      dup3\n        /* \"#utility.yul\":165:202   */\n      mstore\n        /* \"#utility.yul\":90:208   */\n      pop\n      pop\n      jump\t// out\n        /* \"#utility.yul\":214:436   */\n    tag_9:\n        /* \"#utility.yul\":307:311   */\n      0x00\n        /* \"#utility.yul\":345:347   */\n      0x20\n        /* \"#utility.yul\":334:343   */\n      dup3\n        /* \"#utility.yul\":330:348   */\n      add\n        /* \"#utility.yul\":322:348   */\n      swap1\n      pop\n        /* \"#utility.yul\":358:429   */\n      tag_34\n        /* \"#utility.yul\":426:427   */\n      0x00\n        /* \"#utility.yul\":415:424   */\n      dup4\n        /* \"#utility.yul\":411:428   */\n      add\n        /* \"#utility.yul\":402:408   */\n      dup5\n        /* \"#utility.yul\":358:429   */\n      tag_27\n      jump\t// in\n    tag_34:\n        /* \"#utility.yul\":214:436   */\n      swap3\n      swap2\n      pop\n      pop\n      jump\t// out\n        /* \"#utility.yul\":442:884   */\n    tag_13:\n        /* \"#utility.yul\":591:595   */\n      0x00\n        /* \"#utility.yul\":629:631   */\n      0x60\n        /* \"#utility.yul\":618:627   */\n      dup3\n        /* \"#utility.yul\":614:632   */\n      add\n        /* \"#utility.yul\":606:632   */\n      swap1\n      pop\n        /* \"#utility.yul\":642:713   */\n      tag_36\n        /* \"#utility.yul\":710:711   */\n      0x00\n        /* \"#utility.yul\":699:708   */\n      dup4\n        /* \"#utility.yul\":695:712   */\n      add\n        /* \"#utility.yul\":686:692   */\n      dup7\n        /* \"#utility.yul\":642:713   */\n      tag_27\n      jump\t// in\n    tag_36:\n        /* \"#utility.yul\":723:795   */\n      tag_37\n        /* \"#utility.yul\":791:793   */\n      0x20\n        /* \"#utility.yul\":780:789   */\n      dup4\n        /* \"#utility.yul\":776:794   */\n      add\n        /* \"#utility.yul\":767:773   */\n      dup6\n        /* \"#utility.yul\":723:795   */\n      tag_27\n      jump\t// in\n    tag_37:\n        /* \"#utility.yul\":805:877   */\n      tag_38\n        /* \"#utility.yul\":873:875   */\n      0x40\n        /* \"#utility.yul\":862:871   */\n      dup4\n        /* \"#utility.yul\":858:876   */\n      add\n        /* \"#utility.yul\":849:855   */\n      dup5\n        /* \"#utility.yul\":805:877   */\n      tag_27\n      jump\t// in\n    tag_38:\n        /* \"#utility.yul\":442:884   */\n      swap5\n      swap4\n      pop\n      pop\n      pop\n      pop\n      jump\t// out\n        /* \"#utility.yul\":890:1070   */\n    tag_28:\n        /* \"#utility.yul\":938:1015   */\n      0x4e487b7100000000000000000000000000000000000000000000000000000000\n        /* \"#utility.yul\":935:936   */\n      0x00\n        /* \"#utility.yul\":928:1016   */\n      mstore\n        /* \"#utility.yul\":1035:1039   */\n      0x11\n        /* \"#utility.yul\":1032:1033   */\n      0x04\n        /* \"#utility.yul\":1025:1040   */\n      mstore\n        /* \"#utility.yul\":1059:1063   */\n      0x24\n        /* \"#utility.yul\":1056:1057   */\n      0x00\n        /* \"#utility.yul\":1049:1064   */\n      revert\n        /* \"#utility.yul\":1076:1267   */\n    tag_19:\n        /* \"#utility.yul\":1116:1119   */\n      0x00\n        /* \"#utility.yul\":1135:1155   */\n      tag_41\n        /* \"#utility.yul\":1153:1154   */\n      dup3\n        /* \"#utility.yul\":1135:1155   */\n      tag_26\n      jump\t// in\n    tag_41:\n        /* \"#utility.yul\":1130:1155   */\n      swap2\n      pop\n        /* \"#utility.yul\":1169:1189   */\n      tag_42\n        /* \"#utility.yul\":1187:1188   */\n      dup4\n        /* \"#utility.yul\":1169:1189   */\n      tag_26\n      jump\t// in\n    tag_42:\n        /* \"#utility.yul\":1164:1189   */\n      swap3\n      pop\n        /* \"#utility.yul\":1212:1213   */\n      dup3\n        /* \"#utility.yul\":1209:1210   */\n      dup3\n        /* \"#utility.yul\":1205:1214   */\n      add\n        /* \"#utility.yul\":1198:1214   */\n      swap1\n      pop\n        /* \"#utility.yul\":1233:1236   */\n      dup1\n        /* \"#utility.yul\":1230:1231   */\n      dup3\n        /* \"#utility.yul\":1227:1237   */\n      gt\n        /* \"#utility.yul\":1224:1260   */\n      iszero\n      tag_43\n      jumpi\n        /* \"#utility.yul\":1240:1258   */\n      tag_44\n      tag_28\n      jump\t// in\n    tag_44:\n        /* \"#utility.yul\":1224:1260   */\n    tag_43:\n        /* \"#utility.yul\":1076:1267   */\n      swap3\n      swap2\n      pop\n      pop\n      jump\t// out\n        /* \"#utility.yul\":1273:1683   */\n    tag_22:\n        /* \"#utility.yul\":1313:1320   */\n      0x00\n        /* \"#utility.yul\":1336:1356   */\n      tag_46\n        /* \"#utility.yul\":1354:1355   */\n      dup3\n        /* \"#utility.yul\":1336:1356   */\n      tag_26\n      jump\t// in\n    tag_46:\n        /* \"#utility.yul\":1331:1356   */\n      swap2\n      pop\n        /* \"#utility.yul\":1370:1390   */\n      tag_47\n        /* \"#utility.yul\":1388:1389   */\n      dup4\n        /* \"#utility.yul\":1370:1390   */\n      tag_26\n      jump\t// in\n    tag_47:\n        /* \"#utility.yul\":1365:1390   */\n      swap3\n      pop\n        /* \"#utility.yul\":1425:1426   */\n      dup3\n        /* \"#utility.yul\":1422:1423   */\n      dup3\n        /* \"#utility.yul\":1418:1427   */\n      mul\n        /* \"#utility.yul\":1447:1477   */\n      tag_48\n        /* \"#utility.yul\":1465:1476   */\n      dup2\n        /* \"#utility.yul\":1447:1477   */\n      tag_26\n      jump\t// in\n    tag_48:\n        /* \"#utility.yul\":1436:1477   */\n      swap2\n      pop\n        /* \"#utility.yul\":1626:1627   */\n      dup3\n        /* \"#utility.yul\":1617:1624   */\n      dup3\n        /* \"#utility.yul\":1613:1628   */\n      div\n        /* \"#utility.yul\":1610:1611   */\n      dup5\n        /* \"#utility.yul\":1607:1629   */\n      eq\n        /* \"#utility.yul\":1587:1588   */\n      dup4\n        /* \"#utility.yul\":1580:1589   */\n      iszero\n        /* \"#utility.yul\":1560:1643   */\n      or\n        /* \"#utility.yul\":1537:1676   */\n      tag_49\n      jumpi\n        /* \"#utility.yul\":1656:1674   */\n      tag_50\n      tag_28\n      jump\t// in\n    tag_50:\n        /* \"#utility.yul\":1537:1676   */\n    tag_49:\n        /* \"#utility.yul\":1321:1683   */\n      pop\n        /* \"#utility.yul\":1273:1683   */\n      swap3\n      swap2\n      pop\n      pop\n      jump\t// out\n        /* \"#utility.yul\":1689:1883   */\n    tag_25:\n        /* \"#utility.yul\":1729:1733   */\n      0x00\n        /* \"#utility.yul\":1749:1769   */\n      tag_52\n        /* \"#utility.yul\":1767:1768   */\n      dup3\n        /* \"#utility.yul\":1749:1769   */\n      tag_26\n      jump\t// in\n    tag_52:\n        /* \"#utility.yul\":1744:1769   */\n      swap2\n      pop\n        /* \"#utility.yul\":1783:1803   */\n      tag_53\n        /* \"#utility.yul\":1801:1802   */\n      dup4\n        /* \"#utility.yul\":1783:1803   */\n      tag_26\n      jump\t// in\n    tag_53:\n        /* \"#utility.yul\":1778:1803   */\n      swap3\n      pop\n        /* \"#utility.yul\":1827:1828   */\n      dup3\n        /* \"#utility.yul\":1824:1825   */\n      dup3\n        /* \"#utility.yul\":1820:1829   */\n      sub\n        /* \"#utility.yul\":1812:1829   */\n      swap1\n      pop\n        /* \"#utility.yul\":1851:1852   */\n      dup2\n        /* \"#utility.yul\":1845:1849   */\n      dup2\n        /* \"#utility.yul\":1842:1853   */\n      gt\n        /* \"#utility.yul\":1839:1876   */\n      iszero\n      tag_54\n      jumpi\n        /* \"#utility.yul\":1856:1874   */\n      tag_55\n      tag_28\n      jump\t// in\n    tag_55:\n        /* \"#utility.yul\":1839:1876   */\n    tag_54:\n        /* \"#utility.yul\":1689:1883   */\n      swap3\n      swap2\n      pop\n      pop\n      jump\t// out\n\n    auxdata: 0xa2646970667358221220b8325f2a1c0e1fa2f86279d299470fc8a10b047f3a9c87f190c2e5bba6fdbde564736f6c63430008220033\n}\n",
				"bytecode": {
					"linkReferences": {},
					"object": "608060405260056000556007600155348015601957600080fd5b5061029b806100296000396000f3fe608060405234801561001057600080fd5b50600436106100415760003560e01c8063254d6005146100465780634fa10cfc146100645780637e09697d14610084575b600080fd5b61004e6100a2565b60405161005b919061013a565b60405180910390f35b61006c6100a8565b60405161007b93929190610155565b60405180910390f35b61008c61011b565b604051610099919061013a565b60405180910390f35b60015481565b600080600060056000808282546100bf91906101bb565b925050819055506007600160008282546100d991906101bb565b925050819055506001546000546100f091906101ef565b925060015460005461010291906101bb565b91506001546000546101149190610231565b9050909192565b60005481565b6000819050919050565b61013481610121565b82525050565b600060208201905061014f600083018461012b565b92915050565b600060608201905061016a600083018661012b565b610177602083018561012b565b610184604083018461012b565b949350505050565b7f4e487b7100000000000000000000000000000000000000000000000000000000600052601160045260246000fd5b60006101c682610121565b91506101d183610121565b92508282019050808211156101e9576101e861018c565b5b92915050565b60006101fa82610121565b915061020583610121565b925082820261021381610121565b9150828204841483151761022a5761022961018c565b5b5092915050565b600061023c82610121565b915061024783610121565b925082820390508181111561025f5761025e61018c565b5b9291505056fea2646970667358221220b8325f2a1c0e1fa2f86279d299470fc8a10b047f3a9c87f190c2e5bba6fdbde564736f6c63430008220033",
					"opcodes": "PUSH1 0x80 PUSH1 0x40 MSTORE PUSH1 0x5 PUSH1 0x0 SSTORE PUSH1 0x7 PUSH1 0x1 SSTORE CALLVALUE DUP1 ISZERO PUSH1 0x19 JUMPI PUSH1 0x0 DUP1 REVERT JUMPDEST POP PUSH2 0x29B DUP1 PUSH2 0x29 PUSH1 0x0 CODECOPY PUSH1 0x0 RETURN INVALID PUSH1 0x80 PUSH1 0x40 MSTORE CALLVALUE DUP1 ISZERO PUSH2 0x10 JUMPI PUSH1 0x0 DUP1 REVERT JUMPDEST POP PUSH1 0x4 CALLDATASIZE LT PUSH2 0x41 JUMPI PUSH1 0x0 CALLDATALOAD PUSH1 0xE0 SHR DUP1 PUSH4 0x254D6005 EQ PUSH2 0x46 JUMPI DUP1 PUSH4 0x4FA10CFC EQ PUSH2 0x64 JUMPI DUP1 PUSH4 0x7E09697D EQ PUSH2 0x84 JUMPI JUMPDEST PUSH1 0x0 DUP1 REVERT JUMPDEST PUSH2 0x4E PUSH2 0xA2 JUMP JUMPDEST PUSH1 0x40 MLOAD PUSH2 0x5B SWAP2 SWAP1 PUSH2 0x13A JUMP JUMPDEST PUSH1 0x40 MLOAD DUP1 SWAP2 SUB SWAP1 RETURN JUMPDEST PUSH2 0x6C PUSH2 0xA8 JUMP JUMPDEST PUSH1 0x40 MLOAD PUSH2 0x7B SWAP4 SWAP3 SWAP2 SWAP1 PUSH2 0x155 JUMP JUMPDEST PUSH1 0x40 MLOAD DUP1 SWAP2 SUB SWAP1 RETURN JUMPDEST PUSH2 0x8C PUSH2 0x11B JUMP JUMPDEST PUSH1 0x40 MLOAD PUSH2 0x99 SWAP2 SWAP1 PUSH2 0x13A JUMP JUMPDEST PUSH1 0x40 MLOAD DUP1 SWAP2 SUB SWAP1 RETURN JUMPDEST PUSH1 0x1 SLOAD DUP2 JUMP JUMPDEST PUSH1 0x0 DUP1 PUSH1 0x0 PUSH1 0x5 PUSH1 0x0 DUP1 DUP3 DUP3 SLOAD PUSH2 0xBF SWAP2 SWAP1 PUSH2 0x1BB JUMP JUMPDEST SWAP3 POP POP DUP2 SWAP1 SSTORE POP PUSH1 0x7 PUSH1 0x1 PUSH1 0x0 DUP3 DUP3 SLOAD PUSH2 0xD9 SWAP2 SWAP1 PUSH2 0x1BB JUMP JUMPDEST SWAP3 POP POP DUP2 SWAP1 SSTORE POP PUSH1 0x1 SLOAD PUSH1 0x0 SLOAD PUSH2 0xF0 SWAP2 SWAP1 PUSH2 0x1EF JUMP JUMPDEST SWAP3 POP PUSH1 0x1 SLOAD PUSH1 0x0 SLOAD PUSH2 0x102 SWAP2 SWAP1 PUSH2 0x1BB JUMP JUMPDEST SWAP2 POP PUSH1 0x1 SLOAD PUSH1 0x0 SLOAD PUSH2 0x114 SWAP2 SWAP1 PUSH2 0x231 JUMP JUMPDEST SWAP1 POP SWAP1 SWAP2 SWAP3 JUMP JUMPDEST PUSH1 0x0 SLOAD DUP2 JUMP JUMPDEST PUSH1 0x0 DUP2 SWAP1 POP SWAP2 SWAP1 POP JUMP JUMPDEST PUSH2 0x134 DUP2 PUSH2 0x121 JUMP JUMPDEST DUP3 MSTORE POP POP JUMP JUMPDEST PUSH1 0x0 PUSH1 0x20 DUP3 ADD SWAP1 POP PUSH2 0x14F PUSH1 0x0 DUP4 ADD DUP5 PUSH2 0x12B JUMP JUMPDEST SWAP3 SWAP2 POP POP JUMP JUMPDEST PUSH1 0x0 PUSH1 0x60 DUP3 ADD SWAP1 POP PUSH2 0x16A PUSH1 0x0 DUP4 ADD DUP7 PUSH2 0x12B JUMP JUMPDEST PUSH2 0x177 PUSH1 0x20 DUP4 ADD DUP6 PUSH2 0x12B JUMP JUMPDEST PUSH2 0x184 PUSH1 0x40 DUP4 ADD DUP5 PUSH2 0x12B JUMP JUMPDEST SWAP5 SWAP4 POP POP POP POP JUMP JUMPDEST PUSH32 0x4E487B7100000000000000000000000000000000000000000000000000000000 PUSH1 0x0 MSTORE PUSH1 0x11 PUSH1 0x4 MSTORE PUSH1 0x24 PUSH1 0x0 REVERT JUMPDEST PUSH1 0x0 PUSH2 0x1C6 DUP3 PUSH2 0x121 JUMP JUMPDEST SWAP2 POP PUSH2 0x1D1 DUP4 PUSH2 0x121 JUMP JUMPDEST SWAP3 POP DUP3 DUP3 ADD SWAP1 POP DUP1 DUP3 GT ISZERO PUSH2 0x1E9 JUMPI PUSH2 0x1E8 PUSH2 0x18C JUMP JUMPDEST JUMPDEST SWAP3 SWAP2 POP POP JUMP JUMPDEST PUSH1 0x0 PUSH2 0x1FA DUP3 PUSH2 0x121 JUMP JUMPDEST SWAP2 POP PUSH2 0x205 DUP4 PUSH2 0x121 JUMP JUMPDEST SWAP3 POP DUP3 DUP3 MUL PUSH2 0x213 DUP2 PUSH2 0x121 JUMP JUMPDEST SWAP2 POP DUP3 DUP3 DIV DUP5 EQ DUP4 ISZERO OR PUSH2 0x22A JUMPI PUSH2 0x229 PUSH2 0x18C JUMP JUMPDEST JUMPDEST POP SWAP3 SWAP2 POP POP JUMP JUMPDEST PUSH1 0x0 PUSH2 0x23C DUP3 PUSH2 0x121 JUMP JUMPDEST SWAP2 POP PUSH2 0x247 DUP4 PUSH2 0x121 JUMP JUMPDEST SWAP3 POP DUP3 DUP3 SUB SWAP1 POP DUP2 DUP2 GT ISZERO PUSH2 0x25F JUMPI PUSH2 0x25E PUSH2 0x18C JUMP JUMPDEST JUMPDEST SWAP3 SWAP2 POP POP JUMP INVALID LOG2 PUSH5 0x6970667358 0x22 SLT KECCAK256 0xB8 ORIGIN PUSH0 0x2A SHR 0xE 0x1F LOG2 EXTCALL PUSH3 0x79D299 SELFBALANCE 0xF 0xC8 LOG1 SIGNEXTEND DIV PUSH32 0x3A9C87F190C2E5BBA6FDBDE564736F6C63430008220033000000000000000000 "
				},
				"gasEstimates": {
					"creation": {
						"codeDepositCost": "133400",
						"executionCost": "44389",
						"totalCost": "177789"
					},
					"external": {
						"Num1()": "2451",
						"Num2()": "2407",
						"getdata()": "infinite"
					}
				},
				"methodIdentifiers": {
					"Num1()": "7e09697d",
					"Num2()": "254d6005",
					"getdata()": "4fa10cfc"
				}
			},
			"storageLayout": {
				"storage": [
					{
						"astId": 4,
						"contract": "view.sol:View",
						"label": "Num1",
						"offset": 0,
						"slot": "0",
						"type": "t_uint256"
					},
					{
						"astId": 7,
						"contract": "view.sol:View",
						"label": "Num2",
						"offset": 0,
						"slot": "1",
						"type": "t_uint256"
					}
				],
				"types": {
					"t_uint256": {
						"encoding": "inplace",
						"label": "uint256",
						"numberOfBytes": "32"
					}
				}
			},
			"userdoc": {
				"kind": "user",
				"methods": {},
				"version": 1
			}
		}
	}
}