{
	"Revert.sol": {
		"Revertstatement": {
			"abi": [
				{
					"inputs": [
						{
							"internalType": "uint256",
							"name": "_num1",
							"type": "uint256"
						},
						{
							"internalType": "uint256",
							"name": "_num2",
							"type": "uint256"
						}
					],
					"name": "checkOverflow",
					"outputs": [
						{
							"internalType": "string",
							"name": "",
							"type": "string"
						},
						{
							"internalType": "uint256",
							"name": "",
							"type": "uint256"
						}
					],
					"stateMutability": "pure",
					"type": "function"
				}
			],
			"devdoc": {
				"kind": "dev",
				"methods": {},
				"version": 1
			},
			"evm": {
				"assembly": "    /* \"Revert.sol\":61:381  contract Revertstatement{... */\n  mstore(0x40, 0x80)\n  callvalue\n  dup1\n  iszero\n  tag_1\n  jumpi\n  0x00\n  dup1\n  revert\ntag_1:\n  pop\n  dataSize(sub_0)\n  dup1\n  dataOffset(sub_0)\n  0x00\n  codecopy\n  0x00\n  return\nstop\n\nsub_0: assembly {\n        /* \"Revert.sol\":61:381  contract Revertstatement{... */\n      mstore(0x40, 0x80)\n      callvalue\n      dup1\n      iszero\n      tag_1\n      jumpi\n      0x00\n      dup1\n      revert\n    tag_1:\n      pop\n      jumpi(tag_2, lt(calldatasize, 0x04))\n      shr(0xe0, calldataload(0x00))\n      dup1\n      0xd6956970\n      eq\n      tag_3\n      jumpi\n    tag_2:\n      0x00\n      dup1\n      revert\n        /* \"Revert.sol\":92:376  function checkOverflow(uint256 _num1, uint256  _num2)public pure returns(string memory, uint256){... */\n    tag_3:\n      tag_4\n      0x04\n      dup1\n      calldatasize\n      sub\n      dup2\n      add\n      swap1\n      tag_5\n      swap2\n      swap1\n      tag_6\n      jump\t// in\n    tag_5:\n      tag_7\n      jump\t// in\n    tag_4:\n      mload(0x40)\n      tag_8\n      swap3\n      swap2\n      swap1\n      tag_9\n      jump\t// in\n    tag_8:\n      mload(0x40)\n      dup1\n      swap2\n      sub\n      swap1\n      return\n    tag_7:\n        /* \"Revert.sol\":165:178  string memory */\n      0x60\n        /* \"Revert.sol\":180:187  uint256 */\n      0x00\n        /* \"Revert.sol\":199:210  uint256 sum */\n      dup1\n        /* \"Revert.sol\":221:226  _num2 */\n      dup4\n        /* \"Revert.sol\":213:218  _num1 */\n      dup6\n        /* \"Revert.sol\":213:226  _num1 + _num2 */\n      tag_11\n      swap2\n      swap1\n      tag_12\n      jump\t// in\n    tag_11:\n        /* \"Revert.sol\":199:226  uint256 sum = _num1 + _num2 */\n      swap1\n      pop\n        /* \"Revert.sol\":246:247  0 */\n      0x00\n        /* \"Revert.sol\":240:243  sum */\n      dup2\n        /* \"Revert.sol\":240:247  sum < 0 */\n      lt\n        /* \"Revert.sol\":240:260  sum < 0 || sum > 255 */\n      dup1\n      tag_13\n      jumpi\n      pop\n        /* \"Revert.sol\":257:260  255 */\n      0xff\n        /* \"Revert.sol\":251:254  sum */\n      dup2\n        /* \"Revert.sol\":251:260  sum > 255 */\n      gt\n        /* \"Revert.sol\":240:260  sum < 0 || sum > 255 */\n    tag_13:\n        /* \"Revert.sol\":237:369  if(sum < 0 || sum > 255){... */\n      iszero\n      tag_14\n      jumpi\n        /* \"Revert.sol\":276:300  revert(\"overflow exist\") */\n      mload(0x40)\n      0x08c379a000000000000000000000000000000000000000000000000000000000\n      dup2\n      mstore\n      0x04\n      add\n      tag_15\n      swap1\n      tag_16\n      jump\t// in\n    tag_15:\n      mload(0x40)\n      dup1\n      swap2\n      sub\n      swap1\n      revert\n        /* \"Revert.sol\":237:369  if(sum < 0 || sum > 255){... */\n    tag_14:\n        /* \"Revert.sol\":353:356  sum */\n      dup1\n        /* \"Revert.sol\":331:357  return(\"no overflow\", sum) */\n      mload(0x40)\n      dup1\n      0x40\n      add\n      0x40\n      mstore\n      dup1\n      0x0b\n      dup2\n      mstore\n      0x20\n      add\n      0x6e6f206f766572666c6f77000000000000000000000000000000000000000000\n      dup2\n      mstore\n      pop\n      swap1\n      swap3\n      pop\n      swap3\n      pop\n      pop\n        /* \"Revert.sol\":92:376  function checkOverflow(uint256 _num1, uint256  _num2)public pure returns(string memory, uint256){... */\n      swap3\n      pop\n      swap3\n      swap1\n      pop\n      jump\t// out\n        /* \"#utility.yul\":88:205   */\n    tag_19:\n        /* \"#utility.yul\":197:198   */\n      0x00\n        /* \"#utility.yul\":194:195   */\n      dup1\n        /* \"#utility.yul\":187:199   */\n      revert\n        /* \"#utility.yul\":334:411   */\n    tag_21:\n        /* \"#utility.yul\":371:378   */\n      0x00\n        /* \"#utility.yul\":400:405   */\n      dup2\n        /* \"#utility.yul\":389:405   */\n      swap1\n      pop\n        /* \"#utility.yul\":334:411   */\n      swap2\n      swap1\n      pop\n      jump\t// out\n        /* \"#utility.yul\":417:539   */\n    tag_22:\n        /* \"#utility.yul\":490:514   */\n      tag_39\n        /* \"#utility.yul\":508:513   */\n      dup2\n        /* \"#utility.yul\":490:514   */\n      tag_21\n      jump\t// in\n    tag_39:\n        /* \"#utility.yul\":483:488   */\n      dup2\n        /* \"#utility.yul\":480:515   */\n      eq\n        /* \"#utility.yul\":470:533   */\n      tag_40\n      jumpi\n        /* \"#utility.yul\":529:530   */\n      0x00\n        /* \"#utility.yul\":526:527   */\n      dup1\n        /* \"#utility.yul\":519:531   */\n      revert\n        /* \"#utility.yul\":470:533   */\n    tag_40:\n        /* \"#utility.yul\":417:539   */\n      pop\n      jump\t// out\n        /* \"#utility.yul\":545:684   */\n    tag_23:\n        /* \"#utility.yul\":591:596   */\n      0x00\n        /* \"#utility.yul\":629:635   */\n      dup2\n        /* \"#utility.yul\":616:636   */\n      calldataload\n        /* \"#utility.yul\":607:636   */\n      swap1\n      pop\n        /* \"#utility.yul\":645:678   */\n      tag_42\n        /* \"#utility.yul\":672:677   */\n      dup2\n        /* \"#utility.yul\":645:678   */\n      tag_22\n      jump\t// in\n    tag_42:\n        /* \"#utility.yul\":545:684   */\n      swap3\n      swap2\n      pop\n      pop\n      jump\t// out\n        /* \"#utility.yul\":690:1164   */\n    tag_6:\n        /* \"#utility.yul\":758:764   */\n      0x00\n        /* \"#utility.yul\":766:772   */\n      dup1\n        /* \"#utility.yul\":815:817   */\n      0x40\n        /* \"#utility.yul\":803:812   */\n      dup4\n        /* \"#utility.yul\":794:801   */\n      dup6\n        /* \"#utility.yul\":790:813   */\n      sub\n        /* \"#utility.yul\":786:818   */\n      slt\n        /* \"#utility.yul\":783:902   */\n      iszero\n      tag_44\n      jumpi\n        /* \"#utility.yul\":821:900   */\n      tag_45\n      tag_19\n      jump\t// in\n    tag_45:\n        /* \"#utility.yul\":783:902   */\n    tag_44:\n        /* \"#utility.yul\":941:942   */\n      0x00\n        /* \"#utility.yul\":966:1019   */\n      tag_46\n        /* \"#utility.yul\":1011:1018   */\n      dup6\n        /* \"#utility.yul\":1002:1008   */\n      dup3\n        /* \"#utility.yul\":991:1000   */\n      dup7\n        /* \"#utility.yul\":987:1009   */\n      add\n        /* \"#utility.yul\":966:1019   */\n      tag_23\n      jump\t// in\n    tag_46:\n        /* \"#utility.yul\":956:1019   */\n      swap3\n      pop\n        /* \"#utility.yul\":912:1029   */\n      pop\n        /* \"#utility.yul\":1068:1070   */\n      0x20\n        /* \"#utility.yul\":1094:1147   */\n      tag_47\n        /* \"#utility.yul\":1139:1146   */\n      dup6\n        /* \"#utility.yul\":1130:1136   */\n      dup3\n        /* \"#utility.yul\":1119:1128   */\n      dup7\n        /* \"#utility.yul\":1115:1137   */\n      add\n        /* \"#utility.yul\":1094:1147   */\n      tag_23\n      jump\t// in\n    tag_47:\n        /* \"#utility.yul\":1084:1147   */\n      swap2\n      pop\n        /* \"#utility.yul\":1039:1157   */\n      pop\n        /* \"#utility.yul\":690:1164   */\n      swap3\n      pop\n      swap3\n      swap1\n      pop\n      jump\t// out\n        /* \"#utility.yul\":1170:1269   */\n    tag_24:\n        /* \"#utility.yul\":1222:1228   */\n      0x00\n        /* \"#utility.yul\":1256:1261   */\n      dup2\n        /* \"#utility.yul\":1250:1262   */\n      mload\n        /* \"#utility.yul\":1240:1262   */\n      swap1\n      pop\n        /* \"#utility.yul\":1170:1269   */\n      swap2\n      swap1\n      pop\n      jump\t// out\n        /* \"#utility.yul\":1275:1444   */\n    tag_25:\n        /* \"#utility.yul\":1359:1370   */\n      0x00\n        /* \"#utility.yul\":1393:1399   */\n      dup3\n        /* \"#utility.yul\":1388:1391   */\n      dup3\n        /* \"#utility.yul\":1381:1400   */\n      mstore\n        /* \"#utility.yul\":1433:1437   */\n      0x20\n        /* \"#utility.yul\":1428:1431   */\n      dup3\n        /* \"#utility.yul\":1424:1438   */\n      add\n        /* \"#utility.yul\":1409:1438   */\n      swap1\n      pop\n        /* \"#utility.yul\":1275:1444   */\n      swap3\n      swap2\n      pop\n      pop\n      jump\t// out\n        /* \"#utility.yul\":1450:1698   */\n    tag_26:\n        /* \"#utility.yul\":1532:1533   */\n      0x00\n        /* \"#utility.yul\":1542:1655   */\n    tag_51:\n        /* \"#utility.yul\":1556:1562   */\n      dup4\n        /* \"#utility.yul\":1553:1554   */\n      dup2\n        /* \"#utility.yul\":1550:1563   */\n      lt\n        /* \"#utility.yul\":1542:1655   */\n      iszero\n      tag_53\n      jumpi\n        /* \"#utility.yul\":1641:1642   */\n      dup1\n        /* \"#utility.yul\":1636:1639   */\n      dup3\n        /* \"#utility.yul\":1632:1643   */\n      add\n        /* \"#utility.yul\":1626:1644   */\n      mload\n        /* \"#utility.yul\":1622:1623   */\n      dup2\n        /* \"#utility.yul\":1617:1620   */\n      dup5\n        /* \"#utility.yul\":1613:1624   */\n      add\n        /* \"#utility.yul\":1606:1645   */\n      mstore\n        /* \"#utility.yul\":1578:1580   */\n      0x20\n        /* \"#utility.yul\":1575:1576   */\n      dup2\n        /* \"#utility.yul\":1571:1581   */\n      add\n        /* \"#utility.yul\":1566:1581   */\n      swap1\n      pop\n        /* \"#utility.yul\":1542:1655   */\n      jump(tag_51)\n    tag_53:\n        /* \"#utility.yul\":1689:1690   */\n      0x00\n        /* \"#utility.yul\":1680:1686   */\n      dup5\n        /* \"#utility.yul\":1675:1678   */\n      dup5\n        /* \"#utility.yul\":1671:1687   */\n      add\n        /* \"#utility.yul\":1664:1691   */\n      mstore\n        /* \"#utility.yul\":1512:1698   */\n      pop\n        /* \"#utility.yul\":1450:1698   */\n      pop\n      pop\n      pop\n      jump\t// out\n        /* \"#utility.yul\":1704:1806   */\n    tag_27:\n        /* \"#utility.yul\":1745:1751   */\n      0x00\n        /* \"#utility.yul\":1796:1798   */\n      0x1f\n        /* \"#utility.yul\":1792:1799   */\n      not\n        /* \"#utility.yul\":1787:1789   */\n      0x1f\n        /* \"#utility.yul\":1780:1785   */\n      dup4\n        /* \"#utility.yul\":1776:1790   */\n      add\n        /* \"#utility.yul\":1772:1800   */\n      and\n        /* \"#utility.yul\":1762:1800   */\n      swap1\n      pop\n        /* \"#utility.yul\":1704:1806   */\n      swap2\n      swap1\n      pop\n      jump\t// out\n        /* \"#utility.yul\":1812:2189   */\n    tag_28:\n        /* \"#utility.yul\":1900:1903   */\n      0x00\n        /* \"#utility.yul\":1928:1967   */\n      tag_56\n        /* \"#utility.yul\":1961:1966   */\n      dup3\n        /* \"#utility.yul\":1928:1967   */\n      tag_24\n      jump\t// in\n    tag_56:\n        /* \"#utility.yul\":1983:2054   */\n      tag_57\n        /* \"#utility.yul\":2047:2053   */\n      dup2\n        /* \"#utility.yul\":2042:2045   */\n      dup6\n        /* \"#utility.yul\":1983:2054   */\n      tag_25\n      jump\t// in\n    tag_57:\n        /* \"#utility.yul\":1976:2054   */\n      swap4\n      pop\n        /* \"#utility.yul\":2063:2128   */\n      tag_58\n        /* \"#utility.yul\":2121:2127   */\n      dup2\n        /* \"#utility.yul\":2116:2119   */\n      dup6\n        /* \"#utility.yul\":2109:2113   */\n      0x20\n        /* \"#utility.yul\":2102:2107   */\n      dup7\n        /* \"#utility.yul\":2098:2114   */\n      add\n        /* \"#utility.yul\":2063:2128   */\n      tag_26\n      jump\t// in\n    tag_58:\n        /* \"#utility.yul\":2153:2182   */\n      tag_59\n        /* \"#utility.yul\":2175:2181   */\n      dup2\n        /* \"#utility.yul\":2153:2182   */\n      tag_27\n      jump\t// in\n    tag_59:\n        /* \"#utility.yul\":2148:2151   */\n      dup5\n        /* \"#utility.yul\":2144:2183   */\n      add\n        /* \"#utility.yul\":2137:2183   */\n      swap2\n      pop\n        /* \"#utility.yul\":1904:2189   */\n      pop\n        /* \"#utility.yul\":1812:2189   */\n      swap3\n      swap2\n      pop\n      pop\n      jump\t// out\n        /* \"#utility.yul\":2195:2313   */\n    tag_29:\n        /* \"#utility.yul\":2282:2306   */\n      tag_61\n        /* \"#utility.yul\":2300:2305   */\n      dup2\n        /* \"#utility.yul\":2282:2306   */\n      tag_21\n      jump\t// in\n    tag_61:\n        /* \"#utility.yul\":2277:2280   */\n      dup3\n        /* \"#utility.yul\":2270:2307   */\n      mstore\n        /* \"#utility.yul\":2195:2313   */\n      pop\n      pop\n      jump\t// out\n        /* \"#utility.yul\":2319:2742   */\n    tag_9:\n        /* \"#utility.yul\":2460:2464   */\n      0x00\n        /* \"#utility.yul\":2498:2500   */\n      0x40\n        /* \"#utility.yul\":2487:2496   */\n      dup3\n        /* \"#utility.yul\":2483:2501   */\n      add\n        /* \"#utility.yul\":2475:2501   */\n      swap1\n      pop\n        /* \"#utility.yul\":2547:2556   */\n      dup2\n        /* \"#utility.yul\":2541:2545   */\n      dup2\n        /* \"#utility.yul\":2537:2557   */\n      sub\n        /* \"#utility.yul\":2533:2534   */\n      0x00\n        /* \"#utility.yul\":2522:2531   */\n      dup4\n        /* \"#utility.yul\":2518:2535   */\n      add\n        /* \"#utility.yul\":2511:2558   */\n      mstore\n        /* \"#utility.yul\":2575:2653   */\n      tag_63\n        /* \"#utility.yul\":2648:2652   */\n      dup2\n        /* \"#utility.yul\":2639:2645   */\n      dup6\n        /* \"#utility.yul\":2575:2653   */\n      tag_28\n      jump\t// in\n    tag_63:\n        /* \"#utility.yul\":2567:2653   */\n      swap1\n      pop\n        /* \"#utility.yul\":2663:2735   */\n      tag_64\n        /* \"#utility.yul\":2731:2733   */\n      0x20\n        /* \"#utility.yul\":2720:2729   */\n      dup4\n        /* \"#utility.yul\":2716:2734   */\n      add\n        /* \"#utility.yul\":2707:2713   */\n      dup5\n        /* \"#utility.yul\":2663:2735   */\n      tag_29\n      jump\t// in\n    tag_64:\n        /* \"#utility.yul\":2319:2742   */\n      swap4\n      swap3\n      pop\n      pop\n      pop\n      jump\t// out\n        /* \"#utility.yul\":2748:2928   */\n    tag_30:\n        /* \"#utility.yul\":2796:2873   */\n      0x4e487b7100000000000000000000000000000000000000000000000000000000\n        /* \"#utility.yul\":2793:2794   */\n      0x00\n        /* \"#utility.yul\":2786:2874   */\n      mstore\n        /* \"#utility.yul\":2893:2897   */\n      0x11\n        /* \"#utility.yul\":2890:2891   */\n      0x04\n        /* \"#utility.yul\":2883:2898   */\n      mstore\n        /* \"#utility.yul\":2917:2921   */\n      0x24\n        /* \"#utility.yul\":2914:2915   */\n      0x00\n        /* \"#utility.yul\":2907:2922   */\n      revert\n        /* \"#utility.yul\":2934:3125   */\n    tag_12:\n        /* \"#utility.yul\":2974:2977   */\n      0x00\n        /* \"#utility.yul\":2993:3013   */\n      tag_67\n        /* \"#utility.yul\":3011:3012   */\n      dup3\n        /* \"#utility.yul\":2993:3013   */\n      tag_21\n      jump\t// in\n    tag_67:\n        /* \"#utility.yul\":2988:3013   */\n      swap2\n      pop\n        /* \"#utility.yul\":3027:3047   */\n      tag_68\n        /* \"#utility.yul\":3045:3046   */\n      dup4\n        /* \"#utility.yul\":3027:3047   */\n      tag_21\n      jump\t// in\n    tag_68:\n        /* \"#utility.yul\":3022:3047   */\n      swap3\n      pop\n        /* \"#utility.yul\":3070:3071   */\n      dup3\n        /* \"#utility.yul\":3067:3068   */\n      dup3\n        /* \"#utility.yul\":3063:3072   */\n      add\n        /* \"#utility.yul\":3056:3072   */\n      swap1\n      pop\n        /* \"#utility.yul\":3091:3094   */\n      dup1\n        /* \"#utility.yul\":3088:3089   */\n      dup3\n        /* \"#utility.yul\":3085:3095   */\n      gt\n        /* \"#utility.yul\":3082:3118   */\n      iszero\n      tag_69\n      jumpi\n        /* \"#utility.yul\":3098:3116   */\n      tag_70\n      tag_30\n      jump\t// in\n    tag_70:\n        /* \"#utility.yul\":3082:3118   */\n    tag_69:\n        /* \"#utility.yul\":2934:3125   */\n      swap3\n      swap2\n      pop\n      pop\n      jump\t// out\n        /* \"#utility.yul\":3131:3295   */\n    tag_31:\n        /* \"#utility.yul\":3271:3287   */\n      0x6f766572666c6f77206578697374000000000000000000000000000000000000\n        /* \"#utility.yul\":3267:3268   */\n      0x00\n        /* \"#utility.yul\":3259:3265   */\n      dup3\n        /* \"#utility.yul\":3255:3269   */\n      add\n        /* \"#utility.yul\":3248:3288   */\n      mstore\n        /* \"#utility.yul\":3131:3295   */\n      pop\n      jump\t// out\n        /* \"#utility.yul\":3301:3667   */\n    tag_32:\n        /* \"#utility.yul\":3443:3446   */\n      0x00\n        /* \"#utility.yul\":3464:3531   */\n      tag_73\n        /* \"#utility.yul\":3528:3530   */\n      0x0e\n        /* \"#utility.yul\":3523:3526   */\n      dup4\n        /* \"#utility.yul\":3464:3531   */\n      tag_25\n      jump\t// in\n    tag_73:\n        /* \"#utility.yul\":3457:3531   */\n      swap2\n      pop\n        /* \"#utility.yul\":3540:3633   */\n      tag_74\n        /* \"#utility.yul\":3629:3632   */\n      dup3\n        /* \"#utility.yul\":3540:3633   */\n      tag_31\n      jump\t// in\n    tag_74:\n        /* \"#utility.yul\":3658:3660   */\n      0x20\n        /* \"#utility.yul\":3653:3656   */\n      dup3\n        /* \"#utility.yul\":3649:3661   */\n      add\n        /* \"#utility.yul\":3642:3661   */\n      swap1\n      pop\n        /* \"#utility.yul\":3301:3667   */\n      swap2\n      swap1\n      pop\n      jump\t// out\n        /* \"#utility.yul\":3673:4092   */\n    tag_16:\n        /* \"#utility.yul\":3839:3843   */\n      0x00\n        /* \"#utility.yul\":3877:3879   */\n      0x20\n        /* \"#utility.yul\":3866:3875   */\n      dup3\n        /* \"#utility.yul\":3862:3880   */\n      add\n        /* \"#utility.yul\":3854:3880   */\n      swap1\n      pop\n        /* \"#utility.yul\":3926:3935   */\n      dup2\n        /* \"#utility.yul\":3920:3924   */\n      dup2\n        /* \"#utility.yul\":3916:3936   */\n      sub\n        /* \"#utility.yul\":3912:3913   */\n      0x00\n        /* \"#utility.yul\":3901:3910   */\n      dup4\n        /* \"#utility.yul\":3897:3914   */\n      add\n        /* \"#utility.yul\":3890:3937   */\n      mstore\n        /* \"#utility.yul\":3954:4085   */\n      tag_76\n        /* \"#utility.yul\":4080:4084   */\n      dup2\n        /* \"#utility.yul\":3954:4085   */\n      tag_32\n      jump\t// in\n    tag_76:\n        /* \"#utility.yul\":3946:4085   */\n      swap1\n      pop\n        /* \"#utility.yul\":3673:4092   */\n      swap2\n      swap1\n      pop\n      jump\t// out\n\n    auxdata: 0xa2646970667358221220eaf22b31d0c23d72cdeaea8b29ffe123a99d64e4a4b23f492b7fb7cc0d219cdf64736f6c63430008220033\n}\n",
				"bytecode": {
					"linkReferences": {},
					"object": "6080604052348015600f57600080fd5b506103568061001f6000396000f3fe608060405234801561001057600080fd5b506004361061002b5760003560e01c8063d695697014610030575b600080fd5b61004a60048036038101906100459190610142565b610061565b604051610058929190610221565b60405180910390f35b606060008083856100729190610280565b90506000811080610083575060ff81115b156100c3576040517f08c379a00000000000000000000000000000000000000000000000000000000081526004016100ba90610300565b60405180910390fd5b806040518060400160405280600b81526020017f6e6f206f766572666c6f770000000000000000000000000000000000000000008152509092509250509250929050565b600080fd5b6000819050919050565b61011f8161010c565b811461012a57600080fd5b50565b60008135905061013c81610116565b92915050565b6000806040838503121561015957610158610107565b5b60006101678582860161012d565b92505060206101788582860161012d565b9150509250929050565b600081519050919050565b600082825260208201905092915050565b60005b838110156101bc5780820151818401526020810190506101a1565b60008484015250505050565b6000601f19601f8301169050919050565b60006101e482610182565b6101ee818561018d565b93506101fe81856020860161019e565b610207816101c8565b840191505092915050565b61021b8161010c565b82525050565b6000604082019050818103600083015261023b81856101d9565b905061024a6020830184610212565b9392505050565b7f4e487b7100000000000000000000000000000000000000000000000000000000600052601160045260246000fd5b600061028b8261010c565b91506102968361010c565b92508282019050808211156102ae576102ad610251565b5b92915050565b7f6f766572666c6f77206578697374000000000000000000000000000000000000600082015250565b60006102ea600e8361018d565b91506102f5826102b4565b602082019050919050565b60006020820190508181036000830152610319816102dd565b905091905056fea2646970667358221220eaf22b31d0c23d72cdeaea8b29ffe123a99d64e4a4b23f492b7fb7cc0d219cdf64736f6c63430008220033",
					"opcodes": "PUSH1 0x80 PUSH1 0x40 MSTORE CALLVALUE DUP1 ISZERO PUSH1 0xF JUMPI PUSH1 0x0 DUP1 REVERT JUMPDEST POP PUSH2 0x356 DUP1 PUSH2 0x1F PUSH1 0x0 CODECOPY PUSH1 0x0 RETURN INVALID PUSH1 0x80 PUSH1 0x40 MSTORE CALLVALUE DUP1 ISZERO PUSH2 0x10 JUMPI PUSH1 0x0 DUP1 REVERT JUMPDEST POP PUSH1 0x4 CALLDATASIZE LT PUSH2 0x2B JUMPI PUSH1 0x0 CALLDATALOAD PUSH1 0xE0 SHR DUP1 PUSH4 0xD6956970 EQ PUSH2 0x30 JUMPI JUMPDEST PUSH1 0x0 DUP1 REVERT JUMPDEST PUSH2 0x4A PUSH1 0x4 DUP1 CALLDATASIZE SUB DUP2 ADD SWAP1 PUSH2 0x45 SWAP2 SWAP1 PUSH2 0x142 JUMP JUMPDEST PUSH2 0x61 JUMP JUMPDEST PUSH1 0x40 MLOAD PUSH2 0x58 SWAP3 SWAP2 SWAP1 PUSH2 0x221 JUMP JUMPDEST PUSH1 0x40 MLOAD DUP1 SWAP2 SUB SWAP1 RETURN JUMPDEST PUSH1 0x60 PUSH1 0x0 DUP1 DUP4 DUP6 PUSH2 0x72 SWAP2 SWAP1 PUSH2 0x280 JUMP JUMPDEST SWAP1 POP PUSH1 0x0 DUP2 LT DUP1 PUSH2 0x83 JUMPI POP PUSH1 0xFF DUP2 GT JUMPDEST ISZERO PUSH2 0xC3 JUMPI PUSH1 0x40 MLOAD PUSH32 0x8C379A000000000000000000000000000000000000000000000000000000000 DUP2 MSTORE PUSH1 0x4 ADD PUSH2 0xBA SWAP1 PUSH2 0x300 JUMP JUMPDEST PUSH1 0x40 MLOAD DUP1 SWAP2 SUB SWAP1 REVERT JUMPDEST DUP1 PUSH1 0x40 MLOAD DUP1 PUSH1 0x40 ADD PUSH1 0x40 MSTORE DUP1 PUSH1 0xB DUP2 MSTORE PUSH1 0x20 ADD PUSH32 0x6E6F206F766572666C6F77000000000000000000000000000000000000000000 DUP2 MSTORE POP SWAP1 SWAP3 POP SWAP3 POP POP SWAP3 POP SWAP3 SWAP1 POP JUMP JUMPDEST PUSH1 0x0 DUP1 REVERT JUMPDEST PUSH1 0x0 DUP2 SWAP1 POP SWAP2 SWAP1 POP JUMP JUMPDEST PUSH2 0x11F DUP2 PUSH2 0x10C JUMP JUMPDEST DUP2 EQ PUSH2 0x12A JUMPI PUSH1 0x0 DUP1 REVERT JUMPDEST POP JUMP JUMPDEST PUSH1 0x0 DUP2 CALLDATALOAD SWAP1 POP PUSH2 0x13C DUP2 PUSH2 0x116 JUMP JUMPDEST SWAP3 SWAP2 POP POP JUMP JUMPDEST PUSH1 0x0 DUP1 PUSH1 0x40 DUP4 DUP6 SUB SLT ISZERO PUSH2 0x159 JUMPI PUSH2 0x158 PUSH2 0x107 JUMP JUMPDEST JUMPDEST PUSH1 0x0 PUSH2 0x167 DUP6 DUP3 DUP7 ADD PUSH2 0x12D JUMP JUMPDEST SWAP3 POP POP PUSH1 0x20 PUSH2 0x178 DUP6 DUP3 DUP7 ADD PUSH2 0x12D JUMP JUMPDEST SWAP2 POP POP SWAP3 POP SWAP3 SWAP1 POP JUMP JUMPDEST PUSH1 0x0 DUP2 MLOAD SWAP1 POP SWAP2 SWAP1 POP JUMP JUMPDEST PUSH1 0x0 DUP3 DUP3 MSTORE PUSH1 0x20 DUP3 ADD SWAP1 POP SWAP3 SWAP2 POP POP JUMP JUMPDEST PUSH1 0x0 JUMPDEST DUP4 DUP2 LT ISZERO PUSH2 0x1BC JUMPI DUP1 DUP3 ADD MLOAD DUP2 DUP5 ADD MSTORE PUSH1 0x20 DUP2 ADD SWAP1 POP PUSH2 0x1A1 JUMP JUMPDEST PUSH1 0x0 DUP5 DUP5 ADD MSTORE POP POP POP POP JUMP JUMPDEST PUSH1 0x0 PUSH1 0x1F NOT PUSH1 0x1F DUP4 ADD AND SWAP1 POP SWAP2 SWAP1 POP JUMP JUMPDEST PUSH1 0x0 PUSH2 0x1E4 DUP3 PUSH2 0x182 JUMP JUMPDEST PUSH2 0x1EE DUP2 DUP6 PUSH2 0x18D JUMP JUMPDEST SWAP4 POP PUSH2 0x1FE DUP2 DUP6 PUSH1 0x20 DUP7 ADD PUSH2 0x19E JUMP JUMPDEST PUSH2 0x207 DUP2 PUSH2 0x1C8 JUMP JUMPDEST DUP5 ADD SWAP2 POP POP SWAP3 SWAP2 POP POP JUMP JUMPDEST PUSH2 0x21B DUP2 PUSH2 0x10C JUMP JUMPDEST DUP3 MSTORE POP POP JUMP JUMPDEST PUSH1 0x0 PUSH1 0x40 DUP3 ADD SWAP1 POP DUP2 DUP2 SUB PUSH1 0x0 DUP4 ADD MSTORE PUSH2 0x23B DUP2 DUP6 PUSH2 0x1D9 JUMP JUMPDEST SWAP1 POP PUSH2 0x24A PUSH1 0x20 DUP4 ADD DUP5 PUSH2 0x212 JUMP JUMPDEST SWAP4 SWAP3 POP POP POP JUMP JUMPDEST PUSH32 0x4E487B7100000000000000000000000000000000000000000000000000000000 PUSH1 0x0 MSTORE PUSH1 0x11 PUSH1 0x4 MSTORE PUSH1 0x24 PUSH1 0x0 REVERT JUMPDEST PUSH1 0x0 PUSH2 0x28B DUP3 PUSH2 0x10C JUMP JUMPDEST SWAP2 POP PUSH2 0x296 DUP4 PUSH2 0x10C JUMP JUMPDEST SWAP3 POP DUP3 DUP3 ADD SWAP1 POP DUP1 DUP3 GT ISZERO PUSH2 0x2AE JUMPI PUSH2 0x2AD PUSH2 0x251 JUMP JUMPDEST JUMPDEST SWAP3 SWAP2 POP POP JUMP JUMPDEST PUSH32 0x6F766572666C6F77206578697374000000000000000000000000000000000000 PUSH1 0x0 DUP3 ADD MSTORE POP JUMP JUMPDEST PUSH1 0x0 PUSH2 0x2EA PUSH1 0xE DUP4 PUSH2 0x18D JUMP JUMPDEST SWAP2 POP PUSH2 0x2F5 DUP3 PUSH2 0x2B4 JUMP JUMPDEST PUSH1 0x20 DUP3 ADD SWAP1 POP SWAP2 SWAP1 POP JUMP JUMPDEST PUSH1 0x0 PUSH1 0x20 DUP3 ADD SWAP1 POP DUP2 DUP2 SUB PUSH1 0x0 DUP4 ADD MSTORE PUSH2 0x319 DUP2 PUSH2 0x2DD JUMP JUMPDEST SWAP1 POP SWAP2 SWAP1 POP JUMP INVALID LOG2 PUSH5 0x6970667358 0x22 SLT KECCAK256 0xEA CALLCODE 0x2B BALANCE 0xD0 0xC2 RETURNDATASIZE PUSH19 0xCDEAEA8B29FFE123A99D64E4A4B23F492B7FB7 0xCC 0xD 0x21 SWAP13 0xDF PUSH5 0x736F6C6343 STOP ADDMOD 0x22 STOP CALLER "
				},
				"gasEstimates": {
					"creation": {
						"codeDepositCost": "170800",
						"executionCost": "214",
						"totalCost": "171014"
					},
					"external": {
						"checkOverflow(uint256,uint256)": "infinite"
					}
				},
				"methodIdentifiers": {
					"checkOverflow(uint256,uint256)": "d6956970"
				}
			},
			"storageLayout": {
				"storage": [],
				"types": null
			},
			"userdoc": {
				"kind": "user",
				"methods": {},
				"version": 1
			}
		}
	}
}