{
	"array.sol": {
		"Array": {
			"abi": [
				{
					"inputs": [
						{
							"internalType": "uint256",
							"name": "",
							"type": "uint256"
						}
					],
					"name": "arr",
					"outputs": [
						{
							"internalType": "uint256",
							"name": "",
							"type": "uint256"
						}
					],
					"stateMutability": "view",
					"type": "function"
				},
				{
					"inputs": [
						{
							"internalType": "uint256",
							"name": "",
							"type": "uint256"
						}
					],
					"name": "arr2",
					"outputs": [
						{
							"internalType": "uint256",
							"name": "",
							"type": "uint256"
						}
					],
					"stateMutability": "view",
					"type": "function"
				},
				{
					"inputs": [],
					"name": "examples",
					"outputs": [],
					"stateMutability": "pure",
					"type": "function"
				},
				{
					"inputs": [
						{
							"internalType": "uint256",
							"name": "i",
							"type": "uint256"
						}
					],
					"name": "get",
					"outputs": [
						{
							"internalType": "uint256",
							"name": "",
							"type": "uint256"
						}
					],
					"stateMutability": "view",
					"type": "function"
				},
				{
					"inputs": [],
					"name": "getArr",
					"outputs": [
						{
							"internalType": "uint256[]",
							"name": "",
							"type": "uint256[]"
						}
					],
					"stateMutability": "view",
					"type": "function"
				},
				{
					"inputs": [],
					"name": "getlength",
					"outputs": [
						{
							"internalType": "uint256",
							"name": "",
							"type": "uint256"
						}
					],
					"stateMutability": "view",
					"type": "function"
				},
				{
					"inputs": [
						{
							"internalType": "uint256",
							"name": "",
							"type": "uint256"
						}
					],
					"name": "myFixedsizearr",
					"outputs": [
						{
							"internalType": "uint256",
							"name": "",
							"type": "uint256"
						}
					],
					"stateMutability": "view",
					"type": "function"
				},
				{
					"inputs": [],
					"name": "pop",
					"outputs": [],
					"stateMutability": "nonpayable",
					"type": "function"
				},
				{
					"inputs": [
						{
							"internalType": "uint256",
							"name": "i",
							"type": "uint256"
						}
					],
					"name": "push",
					"outputs": [],
					"stateMutability": "nonpayable",
					"type": "function"
				},
				{
					"inputs": [
						{
							"internalType": "uint256",
							"name": "index",
							"type": "uint256"
						}
					],
					"name": "remove",
					"outputs": [],
					"stateMutability": "nonpayable",
					"type": "function"
				}
			],
			"devdoc": {
				"kind": "dev",
				"methods": {},
				"version": 1
			},
			"evm": {
				"assembly": "    /* \"array.sol\":61:1342  contract Array{... */\n  mstore(0x40, 0x80)\n    /* \"array.sol\":152:179  uint[] public arr2 =[1,2,3] */\n  mload(0x40)\n  dup1\n  0x60\n  add\n  0x40\n  mstore\n  dup1\n    /* \"array.sol\":173:174  1 */\n  0x01\n    /* \"array.sol\":152:179  uint[] public arr2 =[1,2,3] */\n  0xff\n  and\n  dup2\n  mstore\n  0x20\n  add\n    /* \"array.sol\":175:176  2 */\n  0x02\n    /* \"array.sol\":152:179  uint[] public arr2 =[1,2,3] */\n  0xff\n  and\n  dup2\n  mstore\n  0x20\n  add\n    /* \"array.sol\":177:178  3 */\n  0x03\n    /* \"array.sol\":152:179  uint[] public arr2 =[1,2,3] */\n  0xff\n  and\n  dup2\n  mstore\n  pop\n  0x01\n  swap1\n  dup2\n  tag_1\n  swap2\n  swap1\n  tag_2\n  jump\t// in\ntag_1:\n  pop\n    /* \"array.sol\":61:1342  contract Array{... */\n  callvalue\n  dup1\n  iszero\n  tag_3\n  jumpi\n  0x00\n  dup1\n  revert\ntag_3:\n  pop\n  jump(tag_4)\n    /* \"#utility.yul\":7:187   */\ntag_5:\n    /* \"#utility.yul\":55:132   */\n  0x4e487b7100000000000000000000000000000000000000000000000000000000\n    /* \"#utility.yul\":52:53   */\n  0x00\n    /* \"#utility.yul\":45:133   */\n  mstore\n    /* \"#utility.yul\":152:156   */\n  0x41\n    /* \"#utility.yul\":149:150   */\n  0x04\n    /* \"#utility.yul\":142:157   */\n  mstore\n    /* \"#utility.yul\":176:180   */\n  0x24\n    /* \"#utility.yul\":173:174   */\n  0x00\n    /* \"#utility.yul\":166:181   */\n  revert\n    /* \"#utility.yul\":193:304   */\ntag_6:\n    /* \"#utility.yul\":257:263   */\n  0x00\n    /* \"#utility.yul\":291:296   */\n  dup2\n    /* \"#utility.yul\":285:297   */\n  sload\n    /* \"#utility.yul\":275:297   */\n  swap1\n  pop\n    /* \"#utility.yul\":193:304   */\n  swap2\n  swap1\n  pop\n  jump\t// out\n    /* \"#utility.yul\":310:387   */\ntag_7:\n    /* \"#utility.yul\":347:354   */\n  0x00\n    /* \"#utility.yul\":376:381   */\n  dup2\n    /* \"#utility.yul\":365:381   */\n  swap1\n  pop\n    /* \"#utility.yul\":310:387   */\n  swap2\n  swap1\n  pop\n  jump\t// out\n    /* \"#utility.yul\":995:1198   */\ntag_10:\n    /* \"#utility.yul\":1076:1080   */\n  0x00\n    /* \"#utility.yul\":1099:1105   */\n  dup2\n    /* \"#utility.yul\":1091:1105   */\n  swap1\n  pop\n    /* \"#utility.yul\":1189:1190   */\n  0x01\n    /* \"#utility.yul\":1184:1185   */\n  dup1\n    /* \"#utility.yul\":1181:1182   */\n  0x01\n    /* \"#utility.yul\":1177:1186   */\n  sub\n    /* \"#utility.yul\":1169:1175   */\n  dup4\n    /* \"#utility.yul\":1165:1187   */\n  add\n    /* \"#utility.yul\":1161:1191   */\n  div\n    /* \"#utility.yul\":1153:1191   */\n  swap1\n  pop\n    /* \"#utility.yul\":995:1198   */\n  swap2\n  swap1\n  pop\n  jump\t// out\n    /* \"#utility.yul\":1203:1359   */\ntag_11:\n    /* \"#utility.yul\":1267:1271   */\n  0x00\n    /* \"#utility.yul\":1290:1293   */\n  dup2\n    /* \"#utility.yul\":1282:1293   */\n  swap1\n  pop\n    /* \"#utility.yul\":1313:1316   */\n  dup2\n    /* \"#utility.yul\":1310:1311   */\n  0x00\n    /* \"#utility.yul\":1303:1317   */\n  mstore\n    /* \"#utility.yul\":1347:1351   */\n  0x20\n    /* \"#utility.yul\":1344:1345   */\n  0x00\n    /* \"#utility.yul\":1334:1352   */\n  keccak256\n    /* \"#utility.yul\":1326:1352   */\n  swap1\n  pop\n    /* \"#utility.yul\":1203:1359   */\n  swap2\n  swap1\n  pop\n  jump\t// out\n    /* \"#utility.yul\":1365:1472   */\ntag_12:\n    /* \"#utility.yul\":1409:1417   */\n  0x00\n    /* \"#utility.yul\":1459:1464   */\n  dup3\n    /* \"#utility.yul\":1453:1457   */\n  dup3\n    /* \"#utility.yul\":1449:1465   */\n  shl\n    /* \"#utility.yul\":1428:1465   */\n  swap1\n  pop\n    /* \"#utility.yul\":1365:1472   */\n  swap3\n  swap2\n  pop\n  pop\n  jump\t// out\n    /* \"#utility.yul\":1478:1871   */\ntag_13:\n    /* \"#utility.yul\":1547:1553   */\n  0x00\n    /* \"#utility.yul\":1597:1598   */\n  0x08\n    /* \"#utility.yul\":1585:1595   */\n  dup4\n    /* \"#utility.yul\":1581:1599   */\n  mul\n    /* \"#utility.yul\":1620:1717   */\n  tag_47\n    /* \"#utility.yul\":1650:1716   */\n  0xffffffffffffffffffffffffffffffffffffffffffffffffffffffffffffffff\n    /* \"#utility.yul\":1639:1648   */\n  dup3\n    /* \"#utility.yul\":1620:1717   */\n  tag_12\n  jump\t// in\ntag_47:\n    /* \"#utility.yul\":1738:1777   */\n  tag_48\n    /* \"#utility.yul\":1768:1776   */\n  dup7\n    /* \"#utility.yul\":1757:1766   */\n  dup4\n    /* \"#utility.yul\":1738:1777   */\n  tag_12\n  jump\t// in\ntag_48:\n    /* \"#utility.yul\":1726:1777   */\n  swap6\n  pop\n    /* \"#utility.yul\":1810:1814   */\n  dup1\n    /* \"#utility.yul\":1806:1815   */\n  not\n    /* \"#utility.yul\":1799:1804   */\n  dup5\n    /* \"#utility.yul\":1795:1816   */\n  and\n    /* \"#utility.yul\":1786:1816   */\n  swap4\n  pop\n    /* \"#utility.yul\":1859:1863   */\n  dup1\n    /* \"#utility.yul\":1849:1857   */\n  dup7\n    /* \"#utility.yul\":1845:1864   */\n  and\n    /* \"#utility.yul\":1838:1843   */\n  dup5\n    /* \"#utility.yul\":1835:1865   */\n  or\n    /* \"#utility.yul\":1825:1865   */\n  swap3\n  pop\n    /* \"#utility.yul\":1554:1871   */\n  pop\n  pop\n    /* \"#utility.yul\":1478:1871   */\n  swap4\n  swap3\n  pop\n  pop\n  pop\n  jump\t// out\n    /* \"#utility.yul\":1877:1937   */\ntag_14:\n    /* \"#utility.yul\":1905:1908   */\n  0x00\n    /* \"#utility.yul\":1926:1931   */\n  dup2\n    /* \"#utility.yul\":1919:1931   */\n  swap1\n  pop\n    /* \"#utility.yul\":1877:1937   */\n  swap2\n  swap1\n  pop\n  jump\t// out\n    /* \"#utility.yul\":1943:2085   */\ntag_15:\n    /* \"#utility.yul\":1993:2002   */\n  0x00\n    /* \"#utility.yul\":2026:2079   */\n  tag_51\n    /* \"#utility.yul\":2044:2078   */\n  tag_52\n    /* \"#utility.yul\":2053:2077   */\n  tag_53\n    /* \"#utility.yul\":2071:2076   */\n  dup5\n    /* \"#utility.yul\":2053:2077   */\n  tag_7\n  jump\t// in\ntag_53:\n    /* \"#utility.yul\":2044:2078   */\n  tag_14\n  jump\t// in\ntag_52:\n    /* \"#utility.yul\":2026:2079   */\n  tag_7\n  jump\t// in\ntag_51:\n    /* \"#utility.yul\":2013:2079   */\n  swap1\n  pop\n    /* \"#utility.yul\":1943:2085   */\n  swap2\n  swap1\n  pop\n  jump\t// out\n    /* \"#utility.yul\":2091:2166   */\ntag_16:\n    /* \"#utility.yul\":2134:2137   */\n  0x00\n    /* \"#utility.yul\":2155:2160   */\n  dup2\n    /* \"#utility.yul\":2148:2160   */\n  swap1\n  pop\n    /* \"#utility.yul\":2091:2166   */\n  swap2\n  swap1\n  pop\n  jump\t// out\n    /* \"#utility.yul\":2172:2441   */\ntag_17:\n    /* \"#utility.yul\":2282:2321   */\n  tag_56\n    /* \"#utility.yul\":2313:2320   */\n  dup4\n    /* \"#utility.yul\":2282:2321   */\n  tag_15\n  jump\t// in\ntag_56:\n    /* \"#utility.yul\":2343:2434   */\n  tag_57\n    /* \"#utility.yul\":2392:2433   */\n  tag_58\n    /* \"#utility.yul\":2416:2432   */\n  dup3\n    /* \"#utility.yul\":2392:2433   */\n  tag_16\n  jump\t// in\ntag_58:\n    /* \"#utility.yul\":2384:2390   */\n  dup5\n    /* \"#utility.yul\":2377:2381   */\n  dup5\n    /* \"#utility.yul\":2371:2382   */\n  sload\n    /* \"#utility.yul\":2343:2434   */\n  tag_13\n  jump\t// in\ntag_57:\n    /* \"#utility.yul\":2337:2341   */\n  dup3\n    /* \"#utility.yul\":2330:2435   */\n  sstore\n    /* \"#utility.yul\":2248:2441   */\n  pop\n    /* \"#utility.yul\":2172:2441   */\n  pop\n  pop\n  pop\n  jump\t// out\n    /* \"#utility.yul\":2447:2520   */\ntag_18:\n    /* \"#utility.yul\":2492:2495   */\n  0x00\n    /* \"#utility.yul\":2447:2520   */\n  swap1\n  jump\t// out\n    /* \"#utility.yul\":2526:2715   */\ntag_19:\n    /* \"#utility.yul\":2603:2635   */\n  tag_61\n  tag_18\n  jump\t// in\ntag_61:\n    /* \"#utility.yul\":2644:2709   */\n  tag_62\n    /* \"#utility.yul\":2702:2708   */\n  dup2\n    /* \"#utility.yul\":2694:2700   */\n  dup5\n    /* \"#utility.yul\":2688:2692   */\n  dup5\n    /* \"#utility.yul\":2644:2709   */\n  tag_17\n  jump\t// in\ntag_62:\n    /* \"#utility.yul\":2579:2715   */\n  pop\n    /* \"#utility.yul\":2526:2715   */\n  pop\n  pop\n  jump\t// out\n    /* \"#utility.yul\":2721:2936   */\ntag_20:\n    /* \"#utility.yul\":2807:2808   */\n  0x00\n    /* \"#utility.yul\":2792:2930   */\ntag_64:\n    /* \"#utility.yul\":2817:2826   */\n  dup3\n    /* \"#utility.yul\":2814:2815   */\n  dup2\n    /* \"#utility.yul\":2811:2827   */\n  lt\n    /* \"#utility.yul\":2792:2930   */\n  iszero\n  tag_66\n  jumpi\n    /* \"#utility.yul\":2869:2920   */\n  tag_67\n    /* \"#utility.yul\":2918:2919   */\n  0x00\n    /* \"#utility.yul\":2914:2915   */\n  dup3\n    /* \"#utility.yul\":2903:2912   */\n  dup5\n    /* \"#utility.yul\":2899:2916   */\n  add\n    /* \"#utility.yul\":2869:2920   */\n  tag_19\n  jump\t// in\ntag_67:\n    /* \"#utility.yul\":2842:2843   */\n  0x01\n    /* \"#utility.yul\":2839:2840   */\n  dup2\n    /* \"#utility.yul\":2835:2844   */\n  add\n    /* \"#utility.yul\":2830:2844   */\n  swap1\n  pop\n    /* \"#utility.yul\":2792:2930   */\n  jump(tag_64)\ntag_66:\n    /* \"#utility.yul\":2796:2810   */\n  pop\n    /* \"#utility.yul\":2721:2936   */\n  pop\n  pop\n  jump\t// out\n    /* \"#utility.yul\":3315:3955   */\ntag_23:\n    /* \"#utility.yul\":3435:3438   */\n  dup2\n    /* \"#utility.yul\":3423:3433   */\n  dup4\n    /* \"#utility.yul\":3420:3439   */\n  lt\n    /* \"#utility.yul\":3417:3948   */\n  iszero\n  tag_72\n  jumpi\n    /* \"#utility.yul\":3526:3591   */\n  tag_73\n    /* \"#utility.yul\":3587:3590   */\n  dup3\n    /* \"#utility.yul\":3526:3591   */\n  tag_10\n  jump\t// in\ntag_73:\n    /* \"#utility.yul\":3624:3696   */\n  tag_74\n    /* \"#utility.yul\":3685:3695   */\n  dup5\n    /* \"#utility.yul\":3624:3696   */\n  tag_10\n  jump\t// in\ntag_74:\n    /* \"#utility.yul\":3731:3784   */\n  tag_75\n    /* \"#utility.yul\":3778:3783   */\n  dup4\n    /* \"#utility.yul\":3731:3784   */\n  tag_11\n  jump\t// in\ntag_75:\n    /* \"#utility.yul\":3836:3848   */\n  dup2\n    /* \"#utility.yul\":3820:3834   */\n  dup2\n    /* \"#utility.yul\":3816:3849   */\n  add\n    /* \"#utility.yul\":3863:3938   */\n  tag_76\n    /* \"#utility.yul\":3924:3936   */\n  dup4\n    /* \"#utility.yul\":3910:3922   */\n  dup6\n    /* \"#utility.yul\":3906:3937   */\n  sub\n    /* \"#utility.yul\":3893:3904   */\n  dup3\n    /* \"#utility.yul\":3863:3938   */\n  tag_20\n  jump\t// in\ntag_76:\n    /* \"#utility.yul\":3440:3948   */\n  pop\n  pop\n  pop\n  pop\n    /* \"#utility.yul\":3417:3948   */\ntag_72:\n    /* \"#utility.yul\":3315:3955   */\n  pop\n  pop\n  pop\n  jump\t// out\n    /* \"#utility.yul\":3961:4349   */\ntag_24:\n    /* \"#utility.yul\":4054:4074   */\n  0x010000000000000000\n    /* \"#utility.yul\":4046:4052   */\n  dup3\n    /* \"#utility.yul\":4043:4075   */\n  gt\n    /* \"#utility.yul\":4040:4118   */\n  iszero\n  tag_78\n  jumpi\n    /* \"#utility.yul\":4090:4108   */\n  tag_79\n  tag_5\n  jump\t// in\ntag_79:\n    /* \"#utility.yul\":4040:4118   */\ntag_78:\n    /* \"#utility.yul\":4142:4193   */\n  tag_80\n    /* \"#utility.yul\":4187:4192   */\n  dup2\n    /* \"#utility.yul\":4142:4193   */\n  tag_6\n  jump\t// in\ntag_80:\n    /* \"#utility.yul\":4245:4251   */\n  dup3\n    /* \"#utility.yul\":4238:4243   */\n  dup3\n    /* \"#utility.yul\":4231:4252   */\n  sstore\n    /* \"#utility.yul\":4262:4342   */\n  tag_81\n    /* \"#utility.yul\":4335:4341   */\n  dup4\n    /* \"#utility.yul\":4327:4333   */\n  dup3\n    /* \"#utility.yul\":4320:4325   */\n  dup5\n    /* \"#utility.yul\":4262:4342   */\n  tag_23\n  jump\t// in\ntag_81:\n    /* \"#utility.yul\":4030:4349   */\n  pop\n    /* \"#utility.yul\":3961:4349   */\n  pop\n  pop\n  jump\t// out\n    /* \"#utility.yul\":4354:4456   */\ntag_25:\n    /* \"#utility.yul\":4417:4423   */\n  0x00\n    /* \"#utility.yul\":4445:4449   */\n  0x03\n    /* \"#utility.yul\":4435:4449   */\n  swap1\n  pop\n    /* \"#utility.yul\":4354:4456   */\n  swap2\n  swap1\n  pop\n  jump\t// out\n    /* \"#utility.yul\":4462:4548   */\ntag_26:\n    /* \"#utility.yul\":4497:4504   */\n  0x00\n    /* \"#utility.yul\":4537:4541   */\n  0xff\n    /* \"#utility.yul\":4530:4535   */\n  dup3\n    /* \"#utility.yul\":4526:4542   */\n  and\n    /* \"#utility.yul\":4515:4542   */\n  swap1\n  pop\n    /* \"#utility.yul\":4462:4548   */\n  swap2\n  swap1\n  pop\n  jump\t// out\n    /* \"#utility.yul\":4554:4704   */\ntag_27:\n    /* \"#utility.yul\":4595:4606   */\n  0x00\n    /* \"#utility.yul\":4631:4658   */\n  tag_85\n    /* \"#utility.yul\":4653:4656   */\n  dup3\n    /* \"#utility.yul\":4647:4657   */\n  mload\n    /* \"#utility.yul\":4631:4658   */\n  tag_26\n  jump\t// in\ntag_85:\n    /* \"#utility.yul\":4692:4697   */\n  dup1\n    /* \"#utility.yul\":4668:4697   */\n  swap2\n  pop\n    /* \"#utility.yul\":4607:4704   */\n  pop\n    /* \"#utility.yul\":4554:4704   */\n  swap2\n  swap1\n  pop\n  jump\t// out\n    /* \"#utility.yul\":4710:4806   */\ntag_28:\n    /* \"#utility.yul\":4773:4777   */\n  0x00\n    /* \"#utility.yul\":4796:4799   */\n  dup2\n    /* \"#utility.yul\":4788:4799   */\n  swap1\n  pop\n    /* \"#utility.yul\":4710:4806   */\n  swap2\n  swap1\n  pop\n  jump\t// out\n    /* \"#utility.yul\":5258:6245   */\ntag_2:\n    /* \"#utility.yul\":5395:5443   */\n  tag_96\n    /* \"#utility.yul\":5439:5442   */\n  dup3\n    /* \"#utility.yul\":5395:5443   */\n  tag_25\n  jump\t// in\ntag_96:\n    /* \"#utility.yul\":5508:5526   */\n  0xffffffffffffffff\n    /* \"#utility.yul\":5500:5506   */\n  dup2\n    /* \"#utility.yul\":5497:5527   */\n  gt\n    /* \"#utility.yul\":5494:5550   */\n  iszero\n  tag_97\n  jumpi\n    /* \"#utility.yul\":5530:5548   */\n  tag_98\n  tag_5\n  jump\t// in\ntag_98:\n    /* \"#utility.yul\":5494:5550   */\ntag_97:\n    /* \"#utility.yul\":5559:5616   */\n  tag_99\n    /* \"#utility.yul\":5609:5615   */\n  dup2\n    /* \"#utility.yul\":5604:5607   */\n  dup4\n    /* \"#utility.yul\":5559:5616   */\n  tag_24\n  jump\t// in\ntag_99:\n    /* \"#utility.yul\":5640:5690   */\n  tag_100\n    /* \"#utility.yul\":5686:5689   */\n  dup4\n    /* \"#utility.yul\":5640:5690   */\n  tag_28\n  jump\t// in\ntag_100:\n    /* \"#utility.yul\":5714:5765   */\n  tag_101\n    /* \"#utility.yul\":5761:5764   */\n  dup4\n    /* \"#utility.yul\":5714:5765   */\n  tag_11\n  jump\t// in\ntag_101:\n    /* \"#utility.yul\":5804:5805   */\n  0x01\n    /* \"#utility.yul\":5796:5802   */\n  dup4\n    /* \"#utility.yul\":5792:5806   */\n  div\n    /* \"#utility.yul\":5831:5832   */\n  0x00\n    /* \"#utility.yul\":5816:6238   */\ntag_102:\n    /* \"#utility.yul\":5841:5850   */\n  dup2\n    /* \"#utility.yul\":5838:5839   */\n  dup2\n    /* \"#utility.yul\":5835:5851   */\n  lt\n    /* \"#utility.yul\":5816:6238   */\n  iszero\n  tag_104\n  jumpi\n    /* \"#utility.yul\":5905:5906   */\n  0x00\n    /* \"#utility.yul\":5958:5989   */\n  tag_105\n    /* \"#utility.yul\":5982:5988   */\n  dup6\n    /* \"#utility.yul\":5958:5989   */\n  tag_27\n  jump\t// in\ntag_105:\n    /* \"#utility.yul\":6024:6060   */\n  tag_106\n    /* \"#utility.yul\":6048:6059   */\n  dup2\n    /* \"#utility.yul\":6024:6060   */\n  tag_16\n  jump\t// in\ntag_106:\n    /* \"#utility.yul\":6110:6119   */\n  dup1\n    /* \"#utility.yul\":6077:6119   */\n  swap3\n  pop\n    /* \"#utility.yul\":6159:6161   */\n  0x20\n    /* \"#utility.yul\":6151:6157   */\n  dup8\n    /* \"#utility.yul\":6147:6162   */\n  add\n    /* \"#utility.yul\":6137:6162   */\n  swap7\n  pop\n    /* \"#utility.yul\":5920:6177   */\n  pop\n  pop\n    /* \"#utility.yul\":6215:6227   */\n  dup1\n    /* \"#utility.yul\":6211:6212   */\n  dup3\n    /* \"#utility.yul\":6202:6209   */\n  dup6\n    /* \"#utility.yul\":6198:6213   */\n  add\n    /* \"#utility.yul\":6191:6228   */\n  sstore\n    /* \"#utility.yul\":5871:6238   */\n  pop\n    /* \"#utility.yul\":5866:5867   */\n  0x01\n    /* \"#utility.yul\":5863:5864   */\n  dup2\n    /* \"#utility.yul\":5859:5868   */\n  add\n    /* \"#utility.yul\":5854:5868   */\n  swap1\n  pop\n    /* \"#utility.yul\":5816:6238   */\n  jump(tag_102)\ntag_104:\n    /* \"#utility.yul\":5820:5834   */\n  pop\n    /* \"#utility.yul\":5370:6245   */\n  pop\n  pop\n  pop\n  pop\n    /* \"#utility.yul\":5258:6245   */\n  pop\n  pop\n  jump\t// out\n    /* \"array.sol\":61:1342  contract Array{... */\ntag_4:\n  dataSize(sub_0)\n  dup1\n  dataOffset(sub_0)\n  0x00\n  codecopy\n  0x00\n  return\nstop\n\nsub_0: assembly {\n        /* \"array.sol\":61:1342  contract Array{... */\n      mstore(0x40, 0x80)\n      callvalue\n      dup1\n      iszero\n      tag_1\n      jumpi\n      0x00\n      dup1\n      revert\n    tag_1:\n      pop\n      jumpi(tag_2, lt(calldatasize, 0x04))\n      shr(0xe0, calldataload(0x00))\n      dup1\n      0xa16d3598\n      gt\n      tag_13\n      jumpi\n      dup1\n      0xa16d3598\n      eq\n      tag_8\n      jumpi\n      dup1\n      0xa4ece52c\n      eq\n      tag_9\n      jumpi\n      dup1\n      0xc83d02d0\n      eq\n      tag_10\n      jumpi\n      dup1\n      0xedf0099b\n      eq\n      tag_11\n      jumpi\n      dup1\n      0xfb8cbced\n      eq\n      tag_12\n      jumpi\n      jump(tag_2)\n    tag_13:\n      dup1\n      0x335d00c2\n      eq\n      tag_3\n      jumpi\n      dup1\n      0x4cc82215\n      eq\n      tag_4\n      jumpi\n      dup1\n      0x71e5ee5f\n      eq\n      tag_5\n      jumpi\n      dup1\n      0x9507d39a\n      eq\n      tag_6\n      jumpi\n      dup1\n      0x959ac484\n      eq\n      tag_7\n      jumpi\n    tag_2:\n      0x00\n      dup1\n      revert\n        /* \"array.sol\":1183:1333  function examples() pure external {... */\n    tag_3:\n      tag_14\n      tag_15\n      jump\t// in\n    tag_14:\n      stop\n        /* \"array.sol\":993:1175  function remove(uint index)public{... */\n    tag_4:\n      tag_16\n      0x04\n      dup1\n      calldatasize\n      sub\n      dup2\n      add\n      swap1\n      tag_17\n      swap2\n      swap1\n      tag_18\n      jump\t// in\n    tag_17:\n      tag_19\n      jump\t// in\n    tag_16:\n      stop\n        /* \"array.sol\":128:145  uint[] public arr */\n    tag_5:\n      tag_20\n      0x04\n      dup1\n      calldatasize\n      sub\n      dup2\n      add\n      swap1\n      tag_21\n      swap2\n      swap1\n      tag_18\n      jump\t// in\n    tag_21:\n      tag_22\n      jump\t// in\n    tag_20:\n      mload(0x40)\n      tag_23\n      swap2\n      swap1\n      tag_24\n      jump\t// in\n    tag_23:\n      mload(0x40)\n      dup1\n      swap2\n      sub\n      swap1\n      return\n        /* \"array.sol\":280:361  function get(uint i) public view returns (uint){... */\n    tag_6:\n      tag_25\n      0x04\n      dup1\n      calldatasize\n      sub\n      dup2\n      add\n      swap1\n      tag_26\n      swap2\n      swap1\n      tag_18\n      jump\t// in\n    tag_26:\n      tag_27\n      jump\t// in\n    tag_25:\n      mload(0x40)\n      tag_28\n      swap2\n      swap1\n      tag_24\n      jump\t// in\n    tag_28:\n      mload(0x40)\n      dup1\n      swap2\n      sub\n      swap1\n      return\n        /* \"array.sol\":604:744  function push(uint i)public {... */\n    tag_7:\n      tag_29\n      0x04\n      dup1\n      calldatasize\n      sub\n      dup2\n      add\n      swap1\n      tag_30\n      swap2\n      swap1\n      tag_18\n      jump\t// in\n    tag_30:\n      tag_31\n      jump\t// in\n    tag_29:\n      stop\n        /* \"array.sol\":902:985  function getlength() public view returns (uint){... */\n    tag_8:\n      tag_32\n      tag_33\n      jump\t// in\n    tag_32:\n      mload(0x40)\n      tag_34\n      swap2\n      swap1\n      tag_24\n      jump\t// in\n    tag_34:\n      mload(0x40)\n      dup1\n      swap2\n      sub\n      swap1\n      return\n        /* \"array.sol\":752:894  function pop()public{... */\n    tag_9:\n      tag_35\n      tag_36\n      jump\t// in\n    tag_35:\n      stop\n        /* \"array.sol\":241:271  uint[10] public myFixedsizearr */\n    tag_10:\n      tag_37\n      0x04\n      dup1\n      calldatasize\n      sub\n      dup2\n      add\n      swap1\n      tag_38\n      swap2\n      swap1\n      tag_18\n      jump\t// in\n    tag_38:\n      tag_39\n      jump\t// in\n    tag_37:\n      mload(0x40)\n      tag_40\n      swap2\n      swap1\n      tag_24\n      jump\t// in\n    tag_40:\n      mload(0x40)\n      dup1\n      swap2\n      sub\n      swap1\n      return\n        /* \"array.sol\":152:179  uint[] public arr2 =[1,2,3] */\n    tag_11:\n      tag_41\n      0x04\n      dup1\n      calldatasize\n      sub\n      dup2\n      add\n      swap1\n      tag_42\n      swap2\n      swap1\n      tag_18\n      jump\t// in\n    tag_42:\n      tag_43\n      jump\t// in\n    tag_41:\n      mload(0x40)\n      tag_44\n      swap2\n      swap1\n      tag_24\n      jump\t// in\n    tag_44:\n      mload(0x40)\n      dup1\n      swap2\n      sub\n      swap1\n      return\n        /* \"array.sol\":514:596  function getArr() public view returns (uint[] memory){... */\n    tag_12:\n      tag_45\n      tag_46\n      jump\t// in\n    tag_45:\n      mload(0x40)\n      tag_47\n      swap2\n      swap1\n      tag_48\n      jump\t// in\n    tag_47:\n      mload(0x40)\n      dup1\n      swap2\n      sub\n      swap1\n      return\n        /* \"array.sol\":1183:1333  function examples() pure external {... */\n    tag_15:\n        /* \"array.sol\":1294:1309  uint[] memory a */\n      0x00\n        /* \"array.sol\":1323:1324  5 */\n      0x05\n        /* \"array.sol\":1312:1325  new uint[](5) */\n      0xffffffffffffffff\n      dup2\n      gt\n      iszero\n      tag_50\n      jumpi\n      tag_51\n      tag_52\n      jump\t// in\n    tag_51:\n    tag_50:\n      mload(0x40)\n      swap1\n      dup1\n      dup3\n      mstore\n      dup1\n      0x20\n      mul\n      0x20\n      add\n      dup3\n      add\n      0x40\n      mstore\n      dup1\n      iszero\n      tag_53\n      jumpi\n      dup2\n      0x20\n      add\n      0x20\n      dup3\n      mul\n      dup1\n      calldatasize\n      dup4\n      calldatacopy\n      dup1\n      dup3\n      add\n      swap2\n      pop\n      pop\n      swap1\n      pop\n    tag_53:\n      pop\n        /* \"array.sol\":1294:1325  uint[] memory a = new uint[](5) */\n      swap1\n      pop\n        /* \"array.sol\":1217:1333  {... */\n      pop\n        /* \"array.sol\":1183:1333  function examples() pure external {... */\n      jump\t// out\n        /* \"array.sol\":993:1175  function remove(uint index)public{... */\n    tag_19:\n        /* \"array.sol\":1157:1160  arr */\n      0x00\n        /* \"array.sol\":1161:1166  index */\n      dup2\n        /* \"array.sol\":1157:1167  arr[index] */\n      dup2\n      sload\n      dup2\n      lt\n      tag_55\n      jumpi\n      tag_56\n      tag_57\n      jump\t// in\n    tag_56:\n    tag_55:\n      swap1\n      0x00\n      mstore\n      keccak256(0x00, 0x20)\n      add\n        /* \"array.sol\":1150:1167  delete arr[index] */\n      0x00\n      swap1\n      sstore\n        /* \"array.sol\":993:1175  function remove(uint index)public{... */\n      pop\n      jump\t// out\n        /* \"array.sol\":128:145  uint[] public arr */\n    tag_22:\n      0x00\n      dup2\n      dup2\n      sload\n      dup2\n      lt\n      tag_59\n      jumpi\n      0x00\n      dup1\n      revert\n    tag_59:\n      swap1\n      0x00\n      mstore\n      keccak256(0x00, 0x20)\n      add\n      0x00\n      swap2\n      pop\n      swap1\n      pop\n      sload\n      dup2\n      jump\t// out\n        /* \"array.sol\":280:361  function get(uint i) public view returns (uint){... */\n    tag_27:\n        /* \"array.sol\":322:326  uint */\n      0x00\n        /* \"array.sol\":345:348  arr */\n      dup1\n        /* \"array.sol\":349:350  i */\n      dup3\n        /* \"array.sol\":345:351  arr[i] */\n      dup2\n      sload\n      dup2\n      lt\n      tag_62\n      jumpi\n      tag_63\n      tag_57\n      jump\t// in\n    tag_63:\n    tag_62:\n      swap1\n      0x00\n      mstore\n      keccak256(0x00, 0x20)\n      add\n      sload\n        /* \"array.sol\":338:351  return arr[i] */\n      swap1\n      pop\n        /* \"array.sol\":280:361  function get(uint i) public view returns (uint){... */\n      swap2\n      swap1\n      pop\n      jump\t// out\n        /* \"array.sol\":604:744  function push(uint i)public {... */\n    tag_31:\n        /* \"array.sol\":723:726  arr */\n      0x00\n        /* \"array.sol\":732:733  i */\n      dup2\n        /* \"array.sol\":723:734  arr.push(i) */\n      swap1\n      dup1\n      0x01\n      dup2\n      sload\n      add\n      dup1\n      dup3\n      sstore\n      dup1\n      swap2\n      pop\n      pop\n      0x01\n      swap1\n      sub\n      swap1\n      0x00\n      mstore\n      keccak256(0x00, 0x20)\n      add\n      0x00\n      swap1\n      swap2\n      swap1\n      swap2\n      swap1\n      swap2\n      pop\n      sstore\n        /* \"array.sol\":604:744  function push(uint i)public {... */\n      pop\n      jump\t// out\n        /* \"array.sol\":902:985  function getlength() public view returns (uint){... */\n    tag_33:\n        /* \"array.sol\":944:948  uint */\n      0x00\n        /* \"array.sol\":967:970  arr */\n      dup1\n        /* \"array.sol\":967:977  arr.length */\n      dup1\n      sload\n      swap1\n      pop\n        /* \"array.sol\":960:977  return arr.length */\n      swap1\n      pop\n        /* \"array.sol\":902:985  function getlength() public view returns (uint){... */\n      swap1\n      jump\t// out\n        /* \"array.sol\":752:894  function pop()public{... */\n    tag_36:\n        /* \"array.sol\":877:880  arr */\n      0x00\n        /* \"array.sol\":877:886  arr.pop() */\n      dup1\n      sload\n      dup1\n      tag_69\n      jumpi\n      tag_70\n      tag_71\n      jump\t// in\n    tag_70:\n    tag_69:\n      0x01\n      swap1\n      sub\n      dup2\n      dup2\n      swap1\n      0x00\n      mstore\n      keccak256(0x00, 0x20)\n      add\n      0x00\n      swap1\n      sstore\n      swap1\n      sstore\n        /* \"array.sol\":752:894  function pop()public{... */\n      jump\t// out\n        /* \"array.sol\":241:271  uint[10] public myFixedsizearr */\n    tag_39:\n      0x02\n      dup2\n      0x0a\n      dup2\n      lt\n      tag_73\n      jumpi\n      0x00\n      dup1\n      revert\n    tag_73:\n      add\n      0x00\n      swap2\n      pop\n      swap1\n      pop\n      sload\n      dup2\n      jump\t// out\n        /* \"array.sol\":152:179  uint[] public arr2 =[1,2,3] */\n    tag_43:\n      0x01\n      dup2\n      dup2\n      sload\n      dup2\n      lt\n      tag_75\n      jumpi\n      0x00\n      dup1\n      revert\n    tag_75:\n      swap1\n      0x00\n      mstore\n      keccak256(0x00, 0x20)\n      add\n      0x00\n      swap2\n      pop\n      swap1\n      pop\n      sload\n      dup2\n      jump\t// out\n        /* \"array.sol\":514:596  function getArr() public view returns (uint[] memory){... */\n    tag_46:\n        /* \"array.sol\":553:566  uint[] memory */\n      0x60\n        /* \"array.sol\":585:588  arr */\n      0x00\n        /* \"array.sol\":578:588  return arr */\n      dup1\n      sload\n      dup1\n      0x20\n      mul\n      0x20\n      add\n      mload(0x40)\n      swap1\n      dup2\n      add\n      0x40\n      mstore\n      dup1\n      swap3\n      swap2\n      swap1\n      dup2\n      dup2\n      mstore\n      0x20\n      add\n      dup3\n      dup1\n      sload\n      dup1\n      iszero\n      tag_78\n      jumpi\n      0x20\n      mul\n      dup3\n      add\n      swap2\n      swap1\n      0x00\n      mstore\n      keccak256(0x00, 0x20)\n      swap1\n    tag_79:\n      dup2\n      sload\n      dup2\n      mstore\n      0x20\n      add\n      swap1\n      0x01\n      add\n      swap1\n      dup1\n      dup4\n      gt\n      tag_79\n      jumpi\n    tag_78:\n      pop\n      pop\n      pop\n      pop\n      pop\n      swap1\n      pop\n        /* \"array.sol\":514:596  function getArr() public view returns (uint[] memory){... */\n      swap1\n      jump\t// out\n        /* \"#utility.yul\":88:205   */\n    tag_81:\n        /* \"#utility.yul\":197:198   */\n      0x00\n        /* \"#utility.yul\":194:195   */\n      dup1\n        /* \"#utility.yul\":187:199   */\n      revert\n        /* \"#utility.yul\":334:411   */\n    tag_83:\n        /* \"#utility.yul\":371:378   */\n      0x00\n        /* \"#utility.yul\":400:405   */\n      dup2\n        /* \"#utility.yul\":389:405   */\n      swap1\n      pop\n        /* \"#utility.yul\":334:411   */\n      swap2\n      swap1\n      pop\n      jump\t// out\n        /* \"#utility.yul\":417:539   */\n    tag_84:\n        /* \"#utility.yul\":490:514   */\n      tag_100\n        /* \"#utility.yul\":508:513   */\n      dup2\n        /* \"#utility.yul\":490:514   */\n      tag_83\n      jump\t// in\n    tag_100:\n        /* \"#utility.yul\":483:488   */\n      dup2\n        /* \"#utility.yul\":480:515   */\n      eq\n        /* \"#utility.yul\":470:533   */\n      tag_101\n      jumpi\n        /* \"#utility.yul\":529:530   */\n      0x00\n        /* \"#utility.yul\":526:527   */\n      dup1\n        /* \"#utility.yul\":519:531   */\n      revert\n        /* \"#utility.yul\":470:533   */\n    tag_101:\n        /* \"#utility.yul\":417:539   */\n      pop\n      jump\t// out\n        /* \"#utility.yul\":545:684   */\n    tag_85:\n        /* \"#utility.yul\":591:596   */\n      0x00\n        /* \"#utility.yul\":629:635   */\n      dup2\n        /* \"#utility.yul\":616:636   */\n      calldataload\n        /* \"#utility.yul\":607:636   */\n      swap1\n      pop\n        /* \"#utility.yul\":645:678   */\n      tag_103\n        /* \"#utility.yul\":672:677   */\n      dup2\n        /* \"#utility.yul\":645:678   */\n      tag_84\n      jump\t// in\n    tag_103:\n        /* \"#utility.yul\":545:684   */\n      swap3\n      swap2\n      pop\n      pop\n      jump\t// out\n        /* \"#utility.yul\":690:1019   */\n    tag_18:\n        /* \"#utility.yul\":749:755   */\n      0x00\n        /* \"#utility.yul\":798:800   */\n      0x20\n        /* \"#utility.yul\":786:795   */\n      dup3\n        /* \"#utility.yul\":777:784   */\n      dup5\n        /* \"#utility.yul\":773:796   */\n      sub\n        /* \"#utility.yul\":769:801   */\n      slt\n        /* \"#utility.yul\":766:885   */\n      iszero\n      tag_105\n      jumpi\n        /* \"#utility.yul\":804:883   */\n      tag_106\n      tag_81\n      jump\t// in\n    tag_106:\n        /* \"#utility.yul\":766:885   */\n    tag_105:\n        /* \"#utility.yul\":924:925   */\n      0x00\n        /* \"#utility.yul\":949:1002   */\n      tag_107\n        /* \"#utility.yul\":994:1001   */\n      dup5\n        /* \"#utility.yul\":985:991   */\n      dup3\n        /* \"#utility.yul\":974:983   */\n      dup6\n        /* \"#utility.yul\":970:992   */\n      add\n        /* \"#utility.yul\":949:1002   */\n      tag_85\n      jump\t// in\n    tag_107:\n        /* \"#utility.yul\":939:1002   */\n      swap2\n      pop\n        /* \"#utility.yul\":895:1012   */\n      pop\n        /* \"#utility.yul\":690:1019   */\n      swap3\n      swap2\n      pop\n      pop\n      jump\t// out\n        /* \"#utility.yul\":1025:1143   */\n    tag_86:\n        /* \"#utility.yul\":1112:1136   */\n      tag_109\n        /* \"#utility.yul\":1130:1135   */\n      dup2\n        /* \"#utility.yul\":1112:1136   */\n      tag_83\n      jump\t// in\n    tag_109:\n        /* \"#utility.yul\":1107:1110   */\n      dup3\n        /* \"#utility.yul\":1100:1137   */\n      mstore\n        /* \"#utility.yul\":1025:1143   */\n      pop\n      pop\n      jump\t// out\n        /* \"#utility.yul\":1149:1371   */\n    tag_24:\n        /* \"#utility.yul\":1242:1246   */\n      0x00\n        /* \"#utility.yul\":1280:1282   */\n      0x20\n        /* \"#utility.yul\":1269:1278   */\n      dup3\n        /* \"#utility.yul\":1265:1283   */\n      add\n        /* \"#utility.yul\":1257:1283   */\n      swap1\n      pop\n        /* \"#utility.yul\":1293:1364   */\n      tag_111\n        /* \"#utility.yul\":1361:1362   */\n      0x00\n        /* \"#utility.yul\":1350:1359   */\n      dup4\n        /* \"#utility.yul\":1346:1363   */\n      add\n        /* \"#utility.yul\":1337:1343   */\n      dup5\n        /* \"#utility.yul\":1293:1364   */\n      tag_86\n      jump\t// in\n    tag_111:\n        /* \"#utility.yul\":1149:1371   */\n      swap3\n      swap2\n      pop\n      pop\n      jump\t// out\n        /* \"#utility.yul\":1377:1491   */\n    tag_87:\n        /* \"#utility.yul\":1444:1450   */\n      0x00\n        /* \"#utility.yul\":1478:1483   */\n      dup2\n        /* \"#utility.yul\":1472:1484   */\n      mload\n        /* \"#utility.yul\":1462:1484   */\n      swap1\n      pop\n        /* \"#utility.yul\":1377:1491   */\n      swap2\n      swap1\n      pop\n      jump\t// out\n        /* \"#utility.yul\":1497:1681   */\n    tag_88:\n        /* \"#utility.yul\":1596:1607   */\n      0x00\n        /* \"#utility.yul\":1630:1636   */\n      dup3\n        /* \"#utility.yul\":1625:1628   */\n      dup3\n        /* \"#utility.yul\":1618:1637   */\n      mstore\n        /* \"#utility.yul\":1670:1674   */\n      0x20\n        /* \"#utility.yul\":1665:1668   */\n      dup3\n        /* \"#utility.yul\":1661:1675   */\n      add\n        /* \"#utility.yul\":1646:1675   */\n      swap1\n      pop\n        /* \"#utility.yul\":1497:1681   */\n      swap3\n      swap2\n      pop\n      pop\n      jump\t// out\n        /* \"#utility.yul\":1687:1819   */\n    tag_89:\n        /* \"#utility.yul\":1754:1758   */\n      0x00\n        /* \"#utility.yul\":1777:1780   */\n      dup2\n        /* \"#utility.yul\":1769:1780   */\n      swap1\n      pop\n        /* \"#utility.yul\":1807:1811   */\n      0x20\n        /* \"#utility.yul\":1802:1805   */\n      dup3\n        /* \"#utility.yul\":1798:1812   */\n      add\n        /* \"#utility.yul\":1790:1812   */\n      swap1\n      pop\n        /* \"#utility.yul\":1687:1819   */\n      swap2\n      swap1\n      pop\n      jump\t// out\n        /* \"#utility.yul\":1825:1933   */\n    tag_90:\n        /* \"#utility.yul\":1902:1926   */\n      tag_116\n        /* \"#utility.yul\":1920:1925   */\n      dup2\n        /* \"#utility.yul\":1902:1926   */\n      tag_83\n      jump\t// in\n    tag_116:\n        /* \"#utility.yul\":1897:1900   */\n      dup3\n        /* \"#utility.yul\":1890:1927   */\n      mstore\n        /* \"#utility.yul\":1825:1933   */\n      pop\n      pop\n      jump\t// out\n        /* \"#utility.yul\":1939:2118   */\n    tag_91:\n        /* \"#utility.yul\":2008:2018   */\n      0x00\n        /* \"#utility.yul\":2029:2075   */\n      tag_118\n        /* \"#utility.yul\":2071:2074   */\n      dup4\n        /* \"#utility.yul\":2063:2069   */\n      dup4\n        /* \"#utility.yul\":2029:2075   */\n      tag_90\n      jump\t// in\n    tag_118:\n        /* \"#utility.yul\":2107:2111   */\n      0x20\n        /* \"#utility.yul\":2102:2105   */\n      dup4\n        /* \"#utility.yul\":2098:2112   */\n      add\n        /* \"#utility.yul\":2084:2112   */\n      swap1\n      pop\n        /* \"#utility.yul\":1939:2118   */\n      swap3\n      swap2\n      pop\n      pop\n      jump\t// out\n        /* \"#utility.yul\":2124:2237   */\n    tag_92:\n        /* \"#utility.yul\":2194:2198   */\n      0x00\n        /* \"#utility.yul\":2226:2230   */\n      0x20\n        /* \"#utility.yul\":2221:2224   */\n      dup3\n        /* \"#utility.yul\":2217:2231   */\n      add\n        /* \"#utility.yul\":2209:2231   */\n      swap1\n      pop\n        /* \"#utility.yul\":2124:2237   */\n      swap2\n      swap1\n      pop\n      jump\t// out\n        /* \"#utility.yul\":2273:3005   */\n    tag_93:\n        /* \"#utility.yul\":2392:2395   */\n      0x00\n        /* \"#utility.yul\":2421:2475   */\n      tag_121\n        /* \"#utility.yul\":2469:2474   */\n      dup3\n        /* \"#utility.yul\":2421:2475   */\n      tag_87\n      jump\t// in\n    tag_121:\n        /* \"#utility.yul\":2491:2577   */\n      tag_122\n        /* \"#utility.yul\":2570:2576   */\n      dup2\n        /* \"#utility.yul\":2565:2568   */\n      dup6\n        /* \"#utility.yul\":2491:2577   */\n      tag_88\n      jump\t// in\n    tag_122:\n        /* \"#utility.yul\":2484:2577   */\n      swap4\n      pop\n        /* \"#utility.yul\":2601:2657   */\n      tag_123\n        /* \"#utility.yul\":2651:2656   */\n      dup4\n        /* \"#utility.yul\":2601:2657   */\n      tag_89\n      jump\t// in\n    tag_123:\n        /* \"#utility.yul\":2680:2687   */\n      dup1\n        /* \"#utility.yul\":2711:2712   */\n      0x00\n        /* \"#utility.yul\":2696:2980   */\n    tag_124:\n        /* \"#utility.yul\":2721:2727   */\n      dup4\n        /* \"#utility.yul\":2718:2719   */\n      dup2\n        /* \"#utility.yul\":2715:2728   */\n      lt\n        /* \"#utility.yul\":2696:2980   */\n      iszero\n      tag_126\n      jumpi\n        /* \"#utility.yul\":2797:2803   */\n      dup2\n        /* \"#utility.yul\":2791:2804   */\n      mload\n        /* \"#utility.yul\":2824:2887   */\n      tag_127\n        /* \"#utility.yul\":2883:2886   */\n      dup9\n        /* \"#utility.yul\":2868:2881   */\n      dup3\n        /* \"#utility.yul\":2824:2887   */\n      tag_91\n      jump\t// in\n    tag_127:\n        /* \"#utility.yul\":2817:2887   */\n      swap8\n      pop\n        /* \"#utility.yul\":2910:2970   */\n      tag_128\n        /* \"#utility.yul\":2963:2969   */\n      dup4\n        /* \"#utility.yul\":2910:2970   */\n      tag_92\n      jump\t// in\n    tag_128:\n        /* \"#utility.yul\":2900:2970   */\n      swap3\n      pop\n        /* \"#utility.yul\":2756:2980   */\n      pop\n        /* \"#utility.yul\":2743:2744   */\n      0x01\n        /* \"#utility.yul\":2740:2741   */\n      dup2\n        /* \"#utility.yul\":2736:2745   */\n      add\n        /* \"#utility.yul\":2731:2745   */\n      swap1\n      pop\n        /* \"#utility.yul\":2696:2980   */\n      jump(tag_124)\n    tag_126:\n        /* \"#utility.yul\":2700:2714   */\n      pop\n        /* \"#utility.yul\":2996:2999   */\n      dup6\n        /* \"#utility.yul\":2989:2999   */\n      swap4\n      pop\n        /* \"#utility.yul\":2397:3005   */\n      pop\n      pop\n      pop\n        /* \"#utility.yul\":2273:3005   */\n      swap3\n      swap2\n      pop\n      pop\n      jump\t// out\n        /* \"#utility.yul\":3011:3384   */\n    tag_48:\n        /* \"#utility.yul\":3154:3158   */\n      0x00\n        /* \"#utility.yul\":3192:3194   */\n      0x20\n        /* \"#utility.yul\":3181:3190   */\n      dup3\n        /* \"#utility.yul\":3177:3195   */\n      add\n        /* \"#utility.yul\":3169:3195   */\n      swap1\n      pop\n        /* \"#utility.yul\":3241:3250   */\n      dup2\n        /* \"#utility.yul\":3235:3239   */\n      dup2\n        /* \"#utility.yul\":3231:3251   */\n      sub\n        /* \"#utility.yul\":3227:3228   */\n      0x00\n        /* \"#utility.yul\":3216:3225   */\n      dup4\n        /* \"#utility.yul\":3212:3229   */\n      add\n        /* \"#utility.yul\":3205:3252   */\n      mstore\n        /* \"#utility.yul\":3269:3377   */\n      tag_130\n        /* \"#utility.yul\":3372:3376   */\n      dup2\n        /* \"#utility.yul\":3363:3369   */\n      dup5\n        /* \"#utility.yul\":3269:3377   */\n      tag_93\n      jump\t// in\n    tag_130:\n        /* \"#utility.yul\":3261:3377   */\n      swap1\n      pop\n        /* \"#utility.yul\":3011:3384   */\n      swap3\n      swap2\n      pop\n      pop\n      jump\t// out\n        /* \"#utility.yul\":3390:3570   */\n    tag_52:\n        /* \"#utility.yul\":3438:3515   */\n      0x4e487b7100000000000000000000000000000000000000000000000000000000\n        /* \"#utility.yul\":3435:3436   */\n      0x00\n        /* \"#utility.yul\":3428:3516   */\n      mstore\n        /* \"#utility.yul\":3535:3539   */\n      0x41\n        /* \"#utility.yul\":3532:3533   */\n      0x04\n        /* \"#utility.yul\":3525:3540   */\n      mstore\n        /* \"#utility.yul\":3559:3563   */\n      0x24\n        /* \"#utility.yul\":3556:3557   */\n      0x00\n        /* \"#utility.yul\":3549:3564   */\n      revert\n        /* \"#utility.yul\":3576:3756   */\n    tag_57:\n        /* \"#utility.yul\":3624:3701   */\n      0x4e487b7100000000000000000000000000000000000000000000000000000000\n        /* \"#utility.yul\":3621:3622   */\n      0x00\n        /* \"#utility.yul\":3614:3702   */\n      mstore\n        /* \"#utility.yul\":3721:3725   */\n      0x32\n        /* \"#utility.yul\":3718:3719   */\n      0x04\n        /* \"#utility.yul\":3711:3726   */\n      mstore\n        /* \"#utility.yul\":3745:3749   */\n      0x24\n        /* \"#utility.yul\":3742:3743   */\n      0x00\n        /* \"#utility.yul\":3735:3750   */\n      revert\n        /* \"#utility.yul\":3762:3942   */\n    tag_71:\n        /* \"#utility.yul\":3810:3887   */\n      0x4e487b7100000000000000000000000000000000000000000000000000000000\n        /* \"#utility.yul\":3807:3808   */\n      0x00\n        /* \"#utility.yul\":3800:3888   */\n      mstore\n        /* \"#utility.yul\":3907:3911   */\n      0x31\n        /* \"#utility.yul\":3904:3905   */\n      0x04\n        /* \"#utility.yul\":3897:3912   */\n      mstore\n        /* \"#utility.yul\":3931:3935   */\n      0x24\n        /* \"#utility.yul\":3928:3929   */\n      0x00\n        /* \"#utility.yul\":3921:3936   */\n      revert\n\n    auxdata: 0xa26469706673582212202172d4849412cf0b9717d5a4b5d422f12681f3e37e6057d46596c6a1ae6d09eb64736f6c63430008220033\n}\n",
				"bytecode": {
					"linkReferences": {},
					"object": "60806040526040518060600160405280600160ff168152602001600260ff168152602001600360ff16815250600190816100399190610262565b5034801561004657600080fd5b506102e8565b7f4e487b7100000000000000000000000000000000000000000000000000000000600052604160045260246000fd5b600081549050919050565b6000819050919050565b60008190506001806001038301049050919050565b60008190508160005260206000209050919050565b600082821b905092915050565b6000600883026100f77fffffffffffffffffffffffffffffffffffffffffffffffffffffffffffffffff826100ba565b61010186836100ba565b95508019841693508086168417925050509392505050565b6000819050919050565b600061013e61013961013484610086565b610119565b610086565b9050919050565b6000819050919050565b61015883610123565b61016c61016482610145565b8484546100c7565b825550505050565b600090565b610181610174565b61018c81848461014f565b505050565b60005b828110156101b4576101a96000828401610179565b600181019050610194565b505050565b818310156101f0576101ca82610090565b6101d384610090565b6101dc836100a5565b8181016101eb83850382610191565b505050505b505050565b6801000000000000000082111561020f5761020e61004c565b5b6102188161007b565b8282556102268382846101b9565b505050565b600060039050919050565b600060ff82169050919050565b600061024f8251610236565b80915050919050565b6000819050919050565b61026b8261022b565b67ffffffffffffffff8111156102845761028361004c565b5b61028e81836101f5565b61029783610258565b6102a0836100a5565b6001830460005b818110156102df5760006102ba85610243565b6102c381610145565b80925060208701965050508082850155506001810190506102a7565b50505050505050565b6105da806102f76000396000f3fe608060405234801561001057600080fd5b506004361061009e5760003560e01c8063a16d359811610066578063a16d359814610145578063a4ece52c14610163578063c83d02d01461016d578063edf0099b1461019d578063fb8cbced146101cd5761009e565b8063335d00c2146100a35780634cc82215146100ad57806371e5ee5f146100c95780639507d39a146100f9578063959ac48414610129575b600080fd5b6100ab6101eb565b005b6100c760048036038101906100c291906103e0565b61023c565b005b6100e360048036038101906100de91906103e0565b610261565b6040516100f0919061041c565b60405180910390f35b610113600480360381019061010e91906103e0565b610285565b604051610120919061041c565b60405180910390f35b610143600480360381019061013e91906103e0565b6102ac565b005b61014d6102d8565b60405161015a919061041c565b60405180910390f35b61016b6102e4565b005b610187600480360381019061018291906103e0565b61030e565b604051610194919061041c565b60405180910390f35b6101b760048036038101906101b291906103e0565b610329565b6040516101c4919061041c565b60405180910390f35b6101d561034d565b6040516101e291906104f5565b60405180910390f35b6000600567ffffffffffffffff81111561020857610207610517565b5b6040519080825280602002602001820160405280156102365781602001602082028036833780820191505090505b50905050565b600081815481106102505761024f610546565b5b906000526020600020016000905550565b6000818154811061027157600080fd5b906000526020600020016000915090505481565b600080828154811061029a57610299610546565b5b90600052602060002001549050919050565b600081908060018154018082558091505060019003906000526020600020016000909190919091505550565b60008080549050905090565b60008054806102f6576102f5610575565b5b60019003818190600052602060002001600090559055565b600281600a811061031e57600080fd5b016000915090505481565b6001818154811061033957600080fd5b906000526020600020016000915090505481565b6060600080548060200260200160405190810160405280929190818152602001828054801561039b57602002820191906000526020600020905b815481526020019060010190808311610387575b5050505050905090565b600080fd5b6000819050919050565b6103bd816103aa565b81146103c857600080fd5b50565b6000813590506103da816103b4565b92915050565b6000602082840312156103f6576103f56103a5565b5b6000610404848285016103cb565b91505092915050565b610416816103aa565b82525050565b6000602082019050610431600083018461040d565b92915050565b600081519050919050565b600082825260208201905092915050565b6000819050602082019050919050565b61046c816103aa565b82525050565b600061047e8383610463565b60208301905092915050565b6000602082019050919050565b60006104a282610437565b6104ac8185610442565b93506104b783610453565b8060005b838110156104e85781516104cf8882610472565b97506104da8361048a565b9250506001810190506104bb565b5085935050505092915050565b6000602082019050818103600083015261050f8184610497565b905092915050565b7f4e487b7100000000000000000000000000000000000000000000000000000000600052604160045260246000fd5b7f4e487b7100000000000000000000000000000000000000000000000000000000600052603260045260246000fd5b7f4e487b7100000000000000000000000000000000000000000000000000000000600052603160045260246000fdfea26469706673582212202172d4849412cf0b9717d5a4b5d422f12681f3e37e6057d46596c6a1ae6d09eb64736f6c63430008220033",
					"opcodes": "PUSH1 0x80 PUSH1 0x40 MSTORE PUSH1 0x40 MLOAD DUP1 PUSH1 0x60 ADD PUSH1 0x40 MSTORE DUP1 PUSH1 0x1 PUSH1 0xFF AND DUP2 MSTORE PUSH1 0x20 ADD PUSH1 0x2 PUSH1 0xFF AND DUP2 MSTORE PUSH1 0x20 ADD PUSH1 0x3 PUSH1 0xFF AND DUP2 MSTORE POP PUSH1 0x1 SWAP1 DUP2 PUSH2 0x39 SWAP2 SWAP1 PUSH2 0x262 JUMP JUMPDEST POP CALLVALUE DUP1 ISZERO PUSH2 0x46 JUMPI PUSH1 0x0 DUP1 REVERT JUMPDEST POP PUSH2 0x2E8 JUMP JUMPDEST PUSH32 0x4E487B7100000000000000000000000000000000000000000000000000000000 PUSH1 0x0 MSTORE PUSH1 0x41 PUSH1 0x4 MSTORE PUSH1 0x24 PUSH1 0x0 REVERT JUMPDEST PUSH1 0x0 DUP2 SLOAD SWAP1 POP SWAP2 SWAP1 POP JUMP JUMPDEST PUSH1 0x0 DUP2 SWAP1 POP SWAP2 SWAP1 POP JUMP JUMPDEST PUSH1 0x0 DUP2 SWAP1 POP PUSH1 0x1 DUP1 PUSH1 0x1 SUB DUP4 ADD DIV SWAP1 POP SWAP2 SWAP1 POP JUMP JUMPDEST PUSH1 0x0 DUP2 SWAP1 POP DUP2 PUSH1 0x0 MSTORE PUSH1 0x20 PUSH1 0x0 KECCAK256 SWAP1 POP SWAP2 SWAP1 POP JUMP JUMPDEST PUSH1 0x0 DUP3 DUP3 SHL SWAP1 POP SWAP3 SWAP2 POP POP JUMP JUMPDEST PUSH1 0x0 PUSH1 0x8 DUP4 MUL PUSH2 0xF7 PUSH32 0xFFFFFFFFFFFFFFFFFFFFFFFFFFFFFFFFFFFFFFFFFFFFFFFFFFFFFFFFFFFFFFFF DUP3 PUSH2 0xBA JUMP JUMPDEST PUSH2 0x101 DUP7 DUP4 PUSH2 0xBA JUMP JUMPDEST SWAP6 POP DUP1 NOT DUP5 AND SWAP4 POP DUP1 DUP7 AND DUP5 OR SWAP3 POP POP POP SWAP4 SWAP3 POP POP POP JUMP JUMPDEST PUSH1 0x0 DUP2 SWAP1 POP SWAP2 SWAP1 POP JUMP JUMPDEST PUSH1 0x0 PUSH2 0x13E PUSH2 0x139 PUSH2 0x134 DUP5 PUSH2 0x86 JUMP JUMPDEST PUSH2 0x119 JUMP JUMPDEST PUSH2 0x86 JUMP JUMPDEST SWAP1 POP SWAP2 SWAP1 POP JUMP JUMPDEST PUSH1 0x0 DUP2 SWAP1 POP SWAP2 SWAP1 POP JUMP JUMPDEST PUSH2 0x158 DUP4 PUSH2 0x123 JUMP JUMPDEST PUSH2 0x16C PUSH2 0x164 DUP3 PUSH2 0x145 JUMP JUMPDEST DUP5 DUP5 SLOAD PUSH2 0xC7 JUMP JUMPDEST DUP3 SSTORE POP POP POP POP JUMP JUMPDEST PUSH1 0x0 SWAP1 JUMP JUMPDEST PUSH2 0x181 PUSH2 0x174 JUMP JUMPDEST PUSH2 0x18C DUP2 DUP5 DUP5 PUSH2 0x14F JUMP JUMPDEST POP POP POP JUMP JUMPDEST PUSH1 0x0 JUMPDEST DUP3 DUP2 LT ISZERO PUSH2 0x1B4 JUMPI PUSH2 0x1A9 PUSH1 0x0 DUP3 DUP5 ADD PUSH2 0x179 JUMP JUMPDEST PUSH1 0x1 DUP2 ADD SWAP1 POP PUSH2 0x194 JUMP JUMPDEST POP POP POP JUMP JUMPDEST DUP2 DUP4 LT ISZERO PUSH2 0x1F0 JUMPI PUSH2 0x1CA DUP3 PUSH2 0x90 JUMP JUMPDEST PUSH2 0x1D3 DUP5 PUSH2 0x90 JUMP JUMPDEST PUSH2 0x1DC DUP4 PUSH2 0xA5 JUMP JUMPDEST DUP2 DUP2 ADD PUSH2 0x1EB DUP4 DUP6 SUB DUP3 PUSH2 0x191 JUMP JUMPDEST POP POP POP POP JUMPDEST POP POP POP JUMP JUMPDEST PUSH9 0x10000000000000000 DUP3 GT ISZERO PUSH2 0x20F JUMPI PUSH2 0x20E PUSH2 0x4C JUMP JUMPDEST JUMPDEST PUSH2 0x218 DUP2 PUSH2 0x7B JUMP JUMPDEST DUP3 DUP3 SSTORE PUSH2 0x226 DUP4 DUP3 DUP5 PUSH2 0x1B9 JUMP JUMPDEST POP POP POP JUMP JUMPDEST PUSH1 0x0 PUSH1 0x3 SWAP1 POP SWAP2 SWAP1 POP JUMP JUMPDEST PUSH1 0x0 PUSH1 0xFF DUP3 AND SWAP1 POP SWAP2 SWAP1 POP JUMP JUMPDEST PUSH1 0x0 PUSH2 0x24F DUP3 MLOAD PUSH2 0x236 JUMP JUMPDEST DUP1 SWAP2 POP POP SWAP2 SWAP1 POP JUMP JUMPDEST PUSH1 0x0 DUP2 SWAP1 POP SWAP2 SWAP1 POP JUMP JUMPDEST PUSH2 0x26B DUP3 PUSH2 0x22B JUMP JUMPDEST PUSH8 0xFFFFFFFFFFFFFFFF DUP2 GT ISZERO PUSH2 0x284 JUMPI PUSH2 0x283 PUSH2 0x4C JUMP JUMPDEST JUMPDEST PUSH2 0x28E DUP2 DUP4 PUSH2 0x1F5 JUMP JUMPDEST PUSH2 0x297 DUP4 PUSH2 0x258 JUMP JUMPDEST PUSH2 0x2A0 DUP4 PUSH2 0xA5 JUMP JUMPDEST PUSH1 0x1 DUP4 DIV PUSH1 0x0 JUMPDEST DUP2 DUP2 LT ISZERO PUSH2 0x2DF JUMPI PUSH1 0x0 PUSH2 0x2BA DUP6 PUSH2 0x243 JUMP JUMPDEST PUSH2 0x2C3 DUP2 PUSH2 0x145 JUMP JUMPDEST DUP1 SWAP3 POP PUSH1 0x20 DUP8 ADD SWAP7 POP POP POP DUP1 DUP3 DUP6 ADD SSTORE POP PUSH1 0x1 DUP2 ADD SWAP1 POP PUSH2 0x2A7 JUMP JUMPDEST POP POP POP POP POP POP POP JUMP JUMPDEST PUSH2 0x5DA DUP1 PUSH2 0x2F7 PUSH1 0x0 CODECOPY PUSH1 0x0 RETURN INVALID PUSH1 0x80 PUSH1 0x40 MSTORE CALLVALUE DUP1 ISZERO PUSH2 0x10 JUMPI PUSH1 0x0 DUP1 REVERT JUMPDEST POP PUSH1 0x4 CALLDATASIZE LT PUSH2 0x9E JUMPI PUSH1 0x0 CALLDATALOAD PUSH1 0xE0 SHR DUP1 PUSH4 0xA16D3598 GT PUSH2 0x66 JUMPI DUP1 PUSH4 0xA16D3598 EQ PUSH2 0x145 JUMPI DUP1 PUSH4 0xA4ECE52C EQ PUSH2 0x163 JUMPI DUP1 PUSH4 0xC83D02D0 EQ PUSH2 0x16D JUMPI DUP1 PUSH4 0xEDF0099B EQ PUSH2 0x19D JUMPI DUP1 PUSH4 0xFB8CBCED EQ PUSH2 0x1CD JUMPI PUSH2 0x9E JUMP JUMPDEST DUP1 PUSH4 0x335D00C2 EQ PUSH2 0xA3 JUMPI DUP1 PUSH4 0x4CC82215 EQ PUSH2 0xAD JUMPI DUP1 PUSH4 0x71E5EE5F EQ PUSH2 0xC9 JUMPI DUP1 PUSH4 0x9507D39A EQ PUSH2 0xF9 JUMPI DUP1 PUSH4 0x959AC484 EQ PUSH2 0x129 JUMPI JUMPDEST PUSH1 0x0 DUP1 REVERT JUMPDEST PUSH2 0xAB PUSH2 0x1EB JUMP JUMPDEST STOP JUMPDEST PUSH2 0xC7 PUSH1 0x4 DUP1 CALLDATASIZE SUB DUP2 ADD SWAP1 PUSH2 0xC2 SWAP2 SWAP1 PUSH2 0x3E0 JUMP JUMPDEST PUSH2 0x23C JUMP JUMPDEST STOP JUMPDEST PUSH2 0xE3 PUSH1 0x4 DUP1 CALLDATASIZE SUB DUP2 ADD SWAP1 PUSH2 0xDE SWAP2 SWAP1 PUSH2 0x3E0 JUMP JUMPDEST PUSH2 0x261 JUMP JUMPDEST PUSH1 0x40 MLOAD PUSH2 0xF0 SWAP2 SWAP1 PUSH2 0x41C JUMP JUMPDEST PUSH1 0x40 MLOAD DUP1 SWAP2 SUB SWAP1 RETURN JUMPDEST PUSH2 0x113 PUSH1 0x4 DUP1 CALLDATASIZE SUB DUP2 ADD SWAP1 PUSH2 0x10E SWAP2 SWAP1 PUSH2 0x3E0 JUMP JUMPDEST PUSH2 0x285 JUMP JUMPDEST PUSH1 0x40 MLOAD PUSH2 0x120 SWAP2 SWAP1 PUSH2 0x41C JUMP JUMPDEST PUSH1 0x40 MLOAD DUP1 SWAP2 SUB SWAP1 RETURN JUMPDEST PUSH2 0x143 PUSH1 0x4 DUP1 CALLDATASIZE SUB DUP2 ADD SWAP1 PUSH2 0x13E SWAP2 SWAP1 PUSH2 0x3E0 JUMP JUMPDEST PUSH2 0x2AC JUMP JUMPDEST STOP JUMPDEST PUSH2 0x14D PUSH2 0x2D8 JUMP JUMPDEST PUSH1 0x40 MLOAD PUSH2 0x15A SWAP2 SWAP1 PUSH2 0x41C JUMP JUMPDEST PUSH1 0x40 MLOAD DUP1 SWAP2 SUB SWAP1 RETURN JUMPDEST PUSH2 0x16B PUSH2 0x2E4 JUMP JUMPDEST STOP JUMPDEST PUSH2 0x187 PUSH1 0x4 DUP1 CALLDATASIZE SUB DUP2 ADD SWAP1 PUSH2 0x182 SWAP2 SWAP1 PUSH2 0x3E0 JUMP JUMPDEST PUSH2 0x30E JUMP JUMPDEST PUSH1 0x40 MLOAD PUSH2 0x194 SWAP2 SWAP1 PUSH2 0x41C JUMP JUMPDEST PUSH1 0x40 MLOAD DUP1 SWAP2 SUB SWAP1 RETURN JUMPDEST PUSH2 0x1B7 PUSH1 0x4 DUP1 CALLDATASIZE SUB DUP2 ADD SWAP1 PUSH2 0x1B2 SWAP2 SWAP1 PUSH2 0x3E0 JUMP JUMPDEST PUSH2 0x329 JUMP JUMPDEST PUSH1 0x40 MLOAD PUSH2 0x1C4 SWAP2 SWAP1 PUSH2 0x41C JUMP JUMPDEST PUSH1 0x40 MLOAD DUP1 SWAP2 SUB SWAP1 RETURN JUMPDEST PUSH2 0x1D5 PUSH2 0x34D JUMP JUMPDEST PUSH1 0x40 MLOAD PUSH2 0x1E2 SWAP2 SWAP1 PUSH2 0x4F5 JUMP JUMPDEST PUSH1 0x40 MLOAD DUP1 SWAP2 SUB SWAP1 RETURN JUMPDEST PUSH1 0x0 PUSH1 0x5 PUSH8 0xFFFFFFFFFFFFFFFF DUP2 GT ISZERO PUSH2 0x208 JUMPI PUSH2 0x207 PUSH2 0x517 JUMP JUMPDEST JUMPDEST PUSH1 0x40 MLOAD SWAP1 DUP1 DUP3 MSTORE DUP1 PUSH1 0x20 MUL PUSH1 0x20 ADD DUP3 ADD PUSH1 0x40 MSTORE DUP1 ISZERO PUSH2 0x236 JUMPI DUP2 PUSH1 0x20 ADD PUSH1 0x20 DUP3 MUL DUP1 CALLDATASIZE DUP4 CALLDATACOPY DUP1 DUP3 ADD SWAP2 POP POP SWAP1 POP JUMPDEST POP SWAP1 POP POP JUMP JUMPDEST PUSH1 0x0 DUP2 DUP2 SLOAD DUP2 LT PUSH2 0x250 JUMPI PUSH2 0x24F PUSH2 0x546 JUMP JUMPDEST JUMPDEST SWAP1 PUSH1 0x0 MSTORE PUSH1 0x20 PUSH1 0x0 KECCAK256 ADD PUSH1 0x0 SWAP1 SSTORE POP JUMP JUMPDEST PUSH1 0x0 DUP2 DUP2 SLOAD DUP2 LT PUSH2 0x271 JUMPI PUSH1 0x0 DUP1 REVERT JUMPDEST SWAP1 PUSH1 0x0 MSTORE PUSH1 0x20 PUSH1 0x0 KECCAK256 ADD PUSH1 0x0 SWAP2 POP SWAP1 POP SLOAD DUP2 JUMP JUMPDEST PUSH1 0x0 DUP1 DUP3 DUP2 SLOAD DUP2 LT PUSH2 0x29A JUMPI PUSH2 0x299 PUSH2 0x546 JUMP JUMPDEST JUMPDEST SWAP1 PUSH1 0x0 MSTORE PUSH1 0x20 PUSH1 0x0 KECCAK256 ADD SLOAD SWAP1 POP SWAP2 SWAP1 POP JUMP JUMPDEST PUSH1 0x0 DUP2 SWAP1 DUP1 PUSH1 0x1 DUP2 SLOAD ADD DUP1 DUP3 SSTORE DUP1 SWAP2 POP POP PUSH1 0x1 SWAP1 SUB SWAP1 PUSH1 0x0 MSTORE PUSH1 0x20 PUSH1 0x0 KECCAK256 ADD PUSH1 0x0 SWAP1 SWAP2 SWAP1 SWAP2 SWAP1 SWAP2 POP SSTORE POP JUMP JUMPDEST PUSH1 0x0 DUP1 DUP1 SLOAD SWAP1 POP SWAP1 POP SWAP1 JUMP JUMPDEST PUSH1 0x0 DUP1 SLOAD DUP1 PUSH2 0x2F6 JUMPI PUSH2 0x2F5 PUSH2 0x575 JUMP JUMPDEST JUMPDEST PUSH1 0x1 SWAP1 SUB DUP2 DUP2 SWAP1 PUSH1 0x0 MSTORE PUSH1 0x20 PUSH1 0x0 KECCAK256 ADD PUSH1 0x0 SWAP1 SSTORE SWAP1 SSTORE JUMP JUMPDEST PUSH1 0x2 DUP2 PUSH1 0xA DUP2 LT PUSH2 0x31E JUMPI PUSH1 0x0 DUP1 REVERT JUMPDEST ADD PUSH1 0x0 SWAP2 POP SWAP1 POP SLOAD DUP2 JUMP JUMPDEST PUSH1 0x1 DUP2 DUP2 SLOAD DUP2 LT PUSH2 0x339 JUMPI PUSH1 0x0 DUP1 REVERT JUMPDEST SWAP1 PUSH1 0x0 MSTORE PUSH1 0x20 PUSH1 0x0 KECCAK256 ADD PUSH1 0x0 SWAP2 POP SWAP1 POP SLOAD DUP2 JUMP JUMPDEST PUSH1 0x60 PUSH1 0x0 DUP1 SLOAD DUP1 PUSH1 0x20 MUL PUSH1 0x20 ADD PUSH1 0x40 MLOAD SWAP1 DUP2 ADD PUSH1 0x40 MSTORE DUP1 SWAP3 SWAP2 SWAP1 DUP2 DUP2 MSTORE PUSH1 0x20 ADD DUP3 DUP1 SLOAD DUP1 ISZERO PUSH2 0x39B JUMPI PUSH1 0x20 MUL DUP3 ADD SWAP2 SWAP1 PUSH1 0x0 MSTORE PUSH1 0x20 PUSH1 0x0 KECCAK256 SWAP1 JUMPDEST DUP2 SLOAD DUP2 MSTORE PUSH1 0x20 ADD SWAP1 PUSH1 0x1 ADD SWAP1 DUP1 DUP4 GT PUSH2 0x387 JUMPI JUMPDEST POP POP POP POP POP SWAP1 POP SWAP1 JUMP JUMPDEST PUSH1 0x0 DUP1 REVERT JUMPDEST PUSH1 0x0 DUP2 SWAP1 POP SWAP2 SWAP1 POP JUMP JUMPDEST PUSH2 0x3BD DUP2 PUSH2 0x3AA JUMP JUMPDEST DUP2 EQ PUSH2 0x3C8 JUMPI PUSH1 0x0 DUP1 REVERT JUMPDEST POP JUMP JUMPDEST PUSH1 0x0 DUP2 CALLDATALOAD SWAP1 POP PUSH2 0x3DA DUP2 PUSH2 0x3B4 JUMP JUMPDEST SWAP3 SWAP2 POP POP JUMP JUMPDEST PUSH1 0x0 PUSH1 0x20 DUP3 DUP5 SUB SLT ISZERO PUSH2 0x3F6 JUMPI PUSH2 0x3F5 PUSH2 0x3A5 JUMP JUMPDEST JUMPDEST PUSH1 0x0 PUSH2 0x404 DUP5 DUP3 DUP6 ADD PUSH2 0x3CB JUMP JUMPDEST SWAP2 POP POP SWAP3 SWAP2 POP POP JUMP JUMPDEST PUSH2 0x416 DUP2 PUSH2 0x3AA JUMP JUMPDEST DUP3 MSTORE POP POP JUMP JUMPDEST PUSH1 0x0 PUSH1 0x20 DUP3 ADD SWAP1 POP PUSH2 0x431 PUSH1 0x0 DUP4 ADD DUP5 PUSH2 0x40D JUMP JUMPDEST SWAP3 SWAP2 POP POP JUMP JUMPDEST PUSH1 0x0 DUP2 MLOAD SWAP1 POP SWAP2 SWAP1 POP JUMP JUMPDEST PUSH1 0x0 DUP3 DUP3 MSTORE PUSH1 0x20 DUP3 ADD SWAP1 POP SWAP3 SWAP2 POP POP JUMP JUMPDEST PUSH1 0x0 DUP2 SWAP1 POP PUSH1 0x20 DUP3 ADD SWAP1 POP SWAP2 SWAP1 POP JUMP JUMPDEST PUSH2 0x46C DUP2 PUSH2 0x3AA JUMP JUMPDEST DUP3 MSTORE POP POP JUMP JUMPDEST PUSH1 0x0 PUSH2 0x47E DUP4 DUP4 PUSH2 0x463 JUMP JUMPDEST PUSH1 0x20 DUP4 ADD SWAP1 POP SWAP3 SWAP2 POP POP JUMP JUMPDEST PUSH1 0x0 PUSH1 0x20 DUP3 ADD SWAP1 POP SWAP2 SWAP1 POP JUMP JUMPDEST PUSH1 0x0 PUSH2 0x4A2 DUP3 PUSH2 0x437 JUMP JUMPDEST PUSH2 0x4AC DUP2 DUP6 PUSH2 0x442 JUMP JUMPDEST SWAP4 POP PUSH2 0x4B7 DUP4 PUSH2 0x453 JUMP JUMPDEST DUP1 PUSH1 0x0 JUMPDEST DUP4 DUP2 LT ISZERO PUSH2 0x4E8 JUMPI DUP2 MLOAD PUSH2 0x4CF DUP9 DUP3 PUSH2 0x472 JUMP JUMPDEST SWAP8 POP PUSH2 0x4DA DUP4 PUSH2 0x48A JUMP JUMPDEST SWAP3 POP POP PUSH1 0x1 DUP2 ADD SWAP1 POP PUSH2 0x4BB JUMP JUMPDEST POP DUP6 SWAP4 POP POP POP POP SWAP3 SWAP2 POP POP JUMP JUMPDEST PUSH1 0x0 PUSH1 0x20 DUP3 ADD SWAP1 POP DUP2 DUP2 SUB PUSH1 0x0 DUP4 ADD MSTORE PUSH2 0x50F DUP2 DUP5 PUSH2 0x497 JUMP JUMPDEST SWAP1 POP SWAP3 SWAP2 POP POP JUMP JUMPDEST PUSH32 0x4E487B7100000000000000000000000000000000000000000000000000000000 PUSH1 0x0 MSTORE PUSH1 0x41 PUSH1 0x4 MSTORE PUSH1 0x24 PUSH1 0x0 REVERT JUMPDEST PUSH32 0x4E487B7100000000000000000000000000000000000000000000000000000000 PUSH1 0x0 MSTORE PUSH1 0x32 PUSH1 0x4 MSTORE PUSH1 0x24 PUSH1 0x0 REVERT JUMPDEST PUSH32 0x4E487B7100000000000000000000000000000000000000000000000000000000 PUSH1 0x0 MSTORE PUSH1 0x31 PUSH1 0x4 MSTORE PUSH1 0x24 PUSH1 0x0 REVERT INVALID LOG2 PUSH5 0x6970667358 0x22 SLT KECCAK256 0x21 PUSH19 0xD4849412CF0B9717D5A4B5D422F12681F3E37E PUSH1 0x57 0xD4 PUSH6 0x96C6A1AE6D09 0xEB PUSH5 0x736F6C6343 STOP ADDMOD 0x22 STOP CALLER "
				},
				"gasEstimates": {
					"creation": {
						"codeDepositCost": "299600",
						"executionCost": "infinite",
						"totalCost": "infinite"
					},
					"external": {
						"arr(uint256)": "infinite",
						"arr2(uint256)": "infinite",
						"examples()": "341",
						"get(uint256)": "infinite",
						"getArr()": "infinite",
						"getlength()": "2445",
						"myFixedsizearr(uint256)": "infinite",
						"pop()": "29467",
						"push(uint256)": "46918",
						"remove(uint256)": "7618"
					}
				},
				"methodIdentifiers": {
					"arr(uint256)": "71e5ee5f",
					"arr2(uint256)": "edf0099b",
					"examples()": "335d00c2",
					"get(uint256)": "9507d39a",
					"getArr()": "fb8cbced",
					"getlength()": "a16d3598",
					"myFixedsizearr(uint256)": "c83d02d0",
					"pop()": "a4ece52c",
					"push(uint256)": "959ac484",
					"remove(uint256)": "4cc82215"
				}
			},
			"storageLayout": {
				"storage": [
					{
						"astId": 4,
						"contract": "array.sol:Array",
						"label": "arr",
						"offset": 0,
						"slot": "0",
						"type": "t_array(t_uint256)dyn_storage"
					},
					{
						"astId": 11,
						"contract": "array.sol:Array",
						"label": "arr2",
						"offset": 0,
						"slot": "1",
						"type": "t_array(t_uint256)dyn_storage"
					},
					{
						"astId": 15,
						"contract": "array.sol:Array",
						"label": "myFixedsizearr",
						"offset": 0,
						"slot": "2",
						"type": "t_array(t_uint256)10_storage"
					}
				],
				"types": {
					"t_array(t_uint256)10_storage": {
						"base": "t_uint256",
						"encoding": "inplace",
						"label": "uint256[10]",
						"numberOfBytes": "320"
					},
					"t_array(t_uint256)dyn_storage": {
						"base": "t_uint256",
						"encoding": "dynamic_array",
						"label": "uint256[]",
						"numberOfBytes": "32"
					},
					"t_uint256": {
						"encoding": "inplace",
						"label": "uint256",
						"numberOfBytes": "32"
					}
				}
			},
			"userdoc": {
				"kind": "user",
				"methods": {},
				"version": 1
			}
		}
	}
}