{
	"Ifelse.sol": {
		"Ifelse": {
			"abi": [
				{
					"inputs": [
						{
							"internalType": "uint256",
							"name": "_num",
							"type": "uint256"
						}
					],
					"name": "getdata",
					"outputs": [
						{
							"internalType": "string",
							"name": "",
							"type": "string"
						}
					],
					"stateMutability": "nonpayable",
					"type": "function"
				},
				{
					"inputs": [],
					"name": "mynum",
					"outputs": [
						{
							"internalType": "uint256",
							"name": "",
							"type": "uint256"
						}
					],
					"stateMutability": "view",
					"type": "function"
				},
				{
					"inputs": [],
					"name": "mystring",
					"outputs": [
						{
							"internalType": "string",
							"name": "",
							"type": "string"
						}
					],
					"stateMutability": "view",
					"type": "function"
				}
			],
			"devdoc": {
				"kind": "dev",
				"methods": {},
				"version": 1
			},
			"evm": {
				"assembly": "    /* \"Ifelse.sol\":61:293  contract Ifelse{... */\n  mstore(0x40, 0x80)\n    /* \"Ifelse.sol\":108:109  5 */\n  0x05\n    /* \"Ifelse.sol\":85:109  uint256 public mynum = 5 */\n  0x00\n  sstore\n    /* \"Ifelse.sol\":61:293  contract Ifelse{... */\n  callvalue\n  dup1\n  iszero\n  tag_1\n  jumpi\n  0x00\n  dup1\n  revert\ntag_1:\n  pop\n  dataSize(sub_0)\n  dup1\n  dataOffset(sub_0)\n  0x00\n  codecopy\n  0x00\n  return\nstop\n\nsub_0: assembly {\n        /* \"Ifelse.sol\":61:293  contract Ifelse{... */\n      mstore(0x40, 0x80)\n      callvalue\n      dup1\n      iszero\n      tag_1\n      jumpi\n      0x00\n      dup1\n      revert\n    tag_1:\n      pop\n      jumpi(tag_2, lt(calldatasize, 0x04))\n      shr(0xe0, calldataload(0x00))\n      dup1\n      0x0ad2b739\n      eq\n      tag_3\n      jumpi\n      dup1\n      0xc261fa36\n      eq\n      tag_4\n      jumpi\n      dup1\n      0xf68ff8e8\n      eq\n      tag_5\n      jumpi\n    tag_2:\n      0x00\n      dup1\n      revert\n        /* \"Ifelse.sol\":147:284  function getdata(uint256 _num)public returns(string memory){... */\n    tag_3:\n      tag_6\n      0x04\n      dup1\n      calldatasize\n      sub\n      dup2\n      add\n      swap1\n      tag_7\n      swap2\n      swap1\n      tag_8\n      jump\t// in\n    tag_7:\n      tag_9\n      jump\t// in\n    tag_6:\n      mload(0x40)\n      tag_10\n      swap2\n      swap1\n      tag_11\n      jump\t// in\n    tag_10:\n      mload(0x40)\n      dup1\n      swap2\n      sub\n      swap1\n      return\n        /* \"Ifelse.sol\":116:138  string public mystring */\n    tag_4:\n      tag_12\n      tag_13\n      jump\t// in\n    tag_12:\n      mload(0x40)\n      tag_14\n      swap2\n      swap1\n      tag_11\n      jump\t// in\n    tag_14:\n      mload(0x40)\n      dup1\n      swap2\n      sub\n      swap1\n      return\n        /* \"Ifelse.sol\":85:109  uint256 public mynum = 5 */\n    tag_5:\n      tag_15\n      tag_16\n      jump\t// in\n    tag_15:\n      mload(0x40)\n      tag_17\n      swap2\n      swap1\n      tag_18\n      jump\t// in\n    tag_17:\n      mload(0x40)\n      dup1\n      swap2\n      sub\n      swap1\n      return\n        /* \"Ifelse.sol\":147:284  function getdata(uint256 _num)public returns(string memory){... */\n    tag_9:\n        /* \"Ifelse.sol\":192:205  string memory */\n      0x60\n        /* \"Ifelse.sol\":234:235  5 */\n      0x05\n        /* \"Ifelse.sol\":226:230  _num */\n      dup3\n        /* \"Ifelse.sol\":226:235  _num == 5 */\n      eq\n        /* \"Ifelse.sol\":226:276  _num == 5 ? mystring = \"hello\" : mystring = \"bolo\" */\n      tag_20\n      jumpi\n        /* \"Ifelse.sol\":259:276  mystring = \"bolo\" */\n      mload(0x40)\n      dup1\n      0x40\n      add\n      0x40\n      mstore\n      dup1\n      0x04\n      dup2\n      mstore\n      0x20\n      add\n      0x626f6c6f00000000000000000000000000000000000000000000000000000000\n      dup2\n      mstore\n      pop\n        /* \"Ifelse.sol\":259:267  mystring */\n      0x01\n        /* \"Ifelse.sol\":259:276  mystring = \"bolo\" */\n      swap1\n      dup2\n      tag_21\n      swap2\n      swap1\n      tag_22\n      jump\t// in\n    tag_21:\n        /* \"Ifelse.sol\":226:276  _num == 5 ? mystring = \"hello\" : mystring = \"bolo\" */\n      jump(tag_23)\n    tag_20:\n        /* \"Ifelse.sol\":238:256  mystring = \"hello\" */\n      mload(0x40)\n      dup1\n      0x40\n      add\n      0x40\n      mstore\n      dup1\n      0x05\n      dup2\n      mstore\n      0x20\n      add\n      0x68656c6c6f000000000000000000000000000000000000000000000000000000\n      dup2\n      mstore\n      pop\n        /* \"Ifelse.sol\":238:246  mystring */\n      0x01\n        /* \"Ifelse.sol\":238:256  mystring = \"hello\" */\n      swap1\n      dup2\n      tag_24\n      swap2\n      swap1\n      tag_22\n      jump\t// in\n    tag_24:\n        /* \"Ifelse.sol\":226:276  _num == 5 ? mystring = \"hello\" : mystring = \"bolo\" */\n    tag_23:\n        /* \"Ifelse.sol\":219:276  return _num == 5 ? mystring = \"hello\" : mystring = \"bolo\" */\n      dup1\n      sload\n      tag_25\n      swap1\n      tag_26\n      jump\t// in\n    tag_25:\n      dup1\n      0x1f\n      add\n      0x20\n      dup1\n      swap2\n      div\n      mul\n      0x20\n      add\n      mload(0x40)\n      swap1\n      dup2\n      add\n      0x40\n      mstore\n      dup1\n      swap3\n      swap2\n      swap1\n      dup2\n      dup2\n      mstore\n      0x20\n      add\n      dup3\n      dup1\n      sload\n      tag_27\n      swap1\n      tag_26\n      jump\t// in\n    tag_27:\n      dup1\n      iszero\n      tag_28\n      jumpi\n      dup1\n      0x1f\n      lt\n      tag_29\n      jumpi\n      0x0100\n      dup1\n      dup4\n      sload\n      div\n      mul\n      dup4\n      mstore\n      swap2\n      0x20\n      add\n      swap2\n      jump(tag_28)\n    tag_29:\n      dup3\n      add\n      swap2\n      swap1\n      0x00\n      mstore\n      keccak256(0x00, 0x20)\n      swap1\n    tag_30:\n      dup2\n      sload\n      dup2\n      mstore\n      swap1\n      0x01\n      add\n      swap1\n      0x20\n      add\n      dup1\n      dup4\n      gt\n      tag_30\n      jumpi\n      dup3\n      swap1\n      sub\n      0x1f\n      and\n      dup3\n      add\n      swap2\n    tag_28:\n      pop\n      pop\n      pop\n      pop\n      pop\n      swap1\n      pop\n        /* \"Ifelse.sol\":147:284  function getdata(uint256 _num)public returns(string memory){... */\n      swap2\n      swap1\n      pop\n      jump\t// out\n        /* \"Ifelse.sol\":116:138  string public mystring */\n    tag_13:\n      0x01\n      dup1\n      sload\n      tag_31\n      swap1\n      tag_26\n      jump\t// in\n    tag_31:\n      dup1\n      0x1f\n      add\n      0x20\n      dup1\n      swap2\n      div\n      mul\n      0x20\n      add\n      mload(0x40)\n      swap1\n      dup2\n      add\n      0x40\n      mstore\n      dup1\n      swap3\n      swap2\n      swap1\n      dup2\n      dup2\n      mstore\n      0x20\n      add\n      dup3\n      dup1\n      sload\n      tag_32\n      swap1\n      tag_26\n      jump\t// in\n    tag_32:\n      dup1\n      iszero\n      tag_33\n      jumpi\n      dup1\n      0x1f\n      lt\n      tag_34\n      jumpi\n      0x0100\n      dup1\n      dup4\n      sload\n      div\n      mul\n      dup4\n      mstore\n      swap2\n      0x20\n      add\n      swap2\n      jump(tag_33)\n    tag_34:\n      dup3\n      add\n      swap2\n      swap1\n      0x00\n      mstore\n      keccak256(0x00, 0x20)\n      swap1\n    tag_35:\n      dup2\n      sload\n      dup2\n      mstore\n      swap1\n      0x01\n      add\n      swap1\n      0x20\n      add\n      dup1\n      dup4\n      gt\n      tag_35\n      jumpi\n      dup3\n      swap1\n      sub\n      0x1f\n      and\n      dup3\n      add\n      swap2\n    tag_33:\n      pop\n      pop\n      pop\n      pop\n      pop\n      dup2\n      jump\t// out\n        /* \"Ifelse.sol\":85:109  uint256 public mynum = 5 */\n    tag_16:\n      sload(0x00)\n      dup2\n      jump\t// out\n        /* \"#utility.yul\":88:205   */\n    tag_37:\n        /* \"#utility.yul\":197:198   */\n      0x00\n        /* \"#utility.yul\":194:195   */\n      dup1\n        /* \"#utility.yul\":187:199   */\n      revert\n        /* \"#utility.yul\":334:411   */\n    tag_39:\n        /* \"#utility.yul\":371:378   */\n      0x00\n        /* \"#utility.yul\":400:405   */\n      dup2\n        /* \"#utility.yul\":389:405   */\n      swap1\n      pop\n        /* \"#utility.yul\":334:411   */\n      swap2\n      swap1\n      pop\n      jump\t// out\n        /* \"#utility.yul\":417:539   */\n    tag_40:\n        /* \"#utility.yul\":490:514   */\n      tag_71\n        /* \"#utility.yul\":508:513   */\n      dup2\n        /* \"#utility.yul\":490:514   */\n      tag_39\n      jump\t// in\n    tag_71:\n        /* \"#utility.yul\":483:488   */\n      dup2\n        /* \"#utility.yul\":480:515   */\n      eq\n        /* \"#utility.yul\":470:533   */\n      tag_72\n      jumpi\n        /* \"#utility.yul\":529:530   */\n      0x00\n        /* \"#utility.yul\":526:527   */\n      dup1\n        /* \"#utility.yul\":519:531   */\n      revert\n        /* \"#utility.yul\":470:533   */\n    tag_72:\n        /* \"#utility.yul\":417:539   */\n      pop\n      jump\t// out\n        /* \"#utility.yul\":545:684   */\n    tag_41:\n        /* \"#utility.yul\":591:596   */\n      0x00\n        /* \"#utility.yul\":629:635   */\n      dup2\n        /* \"#utility.yul\":616:636   */\n      calldataload\n        /* \"#utility.yul\":607:636   */\n      swap1\n      pop\n        /* \"#utility.yul\":645:678   */\n      tag_74\n        /* \"#utility.yul\":672:677   */\n      dup2\n        /* \"#utility.yul\":645:678   */\n      tag_40\n      jump\t// in\n    tag_74:\n        /* \"#utility.yul\":545:684   */\n      swap3\n      swap2\n      pop\n      pop\n      jump\t// out\n        /* \"#utility.yul\":690:1019   */\n    tag_8:\n        /* \"#utility.yul\":749:755   */\n      0x00\n        /* \"#utility.yul\":798:800   */\n      0x20\n        /* \"#utility.yul\":786:795   */\n      dup3\n        /* \"#utility.yul\":777:784   */\n      dup5\n        /* \"#utility.yul\":773:796   */\n      sub\n        /* \"#utility.yul\":769:801   */\n      slt\n        /* \"#utility.yul\":766:885   */\n      iszero\n      tag_76\n      jumpi\n        /* \"#utility.yul\":804:883   */\n      tag_77\n      tag_37\n      jump\t// in\n    tag_77:\n        /* \"#utility.yul\":766:885   */\n    tag_76:\n        /* \"#utility.yul\":924:925   */\n      0x00\n        /* \"#utility.yul\":949:1002   */\n      tag_78\n        /* \"#utility.yul\":994:1001   */\n      dup5\n        /* \"#utility.yul\":985:991   */\n      dup3\n        /* \"#utility.yul\":974:983   */\n      dup6\n        /* \"#utility.yul\":970:992   */\n      add\n        /* \"#utility.yul\":949:1002   */\n      tag_41\n      jump\t// in\n    tag_78:\n        /* \"#utility.yul\":939:1002   */\n      swap2\n      pop\n        /* \"#utility.yul\":895:1012   */\n      pop\n        /* \"#utility.yul\":690:1019   */\n      swap3\n      swap2\n      pop\n      pop\n      jump\t// out\n        /* \"#utility.yul\":1025:1124   */\n    tag_42:\n        /* \"#utility.yul\":1077:1083   */\n      0x00\n        /* \"#utility.yul\":1111:1116   */\n      dup2\n        /* \"#utility.yul\":1105:1117   */\n      mload\n        /* \"#utility.yul\":1095:1117   */\n      swap1\n      pop\n        /* \"#utility.yul\":1025:1124   */\n      swap2\n      swap1\n      pop\n      jump\t// out\n        /* \"#utility.yul\":1130:1299   */\n    tag_43:\n        /* \"#utility.yul\":1214:1225   */\n      0x00\n        /* \"#utility.yul\":1248:1254   */\n      dup3\n        /* \"#utility.yul\":1243:1246   */\n      dup3\n        /* \"#utility.yul\":1236:1255   */\n      mstore\n        /* \"#utility.yul\":1288:1292   */\n      0x20\n        /* \"#utility.yul\":1283:1286   */\n      dup3\n        /* \"#utility.yul\":1279:1293   */\n      add\n        /* \"#utility.yul\":1264:1293   */\n      swap1\n      pop\n        /* \"#utility.yul\":1130:1299   */\n      swap3\n      swap2\n      pop\n      pop\n      jump\t// out\n        /* \"#utility.yul\":1305:1553   */\n    tag_44:\n        /* \"#utility.yul\":1387:1388   */\n      0x00\n        /* \"#utility.yul\":1397:1510   */\n    tag_82:\n        /* \"#utility.yul\":1411:1417   */\n      dup4\n        /* \"#utility.yul\":1408:1409   */\n      dup2\n        /* \"#utility.yul\":1405:1418   */\n      lt\n        /* \"#utility.yul\":1397:1510   */\n      iszero\n      tag_84\n      jumpi\n        /* \"#utility.yul\":1496:1497   */\n      dup1\n        /* \"#utility.yul\":1491:1494   */\n      dup3\n        /* \"#utility.yul\":1487:1498   */\n      add\n        /* \"#utility.yul\":1481:1499   */\n      mload\n        /* \"#utility.yul\":1477:1478   */\n      dup2\n        /* \"#utility.yul\":1472:1475   */\n      dup5\n        /* \"#utility.yul\":1468:1479   */\n      add\n        /* \"#utility.yul\":1461:1500   */\n      mstore\n        /* \"#utility.yul\":1433:1435   */\n      0x20\n        /* \"#utility.yul\":1430:1431   */\n      dup2\n        /* \"#utility.yul\":1426:1436   */\n      add\n        /* \"#utility.yul\":1421:1436   */\n      swap1\n      pop\n        /* \"#utility.yul\":1397:1510   */\n      jump(tag_82)\n    tag_84:\n        /* \"#utility.yul\":1544:1545   */\n      0x00\n        /* \"#utility.yul\":1535:1541   */\n      dup5\n        /* \"#utility.yul\":1530:1533   */\n      dup5\n        /* \"#utility.yul\":1526:1542   */\n      add\n        /* \"#utility.yul\":1519:1546   */\n      mstore\n        /* \"#utility.yul\":1367:1553   */\n      pop\n        /* \"#utility.yul\":1305:1553   */\n      pop\n      pop\n      pop\n      jump\t// out\n        /* \"#utility.yul\":1559:1661   */\n    tag_45:\n        /* \"#utility.yul\":1600:1606   */\n      0x00\n        /* \"#utility.yul\":1651:1653   */\n      0x1f\n        /* \"#utility.yul\":1647:1654   */\n      not\n        /* \"#utility.yul\":1642:1644   */\n      0x1f\n        /* \"#utility.yul\":1635:1640   */\n      dup4\n        /* \"#utility.yul\":1631:1645   */\n      add\n        /* \"#utility.yul\":1627:1655   */\n      and\n        /* \"#utility.yul\":1617:1655   */\n      swap1\n      pop\n        /* \"#utility.yul\":1559:1661   */\n      swap2\n      swap1\n      pop\n      jump\t// out\n        /* \"#utility.yul\":1667:2044   */\n    tag_46:\n        /* \"#utility.yul\":1755:1758   */\n      0x00\n        /* \"#utility.yul\":1783:1822   */\n      tag_87\n        /* \"#utility.yul\":1816:1821   */\n      dup3\n        /* \"#utility.yul\":1783:1822   */\n      tag_42\n      jump\t// in\n    tag_87:\n        /* \"#utility.yul\":1838:1909   */\n      tag_88\n        /* \"#utility.yul\":1902:1908   */\n      dup2\n        /* \"#utility.yul\":1897:1900   */\n      dup6\n        /* \"#utility.yul\":1838:1909   */\n      tag_43\n      jump\t// in\n    tag_88:\n        /* \"#utility.yul\":1831:1909   */\n      swap4\n      pop\n        /* \"#utility.yul\":1918:1983   */\n      tag_89\n        /* \"#utility.yul\":1976:1982   */\n      dup2\n        /* \"#utility.yul\":1971:1974   */\n      dup6\n        /* \"#utility.yul\":1964:1968   */\n      0x20\n        /* \"#utility.yul\":1957:1962   */\n      dup7\n        /* \"#utility.yul\":1953:1969   */\n      add\n        /* \"#utility.yul\":1918:1983   */\n      tag_44\n      jump\t// in\n    tag_89:\n        /* \"#utility.yul\":2008:2037   */\n      tag_90\n        /* \"#utility.yul\":2030:2036   */\n      dup2\n        /* \"#utility.yul\":2008:2037   */\n      tag_45\n      jump\t// in\n    tag_90:\n        /* \"#utility.yul\":2003:2006   */\n      dup5\n        /* \"#utility.yul\":1999:2038   */\n      add\n        /* \"#utility.yul\":1992:2038   */\n      swap2\n      pop\n        /* \"#utility.yul\":1759:2044   */\n      pop\n        /* \"#utility.yul\":1667:2044   */\n      swap3\n      swap2\n      pop\n      pop\n      jump\t// out\n        /* \"#utility.yul\":2050:2363   */\n    tag_11:\n        /* \"#utility.yul\":2163:2167   */\n      0x00\n        /* \"#utility.yul\":2201:2203   */\n      0x20\n        /* \"#utility.yul\":2190:2199   */\n      dup3\n        /* \"#utility.yul\":2186:2204   */\n      add\n        /* \"#utility.yul\":2178:2204   */\n      swap1\n      pop\n        /* \"#utility.yul\":2250:2259   */\n      dup2\n        /* \"#utility.yul\":2244:2248   */\n      dup2\n        /* \"#utility.yul\":2240:2260   */\n      sub\n        /* \"#utility.yul\":2236:2237   */\n      0x00\n        /* \"#utility.yul\":2225:2234   */\n      dup4\n        /* \"#utility.yul\":2221:2238   */\n      add\n        /* \"#utility.yul\":2214:2261   */\n      mstore\n        /* \"#utility.yul\":2278:2356   */\n      tag_92\n        /* \"#utility.yul\":2351:2355   */\n      dup2\n        /* \"#utility.yul\":2342:2348   */\n      dup5\n        /* \"#utility.yul\":2278:2356   */\n      tag_46\n      jump\t// in\n    tag_92:\n        /* \"#utility.yul\":2270:2356   */\n      swap1\n      pop\n        /* \"#utility.yul\":2050:2363   */\n      swap3\n      swap2\n      pop\n      pop\n      jump\t// out\n        /* \"#utility.yul\":2369:2487   */\n    tag_47:\n        /* \"#utility.yul\":2456:2480   */\n      tag_94\n        /* \"#utility.yul\":2474:2479   */\n      dup2\n        /* \"#utility.yul\":2456:2480   */\n      tag_39\n      jump\t// in\n    tag_94:\n        /* \"#utility.yul\":2451:2454   */\n      dup3\n        /* \"#utility.yul\":2444:2481   */\n      mstore\n        /* \"#utility.yul\":2369:2487   */\n      pop\n      pop\n      jump\t// out\n        /* \"#utility.yul\":2493:2715   */\n    tag_18:\n        /* \"#utility.yul\":2586:2590   */\n      0x00\n        /* \"#utility.yul\":2624:2626   */\n      0x20\n        /* \"#utility.yul\":2613:2622   */\n      dup3\n        /* \"#utility.yul\":2609:2627   */\n      add\n        /* \"#utility.yul\":2601:2627   */\n      swap1\n      pop\n        /* \"#utility.yul\":2637:2708   */\n      tag_96\n        /* \"#utility.yul\":2705:2706   */\n      0x00\n        /* \"#utility.yul\":2694:2703   */\n      dup4\n        /* \"#utility.yul\":2690:2707   */\n      add\n        /* \"#utility.yul\":2681:2687   */\n      dup5\n        /* \"#utility.yul\":2637:2708   */\n      tag_47\n      jump\t// in\n    tag_96:\n        /* \"#utility.yul\":2493:2715   */\n      swap3\n      swap2\n      pop\n      pop\n      jump\t// out\n        /* \"#utility.yul\":2721:2901   */\n    tag_48:\n        /* \"#utility.yul\":2769:2846   */\n      0x4e487b7100000000000000000000000000000000000000000000000000000000\n        /* \"#utility.yul\":2766:2767   */\n      0x00\n        /* \"#utility.yul\":2759:2847   */\n      mstore\n        /* \"#utility.yul\":2866:2870   */\n      0x41\n        /* \"#utility.yul\":2863:2864   */\n      0x04\n        /* \"#utility.yul\":2856:2871   */\n      mstore\n        /* \"#utility.yul\":2890:2894   */\n      0x24\n        /* \"#utility.yul\":2887:2888   */\n      0x00\n        /* \"#utility.yul\":2880:2895   */\n      revert\n        /* \"#utility.yul\":2907:3087   */\n    tag_49:\n        /* \"#utility.yul\":2955:3032   */\n      0x4e487b7100000000000000000000000000000000000000000000000000000000\n        /* \"#utility.yul\":2952:2953   */\n      0x00\n        /* \"#utility.yul\":2945:3033   */\n      mstore\n        /* \"#utility.yul\":3052:3056   */\n      0x22\n        /* \"#utility.yul\":3049:3050   */\n      0x04\n        /* \"#utility.yul\":3042:3057   */\n      mstore\n        /* \"#utility.yul\":3076:3080   */\n      0x24\n        /* \"#utility.yul\":3073:3074   */\n      0x00\n        /* \"#utility.yul\":3066:3081   */\n      revert\n        /* \"#utility.yul\":3093:3413   */\n    tag_26:\n        /* \"#utility.yul\":3137:3143   */\n      0x00\n        /* \"#utility.yul\":3174:3175   */\n      0x02\n        /* \"#utility.yul\":3168:3172   */\n      dup3\n        /* \"#utility.yul\":3164:3176   */\n      div\n        /* \"#utility.yul\":3154:3176   */\n      swap1\n      pop\n        /* \"#utility.yul\":3221:3222   */\n      0x01\n        /* \"#utility.yul\":3215:3219   */\n      dup3\n        /* \"#utility.yul\":3211:3223   */\n      and\n        /* \"#utility.yul\":3242:3260   */\n      dup1\n        /* \"#utility.yul\":3232:3313   */\n      tag_100\n      jumpi\n        /* \"#utility.yul\":3298:3302   */\n      0x7f\n        /* \"#utility.yul\":3290:3296   */\n      dup3\n        /* \"#utility.yul\":3286:3303   */\n      and\n        /* \"#utility.yul\":3276:3303   */\n      swap2\n      pop\n        /* \"#utility.yul\":3232:3313   */\n    tag_100:\n        /* \"#utility.yul\":3360:3362   */\n      0x20\n        /* \"#utility.yul\":3352:3358   */\n      dup3\n        /* \"#utility.yul\":3349:3363   */\n      lt\n        /* \"#utility.yul\":3329:3347   */\n      dup2\n        /* \"#utility.yul\":3326:3364   */\n      sub\n        /* \"#utility.yul\":3323:3407   */\n      tag_101\n      jumpi\n        /* \"#utility.yul\":3379:3397   */\n      tag_102\n      tag_49\n      jump\t// in\n    tag_102:\n        /* \"#utility.yul\":3323:3407   */\n    tag_101:\n        /* \"#utility.yul\":3144:3413   */\n      pop\n        /* \"#utility.yul\":3093:3413   */\n      swap2\n      swap1\n      pop\n      jump\t// out\n        /* \"#utility.yul\":3419:3560   */\n    tag_50:\n        /* \"#utility.yul\":3468:3472   */\n      0x00\n        /* \"#utility.yul\":3491:3494   */\n      dup2\n        /* \"#utility.yul\":3483:3494   */\n      swap1\n      pop\n        /* \"#utility.yul\":3514:3517   */\n      dup2\n        /* \"#utility.yul\":3511:3512   */\n      0x00\n        /* \"#utility.yul\":3504:3518   */\n      mstore\n        /* \"#utility.yul\":3548:3552   */\n      0x20\n        /* \"#utility.yul\":3545:3546   */\n      0x00\n        /* \"#utility.yul\":3535:3553   */\n      keccak256\n        /* \"#utility.yul\":3527:3553   */\n      swap1\n      pop\n        /* \"#utility.yul\":3419:3560   */\n      swap2\n      swap1\n      pop\n      jump\t// out\n        /* \"#utility.yul\":3566:3659   */\n    tag_51:\n        /* \"#utility.yul\":3603:3609   */\n      0x00\n        /* \"#utility.yul\":3650:3652   */\n      0x20\n        /* \"#utility.yul\":3645:3647   */\n      0x1f\n        /* \"#utility.yul\":3638:3643   */\n      dup4\n        /* \"#utility.yul\":3634:3648   */\n      add\n        /* \"#utility.yul\":3630:3653   */\n      div\n        /* \"#utility.yul\":3620:3653   */\n      swap1\n      pop\n        /* \"#utility.yul\":3566:3659   */\n      swap2\n      swap1\n      pop\n      jump\t// out\n        /* \"#utility.yul\":3665:3772   */\n    tag_52:\n        /* \"#utility.yul\":3709:3717   */\n      0x00\n        /* \"#utility.yul\":3759:3764   */\n      dup3\n        /* \"#utility.yul\":3753:3757   */\n      dup3\n        /* \"#utility.yul\":3749:3765   */\n      shl\n        /* \"#utility.yul\":3728:3765   */\n      swap1\n      pop\n        /* \"#utility.yul\":3665:3772   */\n      swap3\n      swap2\n      pop\n      pop\n      jump\t// out\n        /* \"#utility.yul\":3778:4171   */\n    tag_53:\n        /* \"#utility.yul\":3847:3853   */\n      0x00\n        /* \"#utility.yul\":3897:3898   */\n      0x08\n        /* \"#utility.yul\":3885:3895   */\n      dup4\n        /* \"#utility.yul\":3881:3899   */\n      mul\n        /* \"#utility.yul\":3920:4017   */\n      tag_107\n        /* \"#utility.yul\":3950:4016   */\n      0xffffffffffffffffffffffffffffffffffffffffffffffffffffffffffffffff\n        /* \"#utility.yul\":3939:3948   */\n      dup3\n        /* \"#utility.yul\":3920:4017   */\n      tag_52\n      jump\t// in\n    tag_107:\n        /* \"#utility.yul\":4038:4077   */\n      tag_108\n        /* \"#utility.yul\":4068:4076   */\n      dup7\n        /* \"#utility.yul\":4057:4066   */\n      dup4\n        /* \"#utility.yul\":4038:4077   */\n      tag_52\n      jump\t// in\n    tag_108:\n        /* \"#utility.yul\":4026:4077   */\n      swap6\n      pop\n        /* \"#utility.yul\":4110:4114   */\n      dup1\n        /* \"#utility.yul\":4106:4115   */\n      not\n        /* \"#utility.yul\":4099:4104   */\n      dup5\n        /* \"#utility.yul\":4095:4116   */\n      and\n        /* \"#utility.yul\":4086:4116   */\n      swap4\n      pop\n        /* \"#utility.yul\":4159:4163   */\n      dup1\n        /* \"#utility.yul\":4149:4157   */\n      dup7\n        /* \"#utility.yul\":4145:4164   */\n      and\n        /* \"#utility.yul\":4138:4143   */\n      dup5\n        /* \"#utility.yul\":4135:4165   */\n      or\n        /* \"#utility.yul\":4125:4165   */\n      swap3\n      pop\n        /* \"#utility.yul\":3854:4171   */\n      pop\n      pop\n        /* \"#utility.yul\":3778:4171   */\n      swap4\n      swap3\n      pop\n      pop\n      pop\n      jump\t// out\n        /* \"#utility.yul\":4177:4237   */\n    tag_54:\n        /* \"#utility.yul\":4205:4208   */\n      0x00\n        /* \"#utility.yul\":4226:4231   */\n      dup2\n        /* \"#utility.yul\":4219:4231   */\n      swap1\n      pop\n        /* \"#utility.yul\":4177:4237   */\n      swap2\n      swap1\n      pop\n      jump\t// out\n        /* \"#utility.yul\":4243:4385   */\n    tag_55:\n        /* \"#utility.yul\":4293:4302   */\n      0x00\n        /* \"#utility.yul\":4326:4379   */\n      tag_111\n        /* \"#utility.yul\":4344:4378   */\n      tag_112\n        /* \"#utility.yul\":4353:4377   */\n      tag_113\n        /* \"#utility.yul\":4371:4376   */\n      dup5\n        /* \"#utility.yul\":4353:4377   */\n      tag_39\n      jump\t// in\n    tag_113:\n        /* \"#utility.yul\":4344:4378   */\n      tag_54\n      jump\t// in\n    tag_112:\n        /* \"#utility.yul\":4326:4379   */\n      tag_39\n      jump\t// in\n    tag_111:\n        /* \"#utility.yul\":4313:4379   */\n      swap1\n      pop\n        /* \"#utility.yul\":4243:4385   */\n      swap2\n      swap1\n      pop\n      jump\t// out\n        /* \"#utility.yul\":4391:4466   */\n    tag_56:\n        /* \"#utility.yul\":4434:4437   */\n      0x00\n        /* \"#utility.yul\":4455:4460   */\n      dup2\n        /* \"#utility.yul\":4448:4460   */\n      swap1\n      pop\n        /* \"#utility.yul\":4391:4466   */\n      swap2\n      swap1\n      pop\n      jump\t// out\n        /* \"#utility.yul\":4472:4741   */\n    tag_57:\n        /* \"#utility.yul\":4582:4621   */\n      tag_116\n        /* \"#utility.yul\":4613:4620   */\n      dup4\n        /* \"#utility.yul\":4582:4621   */\n      tag_55\n      jump\t// in\n    tag_116:\n        /* \"#utility.yul\":4643:4734   */\n      tag_117\n        /* \"#utility.yul\":4692:4733   */\n      tag_118\n        /* \"#utility.yul\":4716:4732   */\n      dup3\n        /* \"#utility.yul\":4692:4733   */\n      tag_56\n      jump\t// in\n    tag_118:\n        /* \"#utility.yul\":4684:4690   */\n      dup5\n        /* \"#utility.yul\":4677:4681   */\n      dup5\n        /* \"#utility.yul\":4671:4682   */\n      sload\n        /* \"#utility.yul\":4643:4734   */\n      tag_53\n      jump\t// in\n    tag_117:\n        /* \"#utility.yul\":4637:4641   */\n      dup3\n        /* \"#utility.yul\":4630:4735   */\n      sstore\n        /* \"#utility.yul\":4548:4741   */\n      pop\n        /* \"#utility.yul\":4472:4741   */\n      pop\n      pop\n      pop\n      jump\t// out\n        /* \"#utility.yul\":4747:4820   */\n    tag_58:\n        /* \"#utility.yul\":4792:4795   */\n      0x00\n        /* \"#utility.yul\":4747:4820   */\n      swap1\n      jump\t// out\n        /* \"#utility.yul\":4826:5015   */\n    tag_59:\n        /* \"#utility.yul\":4903:4935   */\n      tag_121\n      tag_58\n      jump\t// in\n    tag_121:\n        /* \"#utility.yul\":4944:5009   */\n      tag_122\n        /* \"#utility.yul\":5002:5008   */\n      dup2\n        /* \"#utility.yul\":4994:5000   */\n      dup5\n        /* \"#utility.yul\":4988:4992   */\n      dup5\n        /* \"#utility.yul\":4944:5009   */\n      tag_57\n      jump\t// in\n    tag_122:\n        /* \"#utility.yul\":4879:5015   */\n      pop\n        /* \"#utility.yul\":4826:5015   */\n      pop\n      pop\n      jump\t// out\n        /* \"#utility.yul\":5021:5235   */\n    tag_60:\n        /* \"#utility.yul\":5106:5107   */\n      0x00\n        /* \"#utility.yul\":5091:5229   */\n    tag_124:\n        /* \"#utility.yul\":5116:5125   */\n      dup3\n        /* \"#utility.yul\":5113:5114   */\n      dup2\n        /* \"#utility.yul\":5110:5126   */\n      lt\n        /* \"#utility.yul\":5091:5229   */\n      iszero\n      tag_126\n      jumpi\n        /* \"#utility.yul\":5168:5219   */\n      tag_127\n        /* \"#utility.yul\":5217:5218   */\n      0x00\n        /* \"#utility.yul\":5213:5214   */\n      dup3\n        /* \"#utility.yul\":5202:5211   */\n      dup5\n        /* \"#utility.yul\":5198:5215   */\n      add\n        /* \"#utility.yul\":5168:5219   */\n      tag_59\n      jump\t// in\n    tag_127:\n        /* \"#utility.yul\":5141:5142   */\n      0x01\n        /* \"#utility.yul\":5138:5139   */\n      dup2\n        /* \"#utility.yul\":5134:5143   */\n      add\n        /* \"#utility.yul\":5129:5143   */\n      swap1\n      pop\n        /* \"#utility.yul\":5091:5229   */\n      jump(tag_124)\n    tag_126:\n        /* \"#utility.yul\":5095:5109   */\n      pop\n        /* \"#utility.yul\":5021:5235   */\n      pop\n      pop\n      jump\t// out\n        /* \"#utility.yul\":5241:5987   */\n    tag_61:\n        /* \"#utility.yul\":5342:5344   */\n      0x1f\n        /* \"#utility.yul\":5337:5340   */\n      dup3\n        /* \"#utility.yul\":5334:5345   */\n      gt\n        /* \"#utility.yul\":5331:5980   */\n      iszero\n      tag_129\n      jumpi\n        /* \"#utility.yul\":5371:5381   */\n      dup3\n        /* \"#utility.yul\":5366:5369   */\n      dup3\n        /* \"#utility.yul\":5363:5382   */\n      gt\n        /* \"#utility.yul\":5360:5970   */\n      iszero\n      tag_130\n      jumpi\n        /* \"#utility.yul\":5417:5455   */\n      tag_131\n        /* \"#utility.yul\":5449:5454   */\n      dup2\n        /* \"#utility.yul\":5417:5455   */\n      tag_50\n      jump\t// in\n    tag_131:\n        /* \"#utility.yul\":5492:5514   */\n      tag_132\n        /* \"#utility.yul\":5510:5513   */\n      dup4\n        /* \"#utility.yul\":5492:5514   */\n      tag_51\n      jump\t// in\n    tag_132:\n        /* \"#utility.yul\":5551:5580   */\n      tag_133\n        /* \"#utility.yul\":5569:5579   */\n      dup6\n        /* \"#utility.yul\":5551:5580   */\n      tag_51\n      jump\t// in\n    tag_133:\n        /* \"#utility.yul\":5741:5743   */\n      0x20\n        /* \"#utility.yul\":5729:5739   */\n      dup7\n        /* \"#utility.yul\":5726:5744   */\n      lt\n        /* \"#utility.yul\":5723:5802   */\n      iszero\n      tag_134\n      jumpi\n        /* \"#utility.yul\":5783:5784   */\n      0x00\n        /* \"#utility.yul\":5767:5784   */\n      swap1\n      pop\n        /* \"#utility.yul\":5723:5802   */\n    tag_134:\n        /* \"#utility.yul\":5852:5864   */\n      dup1\n        /* \"#utility.yul\":5842:5850   */\n      dup4\n        /* \"#utility.yul\":5838:5865   */\n      add\n        /* \"#utility.yul\":5882:5956   */\n      tag_135\n        /* \"#utility.yul\":5942:5954   */\n      dup3\n        /* \"#utility.yul\":5928:5940   */\n      dup5\n        /* \"#utility.yul\":5924:5955   */\n      sub\n        /* \"#utility.yul\":5911:5922   */\n      dup3\n        /* \"#utility.yul\":5882:5956   */\n      tag_60\n      jump\t// in\n    tag_135:\n        /* \"#utility.yul\":5383:5970   */\n      pop\n      pop\n      pop\n      pop\n        /* \"#utility.yul\":5360:5970   */\n    tag_130:\n        /* \"#utility.yul\":5331:5980   */\n    tag_129:\n        /* \"#utility.yul\":5241:5987   */\n      pop\n      pop\n      pop\n      jump\t// out\n        /* \"#utility.yul\":5993:6110   */\n    tag_62:\n        /* \"#utility.yul\":6047:6055   */\n      0x00\n        /* \"#utility.yul\":6097:6102   */\n      dup3\n        /* \"#utility.yul\":6091:6095   */\n      dup3\n        /* \"#utility.yul\":6087:6103   */\n      shr\n        /* \"#utility.yul\":6066:6103   */\n      swap1\n      pop\n        /* \"#utility.yul\":5993:6110   */\n      swap3\n      swap2\n      pop\n      pop\n      jump\t// out\n        /* \"#utility.yul\":6116:6285   */\n    tag_63:\n        /* \"#utility.yul\":6160:6166   */\n      0x00\n        /* \"#utility.yul\":6193:6244   */\n      tag_138\n        /* \"#utility.yul\":6241:6242   */\n      0x00\n        /* \"#utility.yul\":6237:6243   */\n      not\n        /* \"#utility.yul\":6229:6234   */\n      dup5\n        /* \"#utility.yul\":6226:6227   */\n      0x08\n        /* \"#utility.yul\":6222:6235   */\n      mul\n        /* \"#utility.yul\":6193:6244   */\n      tag_62\n      jump\t// in\n    tag_138:\n        /* \"#utility.yul\":6189:6245   */\n      not\n        /* \"#utility.yul\":6274:6278   */\n      dup1\n        /* \"#utility.yul\":6268:6272   */\n      dup4\n        /* \"#utility.yul\":6264:6279   */\n      and\n        /* \"#utility.yul\":6254:6279   */\n      swap2\n      pop\n        /* \"#utility.yul\":6167:6285   */\n      pop\n        /* \"#utility.yul\":6116:6285   */\n      swap3\n      swap2\n      pop\n      pop\n      jump\t// out\n        /* \"#utility.yul\":6290:6585   */\n    tag_64:\n        /* \"#utility.yul\":6366:6370   */\n      0x00\n        /* \"#utility.yul\":6512:6541   */\n      tag_140\n        /* \"#utility.yul\":6537:6540   */\n      dup4\n        /* \"#utility.yul\":6531:6535   */\n      dup4\n        /* \"#utility.yul\":6512:6541   */\n      tag_63\n      jump\t// in\n    tag_140:\n        /* \"#utility.yul\":6504:6541   */\n      swap2\n      pop\n        /* \"#utility.yul\":6574:6577   */\n      dup3\n        /* \"#utility.yul\":6571:6572   */\n      0x02\n        /* \"#utility.yul\":6567:6578   */\n      mul\n        /* \"#utility.yul\":6561:6565   */\n      dup3\n        /* \"#utility.yul\":6558:6579   */\n      or\n        /* \"#utility.yul\":6550:6579   */\n      swap1\n      pop\n        /* \"#utility.yul\":6290:6585   */\n      swap3\n      swap2\n      pop\n      pop\n      jump\t// out\n        /* \"#utility.yul\":6590:7985   */\n    tag_22:\n        /* \"#utility.yul\":6707:6744   */\n      tag_142\n        /* \"#utility.yul\":6740:6743   */\n      dup3\n        /* \"#utility.yul\":6707:6744   */\n      tag_42\n      jump\t// in\n    tag_142:\n        /* \"#utility.yul\":6809:6827   */\n      0xffffffffffffffff\n        /* \"#utility.yul\":6801:6807   */\n      dup2\n        /* \"#utility.yul\":6798:6828   */\n      gt\n        /* \"#utility.yul\":6795:6851   */\n      iszero\n      tag_143\n      jumpi\n        /* \"#utility.yul\":6831:6849   */\n      tag_144\n      tag_48\n      jump\t// in\n    tag_144:\n        /* \"#utility.yul\":6795:6851   */\n    tag_143:\n        /* \"#utility.yul\":6875:6913   */\n      tag_145\n        /* \"#utility.yul\":6907:6911   */\n      dup3\n        /* \"#utility.yul\":6901:6912   */\n      sload\n        /* \"#utility.yul\":6875:6913   */\n      tag_26\n      jump\t// in\n    tag_145:\n        /* \"#utility.yul\":6960:7027   */\n      tag_146\n        /* \"#utility.yul\":7020:7026   */\n      dup3\n        /* \"#utility.yul\":7012:7018   */\n      dup3\n        /* \"#utility.yul\":7006:7010   */\n      dup6\n        /* \"#utility.yul\":6960:7027   */\n      tag_61\n      jump\t// in\n    tag_146:\n        /* \"#utility.yul\":7054:7055   */\n      0x00\n        /* \"#utility.yul\":7078:7082   */\n      0x20\n        /* \"#utility.yul\":7065:7082   */\n      swap1\n      pop\n        /* \"#utility.yul\":7110:7112   */\n      0x1f\n        /* \"#utility.yul\":7102:7108   */\n      dup4\n        /* \"#utility.yul\":7099:7113   */\n      gt\n        /* \"#utility.yul\":7127:7128   */\n      0x01\n        /* \"#utility.yul\":7122:7740   */\n      dup2\n      eq\n      tag_148\n      jumpi\n        /* \"#utility.yul\":7784:7785   */\n      0x00\n        /* \"#utility.yul\":7801:7807   */\n      dup5\n        /* \"#utility.yul\":7798:7875   */\n      iszero\n      tag_149\n      jumpi\n        /* \"#utility.yul\":7850:7859   */\n      dup3\n        /* \"#utility.yul\":7845:7848   */\n      dup8\n        /* \"#utility.yul\":7841:7860   */\n      add\n        /* \"#utility.yul\":7835:7861   */\n      mload\n        /* \"#utility.yul\":7826:7861   */\n      swap1\n      pop\n        /* \"#utility.yul\":7798:7875   */\n    tag_149:\n        /* \"#utility.yul\":7901:7968   */\n      tag_150\n        /* \"#utility.yul\":7961:7967   */\n      dup6\n        /* \"#utility.yul\":7954:7959   */\n      dup3\n        /* \"#utility.yul\":7901:7968   */\n      tag_64\n      jump\t// in\n    tag_150:\n        /* \"#utility.yul\":7895:7899   */\n      dup7\n        /* \"#utility.yul\":7888:7969   */\n      sstore\n        /* \"#utility.yul\":7757:7979   */\n      pop\n        /* \"#utility.yul\":7092:7979   */\n      jump(tag_147)\n        /* \"#utility.yul\":7122:7740   */\n    tag_148:\n        /* \"#utility.yul\":7174:7178   */\n      0x1f\n        /* \"#utility.yul\":7170:7179   */\n      not\n        /* \"#utility.yul\":7162:7168   */\n      dup5\n        /* \"#utility.yul\":7158:7180   */\n      and\n        /* \"#utility.yul\":7208:7245   */\n      tag_151\n        /* \"#utility.yul\":7240:7244   */\n      dup7\n        /* \"#utility.yul\":7208:7245   */\n      tag_50\n      jump\t// in\n    tag_151:\n        /* \"#utility.yul\":7267:7268   */\n      0x00\n        /* \"#utility.yul\":7281:7489   */\n    tag_152:\n        /* \"#utility.yul\":7295:7302   */\n      dup3\n        /* \"#utility.yul\":7292:7293   */\n      dup2\n        /* \"#utility.yul\":7289:7303   */\n      lt\n        /* \"#utility.yul\":7281:7489   */\n      iszero\n      tag_154\n      jumpi\n        /* \"#utility.yul\":7374:7383   */\n      dup5\n        /* \"#utility.yul\":7369:7372   */\n      dup10\n        /* \"#utility.yul\":7365:7384   */\n      add\n        /* \"#utility.yul\":7359:7385   */\n      mload\n        /* \"#utility.yul\":7351:7357   */\n      dup3\n        /* \"#utility.yul\":7344:7386   */\n      sstore\n        /* \"#utility.yul\":7425:7426   */\n      0x01\n        /* \"#utility.yul\":7417:7423   */\n      dup3\n        /* \"#utility.yul\":7413:7427   */\n      add\n        /* \"#utility.yul\":7403:7427   */\n      swap2\n      pop\n        /* \"#utility.yul\":7472:7474   */\n      0x20\n        /* \"#utility.yul\":7461:7470   */\n      dup6\n        /* \"#utility.yul\":7457:7475   */\n      add\n        /* \"#utility.yul\":7444:7475   */\n      swap5\n      pop\n        /* \"#utility.yul\":7318:7322   */\n      0x20\n        /* \"#utility.yul\":7315:7316   */\n      dup2\n        /* \"#utility.yul\":7311:7323   */\n      add\n        /* \"#utility.yul\":7306:7323   */\n      swap1\n      pop\n        /* \"#utility.yul\":7281:7489   */\n      jump(tag_152)\n    tag_154:\n        /* \"#utility.yul\":7517:7523   */\n      dup7\n        /* \"#utility.yul\":7508:7515   */\n      dup4\n        /* \"#utility.yul\":7505:7524   */\n      lt\n        /* \"#utility.yul\":7502:7681   */\n      iszero\n      tag_155\n      jumpi\n        /* \"#utility.yul\":7575:7584   */\n      dup5\n        /* \"#utility.yul\":7570:7573   */\n      dup10\n        /* \"#utility.yul\":7566:7585   */\n      add\n        /* \"#utility.yul\":7560:7586   */\n      mload\n        /* \"#utility.yul\":7618:7666   */\n      tag_156\n        /* \"#utility.yul\":7660:7664   */\n      0x1f\n        /* \"#utility.yul\":7652:7658   */\n      dup10\n        /* \"#utility.yul\":7648:7665   */\n      and\n        /* \"#utility.yul\":7637:7646   */\n      dup3\n        /* \"#utility.yul\":7618:7666   */\n      tag_63\n      jump\t// in\n    tag_156:\n        /* \"#utility.yul\":7610:7616   */\n      dup4\n        /* \"#utility.yul\":7603:7667   */\n      sstore\n        /* \"#utility.yul\":7525:7681   */\n      pop\n        /* \"#utility.yul\":7502:7681   */\n    tag_155:\n        /* \"#utility.yul\":7727:7728   */\n      0x01\n        /* \"#utility.yul\":7723:7724   */\n      0x02\n        /* \"#utility.yul\":7715:7721   */\n      dup9\n        /* \"#utility.yul\":7711:7725   */\n      mul\n        /* \"#utility.yul\":7707:7729   */\n      add\n        /* \"#utility.yul\":7701:7705   */\n      dup9\n        /* \"#utility.yul\":7694:7730   */\n      sstore\n        /* \"#utility.yul\":7129:7740   */\n      pop\n      pop\n      pop\n        /* \"#utility.yul\":7092:7979   */\n    tag_147:\n      pop\n        /* \"#utility.yul\":6682:7985   */\n      pop\n      pop\n      pop\n        /* \"#utility.yul\":6590:7985   */\n      pop\n      pop\n      jump\t// out\n\n    auxdata: 0xa2646970667358221220a7e7e99cd26c49ede273f1ace4cf352652770fa239a224ef8eb198ac47bd2b5364736f6c63430008220033\n}\n",
				"bytecode": {
					"linkReferences": {},
					"object": "60806040526005600055348015601457600080fd5b50610708806100246000396000f3fe608060405234801561001057600080fd5b50600436106100415760003560e01c80630ad2b73914610046578063c261fa3614610076578063f68ff8e814610094575b600080fd5b610060600480360381019061005b91906102a9565b6100b2565b60405161006d9190610366565b60405180910390f35b61007e6101da565b60405161008b9190610366565b60405180910390f35b61009c610268565b6040516100a99190610397565b60405180910390f35b606060058214610105576040518060400160405280600481526020017f626f6c6f00000000000000000000000000000000000000000000000000000000815250600190816101009190610600565b61014a565b6040518060400160405280600581526020017f68656c6c6f000000000000000000000000000000000000000000000000000000815250600190816101499190610600565b5b805461015590610410565b80601f016020809104026020016040519081016040528092919081815260200182805461018190610410565b80156101ce5780601f106101a3576101008083540402835291602001916101ce565b820191906000526020600020905b8154815290600101906020018083116101b157829003601f168201915b50505050509050919050565b600180546101e790610410565b80601f016020809104026020016040519081016040528092919081815260200182805461021390610410565b80156102605780601f1061023557610100808354040283529160200191610260565b820191906000526020600020905b81548152906001019060200180831161024357829003601f168201915b505050505081565b60005481565b600080fd5b6000819050919050565b61028681610273565b811461029157600080fd5b50565b6000813590506102a38161027d565b92915050565b6000602082840312156102bf576102be61026e565b5b60006102cd84828501610294565b91505092915050565b600081519050919050565b600082825260208201905092915050565b60005b838110156103105780820151818401526020810190506102f5565b60008484015250505050565b6000601f19601f8301169050919050565b6000610338826102d6565b61034281856102e1565b93506103528185602086016102f2565b61035b8161031c565b840191505092915050565b60006020820190508181036000830152610380818461032d565b905092915050565b61039181610273565b82525050565b60006020820190506103ac6000830184610388565b92915050565b7f4e487b7100000000000000000000000000000000000000000000000000000000600052604160045260246000fd5b7f4e487b7100000000000000000000000000000000000000000000000000000000600052602260045260246000fd5b6000600282049050600182168061042857607f821691505b60208210810361043b5761043a6103e1565b5b50919050565b60008190508160005260206000209050919050565b60006020601f8301049050919050565b600082821b905092915050565b6000600883026104a37fffffffffffffffffffffffffffffffffffffffffffffffffffffffffffffffff82610466565b6104ad8683610466565b95508019841693508086168417925050509392505050565b6000819050919050565b60006104ea6104e56104e084610273565b6104c5565b610273565b9050919050565b6000819050919050565b610504836104cf565b610518610510826104f1565b848454610473565b825550505050565b600090565b61052d610520565b6105388184846104fb565b505050565b60005b82811015610560576105556000828401610525565b600181019050610540565b505050565b601f8211156105b457828211156105b35761057f81610441565b61058883610456565b61059185610456565b602086101561059f57600090505b8083016105ae8284038261053d565b505050505b5b505050565b600082821c905092915050565b60006105d7600019846008026105b9565b1980831691505092915050565b60006105f083836105c6565b9150826002028217905092915050565b610609826102d6565b67ffffffffffffffff811115610622576106216103b2565b5b61062c8254610410565b610637828285610565565b600060209050601f83116001811461066a5760008415610658578287015190505b61066285826105e4565b8655506106ca565b601f19841661067886610441565b60005b828110156106a05784890151825560018201915060208501945060208101905061067b565b868310156106bd57848901516106b9601f8916826105c6565b8355505b6001600288020188555050505b50505050505056fea2646970667358221220a7e7e99cd26c49ede273f1ace4cf352652770fa239a224ef8eb198ac47bd2b5364736f6c63430008220033",
					"opcodes": "PUSH1 0x80 PUSH1 0x40 MSTORE PUSH1 0x5 PUSH1 0x0 SSTORE CALLVALUE DUP1 ISZERO PUSH1 0x14 JUMPI PUSH1 0x0 DUP1 REVERT JUMPDEST POP PUSH2 0x708 DUP1 PUSH2 0x24 PUSH1 0x0 CODECOPY PUSH1 0x0 RETURN INVALID PUSH1 0x80 PUSH1 0x40 MSTORE CALLVALUE DUP1 ISZERO PUSH2 0x10 JUMPI PUSH1 0x0 DUP1 REVERT JUMPDEST POP PUSH1 0x4 CALLDATASIZE LT PUSH2 0x41 JUMPI PUSH1 0x0 CALLDATALOAD PUSH1 0xE0 SHR DUP1 PUSH4 0xAD2B739 EQ PUSH2 0x46 JUMPI DUP1 PUSH4 0xC261FA36 EQ PUSH2 0x76 JUMPI DUP1 PUSH4 0xF68FF8E8 EQ PUSH2 0x94 JUMPI JUMPDEST PUSH1 0x0 DUP1 REVERT JUMPDEST PUSH2 0x60 PUSH1 0x4 DUP1 CALLDATASIZE SUB DUP2 ADD SWAP1 PUSH2 0x5B SWAP2 SWAP1 PUSH2 0x2A9 JUMP JUMPDEST PUSH2 0xB2 JUMP JUMPDEST PUSH1 0x40 MLOAD PUSH2 0x6D SWAP2 SWAP1 PUSH2 0x366 JUMP JUMPDEST PUSH1 0x40 MLOAD DUP1 SWAP2 SUB SWAP1 RETURN JUMPDEST PUSH2 0x7E PUSH2 0x1DA JUMP JUMPDEST PUSH1 0x40 MLOAD PUSH2 0x8B SWAP2 SWAP1 PUSH2 0x366 JUMP JUMPDEST PUSH1 0x40 MLOAD DUP1 SWAP2 SUB SWAP1 RETURN JUMPDEST PUSH2 0x9C PUSH2 0x268 JUMP JUMPDEST PUSH1 0x40 MLOAD PUSH2 0xA9 SWAP2 SWAP1 PUSH2 0x397 JUMP JUMPDEST PUSH1 0x40 MLOAD DUP1 SWAP2 SUB SWAP1 RETURN JUMPDEST PUSH1 0x60 PUSH1 0x5 DUP3 EQ PUSH2 0x105 JUMPI PUSH1 0x40 MLOAD DUP1 PUSH1 0x40 ADD PUSH1 0x40 MSTORE DUP1 PUSH1 0x4 DUP2 MSTORE PUSH1 0x20 ADD PUSH32 0x626F6C6F00000000000000000000000000000000000000000000000000000000 DUP2 MSTORE POP PUSH1 0x1 SWAP1 DUP2 PUSH2 0x100 SWAP2 SWAP1 PUSH2 0x600 JUMP JUMPDEST PUSH2 0x14A JUMP JUMPDEST PUSH1 0x40 MLOAD DUP1 PUSH1 0x40 ADD PUSH1 0x40 MSTORE DUP1 PUSH1 0x5 DUP2 MSTORE PUSH1 0x20 ADD PUSH32 0x68656C6C6F000000000000000000000000000000000000000000000000000000 DUP2 MSTORE POP PUSH1 0x1 SWAP1 DUP2 PUSH2 0x149 SWAP2 SWAP1 PUSH2 0x600 JUMP JUMPDEST JUMPDEST DUP1 SLOAD PUSH2 0x155 SWAP1 PUSH2 0x410 JUMP JUMPDEST DUP1 PUSH1 0x1F ADD PUSH1 0x20 DUP1 SWAP2 DIV MUL PUSH1 0x20 ADD PUSH1 0x40 MLOAD SWAP1 DUP2 ADD PUSH1 0x40 MSTORE DUP1 SWAP3 SWAP2 SWAP1 DUP2 DUP2 MSTORE PUSH1 0x20 ADD DUP3 DUP1 SLOAD PUSH2 0x181 SWAP1 PUSH2 0x410 JUMP JUMPDEST DUP1 ISZERO PUSH2 0x1CE JUMPI DUP1 PUSH1 0x1F LT PUSH2 0x1A3 JUMPI PUSH2 0x100 DUP1 DUP4 SLOAD DIV MUL DUP4 MSTORE SWAP2 PUSH1 0x20 ADD SWAP2 PUSH2 0x1CE JUMP JUMPDEST DUP3 ADD SWAP2 SWAP1 PUSH1 0x0 MSTORE PUSH1 0x20 PUSH1 0x0 KECCAK256 SWAP1 JUMPDEST DUP2 SLOAD DUP2 MSTORE SWAP1 PUSH1 0x1 ADD SWAP1 PUSH1 0x20 ADD DUP1 DUP4 GT PUSH2 0x1B1 JUMPI DUP3 SWAP1 SUB PUSH1 0x1F AND DUP3 ADD SWAP2 JUMPDEST POP POP POP POP POP SWAP1 POP SWAP2 SWAP1 POP JUMP JUMPDEST PUSH1 0x1 DUP1 SLOAD PUSH2 0x1E7 SWAP1 PUSH2 0x410 JUMP JUMPDEST DUP1 PUSH1 0x1F ADD PUSH1 0x20 DUP1 SWAP2 DIV MUL PUSH1 0x20 ADD PUSH1 0x40 MLOAD SWAP1 DUP2 ADD PUSH1 0x40 MSTORE DUP1 SWAP3 SWAP2 SWAP1 DUP2 DUP2 MSTORE PUSH1 0x20 ADD DUP3 DUP1 SLOAD PUSH2 0x213 SWAP1 PUSH2 0x410 JUMP JUMPDEST DUP1 ISZERO PUSH2 0x260 JUMPI DUP1 PUSH1 0x1F LT PUSH2 0x235 JUMPI PUSH2 0x100 DUP1 DUP4 SLOAD DIV MUL DUP4 MSTORE SWAP2 PUSH1 0x20 ADD SWAP2 PUSH2 0x260 JUMP JUMPDEST DUP3 ADD SWAP2 SWAP1 PUSH1 0x0 MSTORE PUSH1 0x20 PUSH1 0x0 KECCAK256 SWAP1 JUMPDEST DUP2 SLOAD DUP2 MSTORE SWAP1 PUSH1 0x1 ADD SWAP1 PUSH1 0x20 ADD DUP1 DUP4 GT PUSH2 0x243 JUMPI DUP3 SWAP1 SUB PUSH1 0x1F AND DUP3 ADD SWAP2 JUMPDEST POP POP POP POP POP DUP2 JUMP JUMPDEST PUSH1 0x0 SLOAD DUP2 JUMP JUMPDEST PUSH1 0x0 DUP1 REVERT JUMPDEST PUSH1 0x0 DUP2 SWAP1 POP SWAP2 SWAP1 POP JUMP JUMPDEST PUSH2 0x286 DUP2 PUSH2 0x273 JUMP JUMPDEST DUP2 EQ PUSH2 0x291 JUMPI PUSH1 0x0 DUP1 REVERT JUMPDEST POP JUMP JUMPDEST PUSH1 0x0 DUP2 CALLDATALOAD SWAP1 POP PUSH2 0x2A3 DUP2 PUSH2 0x27D JUMP JUMPDEST SWAP3 SWAP2 POP POP JUMP JUMPDEST PUSH1 0x0 PUSH1 0x20 DUP3 DUP5 SUB SLT ISZERO PUSH2 0x2BF JUMPI PUSH2 0x2BE PUSH2 0x26E JUMP JUMPDEST JUMPDEST PUSH1 0x0 PUSH2 0x2CD DUP5 DUP3 DUP6 ADD PUSH2 0x294 JUMP JUMPDEST SWAP2 POP POP SWAP3 SWAP2 POP POP JUMP JUMPDEST PUSH1 0x0 DUP2 MLOAD SWAP1 POP SWAP2 SWAP1 POP JUMP JUMPDEST PUSH1 0x0 DUP3 DUP3 MSTORE PUSH1 0x20 DUP3 ADD SWAP1 POP SWAP3 SWAP2 POP POP JUMP JUMPDEST PUSH1 0x0 JUMPDEST DUP4 DUP2 LT ISZERO PUSH2 0x310 JUMPI DUP1 DUP3 ADD MLOAD DUP2 DUP5 ADD MSTORE PUSH1 0x20 DUP2 ADD SWAP1 POP PUSH2 0x2F5 JUMP JUMPDEST PUSH1 0x0 DUP5 DUP5 ADD MSTORE POP POP POP POP JUMP JUMPDEST PUSH1 0x0 PUSH1 0x1F NOT PUSH1 0x1F DUP4 ADD AND SWAP1 POP SWAP2 SWAP1 POP JUMP JUMPDEST PUSH1 0x0 PUSH2 0x338 DUP3 PUSH2 0x2D6 JUMP JUMPDEST PUSH2 0x342 DUP2 DUP6 PUSH2 0x2E1 JUMP JUMPDEST SWAP4 POP PUSH2 0x352 DUP2 DUP6 PUSH1 0x20 DUP7 ADD PUSH2 0x2F2 JUMP JUMPDEST PUSH2 0x35B DUP2 PUSH2 0x31C JUMP JUMPDEST DUP5 ADD SWAP2 POP POP SWAP3 SWAP2 POP POP JUMP JUMPDEST PUSH1 0x0 PUSH1 0x20 DUP3 ADD SWAP1 POP DUP2 DUP2 SUB PUSH1 0x0 DUP4 ADD MSTORE PUSH2 0x380 DUP2 DUP5 PUSH2 0x32D JUMP JUMPDEST SWAP1 POP SWAP3 SWAP2 POP POP JUMP JUMPDEST PUSH2 0x391 DUP2 PUSH2 0x273 JUMP JUMPDEST DUP3 MSTORE POP POP JUMP JUMPDEST PUSH1 0x0 PUSH1 0x20 DUP3 ADD SWAP1 POP PUSH2 0x3AC PUSH1 0x0 DUP4 ADD DUP5 PUSH2 0x388 JUMP JUMPDEST SWAP3 SWAP2 POP POP JUMP JUMPDEST PUSH32 0x4E487B7100000000000000000000000000000000000000000000000000000000 PUSH1 0x0 MSTORE PUSH1 0x41 PUSH1 0x4 MSTORE PUSH1 0x24 PUSH1 0x0 REVERT JUMPDEST PUSH32 0x4E487B7100000000000000000000000000000000000000000000000000000000 PUSH1 0x0 MSTORE PUSH1 0x22 PUSH1 0x4 MSTORE PUSH1 0x24 PUSH1 0x0 REVERT JUMPDEST PUSH1 0x0 PUSH1 0x2 DUP3 DIV SWAP1 POP PUSH1 0x1 DUP3 AND DUP1 PUSH2 0x428 JUMPI PUSH1 0x7F DUP3 AND SWAP2 POP JUMPDEST PUSH1 0x20 DUP3 LT DUP2 SUB PUSH2 0x43B JUMPI PUSH2 0x43A PUSH2 0x3E1 JUMP JUMPDEST JUMPDEST POP SWAP2 SWAP1 POP JUMP JUMPDEST PUSH1 0x0 DUP2 SWAP1 POP DUP2 PUSH1 0x0 MSTORE PUSH1 0x20 PUSH1 0x0 KECCAK256 SWAP1 POP SWAP2 SWAP1 POP JUMP JUMPDEST PUSH1 0x0 PUSH1 0x20 PUSH1 0x1F DUP4 ADD DIV SWAP1 POP SWAP2 SWAP1 POP JUMP JUMPDEST PUSH1 0x0 DUP3 DUP3 SHL SWAP1 POP SWAP3 SWAP2 POP POP JUMP JUMPDEST PUSH1 0x0 PUSH1 0x8 DUP4 MUL PUSH2 0x4A3 PUSH32 0xFFFFFFFFFFFFFFFFFFFFFFFFFFFFFFFFFFFFFFFFFFFFFFFFFFFFFFFFFFFFFFFF DUP3 PUSH2 0x466 JUMP JUMPDEST PUSH2 0x4AD DUP7 DUP4 PUSH2 0x466 JUMP JUMPDEST SWAP6 POP DUP1 NOT DUP5 AND SWAP4 POP DUP1 DUP7 AND DUP5 OR SWAP3 POP POP POP SWAP4 SWAP3 POP POP POP JUMP JUMPDEST PUSH1 0x0 DUP2 SWAP1 POP SWAP2 SWAP1 POP JUMP JUMPDEST PUSH1 0x0 PUSH2 0x4EA PUSH2 0x4E5 PUSH2 0x4E0 DUP5 PUSH2 0x273 JUMP JUMPDEST PUSH2 0x4C5 JUMP JUMPDEST PUSH2 0x273 JUMP JUMPDEST SWAP1 POP SWAP2 SWAP1 POP JUMP JUMPDEST PUSH1 0x0 DUP2 SWAP1 POP SWAP2 SWAP1 POP JUMP JUMPDEST PUSH2 0x504 DUP4 PUSH2 0x4CF JUMP JUMPDEST PUSH2 0x518 PUSH2 0x510 DUP3 PUSH2 0x4F1 JUMP JUMPDEST DUP5 DUP5 SLOAD PUSH2 0x473 JUMP JUMPDEST DUP3 SSTORE POP POP POP POP JUMP JUMPDEST PUSH1 0x0 SWAP1 JUMP JUMPDEST PUSH2 0x52D PUSH2 0x520 JUMP JUMPDEST PUSH2 0x538 DUP2 DUP5 DUP5 PUSH2 0x4FB JUMP JUMPDEST POP POP POP JUMP JUMPDEST PUSH1 0x0 JUMPDEST DUP3 DUP2 LT ISZERO PUSH2 0x560 JUMPI PUSH2 0x555 PUSH1 0x0 DUP3 DUP5 ADD PUSH2 0x525 JUMP JUMPDEST PUSH1 0x1 DUP2 ADD SWAP1 POP PUSH2 0x540 JUMP JUMPDEST POP POP POP JUMP JUMPDEST PUSH1 0x1F DUP3 GT ISZERO PUSH2 0x5B4 JUMPI DUP3 DUP3 GT ISZERO PUSH2 0x5B3 JUMPI PUSH2 0x57F DUP2 PUSH2 0x441 JUMP JUMPDEST PUSH2 0x588 DUP4 PUSH2 0x456 JUMP JUMPDEST PUSH2 0x591 DUP6 PUSH2 0x456 JUMP JUMPDEST PUSH1 0x20 DUP7 LT ISZERO PUSH2 0x59F JUMPI PUSH1 0x0 SWAP1 POP JUMPDEST DUP1 DUP4 ADD PUSH2 0x5AE DUP3 DUP5 SUB DUP3 PUSH2 0x53D JUMP JUMPDEST POP POP POP POP JUMPDEST JUMPDEST POP POP POP JUMP JUMPDEST PUSH1 0x0 DUP3 DUP3 SHR SWAP1 POP SWAP3 SWAP2 POP POP JUMP JUMPDEST PUSH1 0x0 PUSH2 0x5D7 PUSH1 0x0 NOT DUP5 PUSH1 0x8 MUL PUSH2 0x5B9 JUMP JUMPDEST NOT DUP1 DUP4 AND SWAP2 POP POP SWAP3 SWAP2 POP POP JUMP JUMPDEST PUSH1 0x0 PUSH2 0x5F0 DUP4 DUP4 PUSH2 0x5C6 JUMP JUMPDEST SWAP2 POP DUP3 PUSH1 0x2 MUL DUP3 OR SWAP1 POP SWAP3 SWAP2 POP POP JUMP JUMPDEST PUSH2 0x609 DUP3 PUSH2 0x2D6 JUMP JUMPDEST PUSH8 0xFFFFFFFFFFFFFFFF DUP2 GT ISZERO PUSH2 0x622 JUMPI PUSH2 0x621 PUSH2 0x3B2 JUMP JUMPDEST JUMPDEST PUSH2 0x62C DUP3 SLOAD PUSH2 0x410 JUMP JUMPDEST PUSH2 0x637 DUP3 DUP3 DUP6 PUSH2 0x565 JUMP JUMPDEST PUSH1 0x0 PUSH1 0x20 SWAP1 POP PUSH1 0x1F DUP4 GT PUSH1 0x1 DUP2 EQ PUSH2 0x66A JUMPI PUSH1 0x0 DUP5 ISZERO PUSH2 0x658 JUMPI DUP3 DUP8 ADD MLOAD SWAP1 POP JUMPDEST PUSH2 0x662 DUP6 DUP3 PUSH2 0x5E4 JUMP JUMPDEST DUP7 SSTORE POP PUSH2 0x6CA JUMP JUMPDEST PUSH1 0x1F NOT DUP5 AND PUSH2 0x678 DUP7 PUSH2 0x441 JUMP JUMPDEST PUSH1 0x0 JUMPDEST DUP3 DUP2 LT ISZERO PUSH2 0x6A0 JUMPI DUP5 DUP10 ADD MLOAD DUP3 SSTORE PUSH1 0x1 DUP3 ADD SWAP2 POP PUSH1 0x20 DUP6 ADD SWAP5 POP PUSH1 0x20 DUP2 ADD SWAP1 POP PUSH2 0x67B JUMP JUMPDEST DUP7 DUP4 LT ISZERO PUSH2 0x6BD JUMPI DUP5 DUP10 ADD MLOAD PUSH2 0x6B9 PUSH1 0x1F DUP10 AND DUP3 PUSH2 0x5C6 JUMP JUMPDEST DUP4 SSTORE POP JUMPDEST PUSH1 0x1 PUSH1 0x2 DUP9 MUL ADD DUP9 SSTORE POP POP POP JUMPDEST POP POP POP POP POP POP JUMP INVALID LOG2 PUSH5 0x6970667358 0x22 SLT KECCAK256 0xA7 SWAPN 0xE9 SWAP13 0xD2 PUSH13 0x49EDE273F1ACE4CF352652770F LOG2 CODECOPY LOG2 0x24 0xEF DUP15 0xB1 SWAP9 0xAC SELFBALANCE 0xBD 0x2B MSTORE8 PUSH5 0x736F6C6343 STOP ADDMOD 0x22 STOP CALLER "
				},
				"gasEstimates": {
					"creation": {
						"codeDepositCost": "360000",
						"executionCost": "22505",
						"totalCost": "382505"
					},
					"external": {
						"getdata(uint256)": "infinite",
						"mynum()": "2451",
						"mystring()": "infinite"
					}
				},
				"methodIdentifiers": {
					"getdata(uint256)": "0ad2b739",
					"mynum()": "f68ff8e8",
					"mystring()": "c261fa36"
				}
			},
			"storageLayout": {
				"storage": [
					{
						"astId": 4,
						"contract": "Ifelse.sol:Ifelse",
						"label": "mynum",
						"offset": 0,
						"slot": "0",
						"type": "t_uint256"
					},
					{
						"astId": 6,
						"contract": "Ifelse.sol:Ifelse",
						"label": "mystring",
						"offset": 0,
						"slot": "1",
						"type": "t_string_storage"
					}
				],
				"types": {
					"t_string_storage": {
						"encoding": "bytes",
						"label": "string",
						"numberOfBytes": "32"
					},
					"t_uint256": {
						"encoding": "inplace",
						"label": "uint256",
						"numberOfBytes": "32"
					}
				}
			},
			"userdoc": {
				"kind": "user",
				"methods": {},
				"version": 1
			}
		}
	}
}