{
	"Assert.sol": {
		"Asserstatement": {
			"abi": [
				{
					"inputs": [
						{
							"internalType": "uint256",
							"name": "_num1",
							"type": "uint256"
						},
						{
							"internalType": "uint256",
							"name": "_num2",
							"type": "uint256"
						}
					],
					"name": "checkOverflow",
					"outputs": [],
					"stateMutability": "nonpayable",
					"type": "function"
				},
				{
					"inputs": [],
					"name": "getresults",
					"outputs": [
						{
							"internalType": "string",
							"name": "",
							"type": "string"
						}
					],
					"stateMutability": "view",
					"type": "function"
				},
				{
					"inputs": [],
					"name": "result",
					"outputs": [
						{
							"internalType": "bool",
							"name": "",
							"type": "bool"
						}
					],
					"stateMutability": "view",
					"type": "function"
				}
			],
			"devdoc": {
				"kind": "dev",
				"methods": {},
				"version": 1
			},
			"evm": {
				"assembly": "    /* \"Assert.sol\":58:482  contract Asserstatement{... */\n  mstore(0x40, 0x80)\n  callvalue\n  dup1\n  iszero\n  tag_1\n  jumpi\n  0x00\n  dup1\n  revert\ntag_1:\n  pop\n  dataSize(sub_0)\n  dup1\n  dataOffset(sub_0)\n  0x00\n  codecopy\n  0x00\n  return\nstop\n\nsub_0: assembly {\n        /* \"Assert.sol\":58:482  contract Asserstatement{... */\n      mstore(0x40, 0x80)\n      callvalue\n      dup1\n      iszero\n      tag_1\n      jumpi\n      0x00\n      dup1\n      revert\n    tag_1:\n      pop\n      jumpi(tag_2, lt(calldatasize, 0x04))\n      shr(0xe0, calldataload(0x00))\n      dup1\n      0x1de7e977\n      eq\n      tag_3\n      jumpi\n      dup1\n      0x65372147\n      eq\n      tag_4\n      jumpi\n      dup1\n      0xd6956970\n      eq\n      tag_5\n      jumpi\n    tag_2:\n      0x00\n      dup1\n      revert\n        /* \"Assert.sol\":285:479  function getresults()public view returns(string memory){... */\n    tag_3:\n      tag_6\n      tag_7\n      jump\t// in\n    tag_6:\n      mload(0x40)\n      tag_8\n      swap2\n      swap1\n      tag_9\n      jump\t// in\n    tag_8:\n      mload(0x40)\n      dup1\n      swap2\n      sub\n      swap1\n      return\n        /* \"Assert.sol\":90:108  bool public result */\n    tag_4:\n      tag_10\n      tag_11\n      jump\t// in\n    tag_10:\n      mload(0x40)\n      tag_12\n      swap2\n      swap1\n      tag_13\n      jump\t// in\n    tag_12:\n      mload(0x40)\n      dup1\n      swap2\n      sub\n      swap1\n      return\n        /* \"Assert.sol\":117:277  function checkOverflow(uint256 _num1, uint256 _num2)public {... */\n    tag_5:\n      tag_14\n      0x04\n      dup1\n      calldatasize\n      sub\n      dup2\n      add\n      swap1\n      tag_15\n      swap2\n      swap1\n      tag_16\n      jump\t// in\n    tag_15:\n      tag_17\n      jump\t// in\n    tag_14:\n      stop\n        /* \"Assert.sol\":285:479  function getresults()public view returns(string memory){... */\n    tag_7:\n        /* \"Assert.sol\":326:339  string memory */\n      0x60\n        /* \"Assert.sol\":365:369  true */\n      0x01\n        /* \"Assert.sol\":355:369  result == true */\n      iszero\n      iszero\n        /* \"Assert.sol\":355:361  result */\n      0x00\n      dup1\n      sload\n      swap1\n      0x0100\n      exp\n      swap1\n      div\n      0xff\n      and\n        /* \"Assert.sol\":355:369  result == true */\n      iszero\n      iszero\n      sub\n        /* \"Assert.sol\":351:472  if (result == true) {... */\n      tag_19\n      jumpi\n        /* \"Assert.sol\":386:406  return \"no overflow\" */\n      mload(0x40)\n      dup1\n      0x40\n      add\n      0x40\n      mstore\n      dup1\n      0x0b\n      dup2\n      mstore\n      0x20\n      add\n      0x6e6f206f766572666c6f77000000000000000000000000000000000000000000\n      dup2\n      mstore\n      pop\n      swap1\n      pop\n      jump(tag_18)\n        /* \"Assert.sol\":351:472  if (result == true) {... */\n    tag_19:\n        /* \"Assert.sol\":437:460  return \"overflow exist\" */\n      mload(0x40)\n      dup1\n      0x40\n      add\n      0x40\n      mstore\n      dup1\n      0x0e\n      dup2\n      mstore\n      0x20\n      add\n      0x6f766572666c6f77206578697374000000000000000000000000000000000000\n      dup2\n      mstore\n      pop\n      swap1\n      pop\n        /* \"Assert.sol\":285:479  function getresults()public view returns(string memory){... */\n    tag_18:\n      swap1\n      jump\t// out\n        /* \"Assert.sol\":90:108  bool public result */\n    tag_11:\n      0x00\n      dup1\n      sload\n      swap1\n      0x0100\n      exp\n      swap1\n      div\n      0xff\n      and\n      dup2\n      jump\t// out\n        /* \"Assert.sol\":117:277  function checkOverflow(uint256 _num1, uint256 _num2)public {... */\n    tag_17:\n        /* \"Assert.sol\":187:198  uint256 sum */\n      0x00\n        /* \"Assert.sol\":209:214  _num2 */\n      dup2\n        /* \"Assert.sol\":201:206  _num1 */\n      dup4\n        /* \"Assert.sol\":201:214  _num1 + _num2 */\n      tag_22\n      swap2\n      swap1\n      tag_23\n      jump\t// in\n    tag_22:\n        /* \"Assert.sol\":187:214  uint256 sum = _num1 + _num2 */\n      swap1\n      pop\n        /* \"Assert.sol\":239:242  300 */\n      0x012c\n        /* \"Assert.sol\":232:235  sum */\n      dup2\n        /* \"Assert.sol\":232:242  sum <= 300 */\n      gt\n      iszero\n        /* \"Assert.sol\":225:243  assert(sum <= 300) */\n      tag_24\n      jumpi\n      tag_25\n      tag_26\n      jump\t// in\n    tag_25:\n    tag_24:\n        /* \"Assert.sol\":263:267  true */\n      0x01\n        /* \"Assert.sol\":254:260  result */\n      0x00\n      dup1\n        /* \"Assert.sol\":254:267  result = true */\n      0x0100\n      exp\n      dup2\n      sload\n      dup2\n      0xff\n      mul\n      not\n      and\n      swap1\n      dup4\n      iszero\n      iszero\n      mul\n      or\n      swap1\n      sstore\n      pop\n        /* \"Assert.sol\":176:277  {... */\n      pop\n        /* \"Assert.sol\":117:277  function checkOverflow(uint256 _num1, uint256 _num2)public {... */\n      pop\n      pop\n      jump\t// out\n        /* \"#utility.yul\":7:106   */\n    tag_27:\n        /* \"#utility.yul\":59:65   */\n      0x00\n        /* \"#utility.yul\":93:98   */\n      dup2\n        /* \"#utility.yul\":87:99   */\n      mload\n        /* \"#utility.yul\":77:99   */\n      swap1\n      pop\n        /* \"#utility.yul\":7:106   */\n      swap2\n      swap1\n      pop\n      jump\t// out\n        /* \"#utility.yul\":112:281   */\n    tag_28:\n        /* \"#utility.yul\":196:207   */\n      0x00\n        /* \"#utility.yul\":230:236   */\n      dup3\n        /* \"#utility.yul\":225:228   */\n      dup3\n        /* \"#utility.yul\":218:237   */\n      mstore\n        /* \"#utility.yul\":270:274   */\n      0x20\n        /* \"#utility.yul\":265:268   */\n      dup3\n        /* \"#utility.yul\":261:275   */\n      add\n        /* \"#utility.yul\":246:275   */\n      swap1\n      pop\n        /* \"#utility.yul\":112:281   */\n      swap3\n      swap2\n      pop\n      pop\n      jump\t// out\n        /* \"#utility.yul\":287:535   */\n    tag_29:\n        /* \"#utility.yul\":369:370   */\n      0x00\n        /* \"#utility.yul\":379:492   */\n    tag_45:\n        /* \"#utility.yul\":393:399   */\n      dup4\n        /* \"#utility.yul\":390:391   */\n      dup2\n        /* \"#utility.yul\":387:400   */\n      lt\n        /* \"#utility.yul\":379:492   */\n      iszero\n      tag_47\n      jumpi\n        /* \"#utility.yul\":478:479   */\n      dup1\n        /* \"#utility.yul\":473:476   */\n      dup3\n        /* \"#utility.yul\":469:480   */\n      add\n        /* \"#utility.yul\":463:481   */\n      mload\n        /* \"#utility.yul\":459:460   */\n      dup2\n        /* \"#utility.yul\":454:457   */\n      dup5\n        /* \"#utility.yul\":450:461   */\n      add\n        /* \"#utility.yul\":443:482   */\n      mstore\n        /* \"#utility.yul\":415:417   */\n      0x20\n        /* \"#utility.yul\":412:413   */\n      dup2\n        /* \"#utility.yul\":408:418   */\n      add\n        /* \"#utility.yul\":403:418   */\n      swap1\n      pop\n        /* \"#utility.yul\":379:492   */\n      jump(tag_45)\n    tag_47:\n        /* \"#utility.yul\":526:527   */\n      0x00\n        /* \"#utility.yul\":517:523   */\n      dup5\n        /* \"#utility.yul\":512:515   */\n      dup5\n        /* \"#utility.yul\":508:524   */\n      add\n        /* \"#utility.yul\":501:528   */\n      mstore\n        /* \"#utility.yul\":349:535   */\n      pop\n        /* \"#utility.yul\":287:535   */\n      pop\n      pop\n      pop\n      jump\t// out\n        /* \"#utility.yul\":541:643   */\n    tag_30:\n        /* \"#utility.yul\":582:588   */\n      0x00\n        /* \"#utility.yul\":633:635   */\n      0x1f\n        /* \"#utility.yul\":629:636   */\n      not\n        /* \"#utility.yul\":624:626   */\n      0x1f\n        /* \"#utility.yul\":617:622   */\n      dup4\n        /* \"#utility.yul\":613:627   */\n      add\n        /* \"#utility.yul\":609:637   */\n      and\n        /* \"#utility.yul\":599:637   */\n      swap1\n      pop\n        /* \"#utility.yul\":541:643   */\n      swap2\n      swap1\n      pop\n      jump\t// out\n        /* \"#utility.yul\":649:1026   */\n    tag_31:\n        /* \"#utility.yul\":737:740   */\n      0x00\n        /* \"#utility.yul\":765:804   */\n      tag_50\n        /* \"#utility.yul\":798:803   */\n      dup3\n        /* \"#utility.yul\":765:804   */\n      tag_27\n      jump\t// in\n    tag_50:\n        /* \"#utility.yul\":820:891   */\n      tag_51\n        /* \"#utility.yul\":884:890   */\n      dup2\n        /* \"#utility.yul\":879:882   */\n      dup6\n        /* \"#utility.yul\":820:891   */\n      tag_28\n      jump\t// in\n    tag_51:\n        /* \"#utility.yul\":813:891   */\n      swap4\n      pop\n        /* \"#utility.yul\":900:965   */\n      tag_52\n        /* \"#utility.yul\":958:964   */\n      dup2\n        /* \"#utility.yul\":953:956   */\n      dup6\n        /* \"#utility.yul\":946:950   */\n      0x20\n        /* \"#utility.yul\":939:944   */\n      dup7\n        /* \"#utility.yul\":935:951   */\n      add\n        /* \"#utility.yul\":900:965   */\n      tag_29\n      jump\t// in\n    tag_52:\n        /* \"#utility.yul\":990:1019   */\n      tag_53\n        /* \"#utility.yul\":1012:1018   */\n      dup2\n        /* \"#utility.yul\":990:1019   */\n      tag_30\n      jump\t// in\n    tag_53:\n        /* \"#utility.yul\":985:988   */\n      dup5\n        /* \"#utility.yul\":981:1020   */\n      add\n        /* \"#utility.yul\":974:1020   */\n      swap2\n      pop\n        /* \"#utility.yul\":741:1026   */\n      pop\n        /* \"#utility.yul\":649:1026   */\n      swap3\n      swap2\n      pop\n      pop\n      jump\t// out\n        /* \"#utility.yul\":1032:1345   */\n    tag_9:\n        /* \"#utility.yul\":1145:1149   */\n      0x00\n        /* \"#utility.yul\":1183:1185   */\n      0x20\n        /* \"#utility.yul\":1172:1181   */\n      dup3\n        /* \"#utility.yul\":1168:1186   */\n      add\n        /* \"#utility.yul\":1160:1186   */\n      swap1\n      pop\n        /* \"#utility.yul\":1232:1241   */\n      dup2\n        /* \"#utility.yul\":1226:1230   */\n      dup2\n        /* \"#utility.yul\":1222:1242   */\n      sub\n        /* \"#utility.yul\":1218:1219   */\n      0x00\n        /* \"#utility.yul\":1207:1216   */\n      dup4\n        /* \"#utility.yul\":1203:1220   */\n      add\n        /* \"#utility.yul\":1196:1243   */\n      mstore\n        /* \"#utility.yul\":1260:1338   */\n      tag_55\n        /* \"#utility.yul\":1333:1337   */\n      dup2\n        /* \"#utility.yul\":1324:1330   */\n      dup5\n        /* \"#utility.yul\":1260:1338   */\n      tag_31\n      jump\t// in\n    tag_55:\n        /* \"#utility.yul\":1252:1338   */\n      swap1\n      pop\n        /* \"#utility.yul\":1032:1345   */\n      swap3\n      swap2\n      pop\n      pop\n      jump\t// out\n        /* \"#utility.yul\":1351:1441   */\n    tag_32:\n        /* \"#utility.yul\":1385:1392   */\n      0x00\n        /* \"#utility.yul\":1428:1433   */\n      dup2\n        /* \"#utility.yul\":1421:1434   */\n      iszero\n        /* \"#utility.yul\":1414:1435   */\n      iszero\n        /* \"#utility.yul\":1403:1435   */\n      swap1\n      pop\n        /* \"#utility.yul\":1351:1441   */\n      swap2\n      swap1\n      pop\n      jump\t// out\n        /* \"#utility.yul\":1447:1556   */\n    tag_33:\n        /* \"#utility.yul\":1528:1549   */\n      tag_58\n        /* \"#utility.yul\":1543:1548   */\n      dup2\n        /* \"#utility.yul\":1528:1549   */\n      tag_32\n      jump\t// in\n    tag_58:\n        /* \"#utility.yul\":1523:1526   */\n      dup3\n        /* \"#utility.yul\":1516:1550   */\n      mstore\n        /* \"#utility.yul\":1447:1556   */\n      pop\n      pop\n      jump\t// out\n        /* \"#utility.yul\":1562:1772   */\n    tag_13:\n        /* \"#utility.yul\":1649:1653   */\n      0x00\n        /* \"#utility.yul\":1687:1689   */\n      0x20\n        /* \"#utility.yul\":1676:1685   */\n      dup3\n        /* \"#utility.yul\":1672:1690   */\n      add\n        /* \"#utility.yul\":1664:1690   */\n      swap1\n      pop\n        /* \"#utility.yul\":1700:1765   */\n      tag_60\n        /* \"#utility.yul\":1762:1763   */\n      0x00\n        /* \"#utility.yul\":1751:1760   */\n      dup4\n        /* \"#utility.yul\":1747:1764   */\n      add\n        /* \"#utility.yul\":1738:1744   */\n      dup5\n        /* \"#utility.yul\":1700:1765   */\n      tag_33\n      jump\t// in\n    tag_60:\n        /* \"#utility.yul\":1562:1772   */\n      swap3\n      swap2\n      pop\n      pop\n      jump\t// out\n        /* \"#utility.yul\":1859:1976   */\n    tag_35:\n        /* \"#utility.yul\":1968:1969   */\n      0x00\n        /* \"#utility.yul\":1965:1966   */\n      dup1\n        /* \"#utility.yul\":1958:1970   */\n      revert\n        /* \"#utility.yul\":2105:2182   */\n    tag_37:\n        /* \"#utility.yul\":2142:2149   */\n      0x00\n        /* \"#utility.yul\":2171:2176   */\n      dup2\n        /* \"#utility.yul\":2160:2176   */\n      swap1\n      pop\n        /* \"#utility.yul\":2105:2182   */\n      swap2\n      swap1\n      pop\n      jump\t// out\n        /* \"#utility.yul\":2188:2310   */\n    tag_38:\n        /* \"#utility.yul\":2261:2285   */\n      tag_66\n        /* \"#utility.yul\":2279:2284   */\n      dup2\n        /* \"#utility.yul\":2261:2285   */\n      tag_37\n      jump\t// in\n    tag_66:\n        /* \"#utility.yul\":2254:2259   */\n      dup2\n        /* \"#utility.yul\":2251:2286   */\n      eq\n        /* \"#utility.yul\":2241:2304   */\n      tag_67\n      jumpi\n        /* \"#utility.yul\":2300:2301   */\n      0x00\n        /* \"#utility.yul\":2297:2298   */\n      dup1\n        /* \"#utility.yul\":2290:2302   */\n      revert\n        /* \"#utility.yul\":2241:2304   */\n    tag_67:\n        /* \"#utility.yul\":2188:2310   */\n      pop\n      jump\t// out\n        /* \"#utility.yul\":2316:2455   */\n    tag_39:\n        /* \"#utility.yul\":2362:2367   */\n      0x00\n        /* \"#utility.yul\":2400:2406   */\n      dup2\n        /* \"#utility.yul\":2387:2407   */\n      calldataload\n        /* \"#utility.yul\":2378:2407   */\n      swap1\n      pop\n        /* \"#utility.yul\":2416:2449   */\n      tag_69\n        /* \"#utility.yul\":2443:2448   */\n      dup2\n        /* \"#utility.yul\":2416:2449   */\n      tag_38\n      jump\t// in\n    tag_69:\n        /* \"#utility.yul\":2316:2455   */\n      swap3\n      swap2\n      pop\n      pop\n      jump\t// out\n        /* \"#utility.yul\":2461:2935   */\n    tag_16:\n        /* \"#utility.yul\":2529:2535   */\n      0x00\n        /* \"#utility.yul\":2537:2543   */\n      dup1\n        /* \"#utility.yul\":2586:2588   */\n      0x40\n        /* \"#utility.yul\":2574:2583   */\n      dup4\n        /* \"#utility.yul\":2565:2572   */\n      dup6\n        /* \"#utility.yul\":2561:2584   */\n      sub\n        /* \"#utility.yul\":2557:2589   */\n      slt\n        /* \"#utility.yul\":2554:2673   */\n      iszero\n      tag_71\n      jumpi\n        /* \"#utility.yul\":2592:2671   */\n      tag_72\n      tag_35\n      jump\t// in\n    tag_72:\n        /* \"#utility.yul\":2554:2673   */\n    tag_71:\n        /* \"#utility.yul\":2712:2713   */\n      0x00\n        /* \"#utility.yul\":2737:2790   */\n      tag_73\n        /* \"#utility.yul\":2782:2789   */\n      dup6\n        /* \"#utility.yul\":2773:2779   */\n      dup3\n        /* \"#utility.yul\":2762:2771   */\n      dup7\n        /* \"#utility.yul\":2758:2780   */\n      add\n        /* \"#utility.yul\":2737:2790   */\n      tag_39\n      jump\t// in\n    tag_73:\n        /* \"#utility.yul\":2727:2790   */\n      swap3\n      pop\n        /* \"#utility.yul\":2683:2800   */\n      pop\n        /* \"#utility.yul\":2839:2841   */\n      0x20\n        /* \"#utility.yul\":2865:2918   */\n      tag_74\n        /* \"#utility.yul\":2910:2917   */\n      dup6\n        /* \"#utility.yul\":2901:2907   */\n      dup3\n        /* \"#utility.yul\":2890:2899   */\n      dup7\n        /* \"#utility.yul\":2886:2908   */\n      add\n        /* \"#utility.yul\":2865:2918   */\n      tag_39\n      jump\t// in\n    tag_74:\n        /* \"#utility.yul\":2855:2918   */\n      swap2\n      pop\n        /* \"#utility.yul\":2810:2928   */\n      pop\n        /* \"#utility.yul\":2461:2935   */\n      swap3\n      pop\n      swap3\n      swap1\n      pop\n      jump\t// out\n        /* \"#utility.yul\":2941:3121   */\n    tag_40:\n        /* \"#utility.yul\":2989:3066   */\n      0x4e487b7100000000000000000000000000000000000000000000000000000000\n        /* \"#utility.yul\":2986:2987   */\n      0x00\n        /* \"#utility.yul\":2979:3067   */\n      mstore\n        /* \"#utility.yul\":3086:3090   */\n      0x11\n        /* \"#utility.yul\":3083:3084   */\n      0x04\n        /* \"#utility.yul\":3076:3091   */\n      mstore\n        /* \"#utility.yul\":3110:3114   */\n      0x24\n        /* \"#utility.yul\":3107:3108   */\n      0x00\n        /* \"#utility.yul\":3100:3115   */\n      revert\n        /* \"#utility.yul\":3127:3318   */\n    tag_23:\n        /* \"#utility.yul\":3167:3170   */\n      0x00\n        /* \"#utility.yul\":3186:3206   */\n      tag_77\n        /* \"#utility.yul\":3204:3205   */\n      dup3\n        /* \"#utility.yul\":3186:3206   */\n      tag_37\n      jump\t// in\n    tag_77:\n        /* \"#utility.yul\":3181:3206   */\n      swap2\n      pop\n        /* \"#utility.yul\":3220:3240   */\n      tag_78\n        /* \"#utility.yul\":3238:3239   */\n      dup4\n        /* \"#utility.yul\":3220:3240   */\n      tag_37\n      jump\t// in\n    tag_78:\n        /* \"#utility.yul\":3215:3240   */\n      swap3\n      pop\n        /* \"#utility.yul\":3263:3264   */\n      dup3\n        /* \"#utility.yul\":3260:3261   */\n      dup3\n        /* \"#utility.yul\":3256:3265   */\n      add\n        /* \"#utility.yul\":3249:3265   */\n      swap1\n      pop\n        /* \"#utility.yul\":3284:3287   */\n      dup1\n        /* \"#utility.yul\":3281:3282   */\n      dup3\n        /* \"#utility.yul\":3278:3288   */\n      gt\n        /* \"#utility.yul\":3275:3311   */\n      iszero\n      tag_79\n      jumpi\n        /* \"#utility.yul\":3291:3309   */\n      tag_80\n      tag_40\n      jump\t// in\n    tag_80:\n        /* \"#utility.yul\":3275:3311   */\n    tag_79:\n        /* \"#utility.yul\":3127:3318   */\n      swap3\n      swap2\n      pop\n      pop\n      jump\t// out\n        /* \"#utility.yul\":3324:3504   */\n    tag_26:\n        /* \"#utility.yul\":3372:3449   */\n      0x4e487b7100000000000000000000000000000000000000000000000000000000\n        /* \"#utility.yul\":3369:3370   */\n      0x00\n        /* \"#utility.yul\":3362:3450   */\n      mstore\n        /* \"#utility.yul\":3469:3473   */\n      0x01\n        /* \"#utility.yul\":3466:3467   */\n      0x04\n        /* \"#utility.yul\":3459:3474   */\n      mstore\n        /* \"#utility.yul\":3493:3497   */\n      0x24\n        /* \"#utility.yul\":3490:3491   */\n      0x00\n        /* \"#utility.yul\":3483:3498   */\n      revert\n\n    auxdata: 0xa26469706673582212201158f57bf5507f7e110f1bbab408c4b764f6ca8e05e7c5c702090bb5aee8e75c64736f6c63430008220033\n}\n",
				"bytecode": {
					"linkReferences": {},
					"object": "6080604052348015600f57600080fd5b506103b08061001f6000396000f3fe608060405234801561001057600080fd5b50600436106100415760003560e01c80631de7e977146100465780636537214714610064578063d695697014610082575b600080fd5b61004e61009e565b60405161005b9190610215565b60405180910390f35b61006c610132565b6040516100799190610252565b60405180910390f35b61009c600480360381019061009791906102a8565b610143565b005b60606001151560008054906101000a900460ff161515036100f6576040518060400160405280600b81526020017f6e6f206f766572666c6f77000000000000000000000000000000000000000000815250905061012f565b6040518060400160405280600e81526020017f6f766572666c6f7720657869737400000000000000000000000000000000000081525090505b90565b60008054906101000a900460ff1681565b600081836101519190610317565b905061012c8111156101665761016561034b565b5b60016000806101000a81548160ff021916908315150217905550505050565b600081519050919050565b600082825260208201905092915050565b60005b838110156101bf5780820151818401526020810190506101a4565b60008484015250505050565b6000601f19601f8301169050919050565b60006101e782610185565b6101f18185610190565b93506102018185602086016101a1565b61020a816101cb565b840191505092915050565b6000602082019050818103600083015261022f81846101dc565b905092915050565b60008115159050919050565b61024c81610237565b82525050565b60006020820190506102676000830184610243565b92915050565b600080fd5b6000819050919050565b61028581610272565b811461029057600080fd5b50565b6000813590506102a28161027c565b92915050565b600080604083850312156102bf576102be61026d565b5b60006102cd85828601610293565b92505060206102de85828601610293565b9150509250929050565b7f4e487b7100000000000000000000000000000000000000000000000000000000600052601160045260246000fd5b600061032282610272565b915061032d83610272565b9250828201905080821115610345576103446102e8565b5b92915050565b7f4e487b7100000000000000000000000000000000000000000000000000000000600052600160045260246000fdfea26469706673582212201158f57bf5507f7e110f1bbab408c4b764f6ca8e05e7c5c702090bb5aee8e75c64736f6c63430008220033",
					"opcodes": "PUSH1 0x80 PUSH1 0x40 MSTORE CALLVALUE DUP1 ISZERO PUSH1 0xF JUMPI PUSH1 0x0 DUP1 REVERT JUMPDEST POP PUSH2 0x3B0 DUP1 PUSH2 0x1F PUSH1 0x0 CODECOPY PUSH1 0x0 RETURN INVALID PUSH1 0x80 PUSH1 0x40 MSTORE CALLVALUE DUP1 ISZERO PUSH2 0x10 JUMPI PUSH1 0x0 DUP1 REVERT JUMPDEST POP PUSH1 0x4 CALLDATASIZE LT PUSH2 0x41 JUMPI PUSH1 0x0 CALLDATALOAD PUSH1 0xE0 SHR DUP1 PUSH4 0x1DE7E977 EQ PUSH2 0x46 JUMPI DUP1 PUSH4 0x65372147 EQ PUSH2 0x64 JUMPI DUP1 PUSH4 0xD6956970 EQ PUSH2 0x82 JUMPI JUMPDEST PUSH1 0x0 DUP1 REVERT JUMPDEST PUSH2 0x4E PUSH2 0x9E JUMP JUMPDEST PUSH1 0x40 MLOAD PUSH2 0x5B SWAP2 SWAP1 PUSH2 0x215 JUMP JUMPDEST PUSH1 0x40 MLOAD DUP1 SWAP2 SUB SWAP1 RETURN JUMPDEST PUSH2 0x6C PUSH2 0x132 JUMP JUMPDEST PUSH1 0x40 MLOAD PUSH2 0x79 SWAP2 SWAP1 PUSH2 0x252 JUMP JUMPDEST PUSH1 0x40 MLOAD DUP1 SWAP2 SUB SWAP1 RETURN JUMPDEST PUSH2 0x9C PUSH1 0x4 DUP1 CALLDATASIZE SUB DUP2 ADD SWAP1 PUSH2 0x97 SWAP2 SWAP1 PUSH2 0x2A8 JUMP JUMPDEST PUSH2 0x143 JUMP JUMPDEST STOP JUMPDEST PUSH1 0x60 PUSH1 0x1 ISZERO ISZERO PUSH1 0x0 DUP1 SLOAD SWAP1 PUSH2 0x100 EXP SWAP1 DIV PUSH1 0xFF AND ISZERO ISZERO SUB PUSH2 0xF6 JUMPI PUSH1 0x40 MLOAD DUP1 PUSH1 0x40 ADD PUSH1 0x40 MSTORE DUP1 PUSH1 0xB DUP2 MSTORE PUSH1 0x20 ADD PUSH32 0x6E6F206F766572666C6F77000000000000000000000000000000000000000000 DUP2 MSTORE POP SWAP1 POP PUSH2 0x12F JUMP JUMPDEST PUSH1 0x40 MLOAD DUP1 PUSH1 0x40 ADD PUSH1 0x40 MSTORE DUP1 PUSH1 0xE DUP2 MSTORE PUSH1 0x20 ADD PUSH32 0x6F766572666C6F77206578697374000000000000000000000000000000000000 DUP2 MSTORE POP SWAP1 POP JUMPDEST SWAP1 JUMP JUMPDEST PUSH1 0x0 DUP1 SLOAD SWAP1 PUSH2 0x100 EXP SWAP1 DIV PUSH1 0xFF AND DUP2 JUMP JUMPDEST PUSH1 0x0 DUP2 DUP4 PUSH2 0x151 SWAP2 SWAP1 PUSH2 0x317 JUMP JUMPDEST SWAP1 POP PUSH2 0x12C DUP2 GT ISZERO PUSH2 0x166 JUMPI PUSH2 0x165 PUSH2 0x34B JUMP JUMPDEST JUMPDEST PUSH1 0x1 PUSH1 0x0 DUP1 PUSH2 0x100 EXP DUP2 SLOAD DUP2 PUSH1 0xFF MUL NOT AND SWAP1 DUP4 ISZERO ISZERO MUL OR SWAP1 SSTORE POP POP POP POP JUMP JUMPDEST PUSH1 0x0 DUP2 MLOAD SWAP1 POP SWAP2 SWAP1 POP JUMP JUMPDEST PUSH1 0x0 DUP3 DUP3 MSTORE PUSH1 0x20 DUP3 ADD SWAP1 POP SWAP3 SWAP2 POP POP JUMP JUMPDEST PUSH1 0x0 JUMPDEST DUP4 DUP2 LT ISZERO PUSH2 0x1BF JUMPI DUP1 DUP3 ADD MLOAD DUP2 DUP5 ADD MSTORE PUSH1 0x20 DUP2 ADD SWAP1 POP PUSH2 0x1A4 JUMP JUMPDEST PUSH1 0x0 DUP5 DUP5 ADD MSTORE POP POP POP POP JUMP JUMPDEST PUSH1 0x0 PUSH1 0x1F NOT PUSH1 0x1F DUP4 ADD AND SWAP1 POP SWAP2 SWAP1 POP JUMP JUMPDEST PUSH1 0x0 PUSH2 0x1E7 DUP3 PUSH2 0x185 JUMP JUMPDEST PUSH2 0x1F1 DUP2 DUP6 PUSH2 0x190 JUMP JUMPDEST SWAP4 POP PUSH2 0x201 DUP2 DUP6 PUSH1 0x20 DUP7 ADD PUSH2 0x1A1 JUMP JUMPDEST PUSH2 0x20A DUP2 PUSH2 0x1CB JUMP JUMPDEST DUP5 ADD SWAP2 POP POP SWAP3 SWAP2 POP POP JUMP JUMPDEST PUSH1 0x0 PUSH1 0x20 DUP3 ADD SWAP1 POP DUP2 DUP2 SUB PUSH1 0x0 DUP4 ADD MSTORE PUSH2 0x22F DUP2 DUP5 PUSH2 0x1DC JUMP JUMPDEST SWAP1 POP SWAP3 SWAP2 POP POP JUMP JUMPDEST PUSH1 0x0 DUP2 ISZERO ISZERO SWAP1 POP SWAP2 SWAP1 POP JUMP JUMPDEST PUSH2 0x24C DUP2 PUSH2 0x237 JUMP JUMPDEST DUP3 MSTORE POP POP JUMP JUMPDEST PUSH1 0x0 PUSH1 0x20 DUP3 ADD SWAP1 POP PUSH2 0x267 PUSH1 0x0 DUP4 ADD DUP5 PUSH2 0x243 JUMP JUMPDEST SWAP3 SWAP2 POP POP JUMP JUMPDEST PUSH1 0x0 DUP1 REVERT JUMPDEST PUSH1 0x0 DUP2 SWAP1 POP SWAP2 SWAP1 POP JUMP JUMPDEST PUSH2 0x285 DUP2 PUSH2 0x272 JUMP JUMPDEST DUP2 EQ PUSH2 0x290 JUMPI PUSH1 0x0 DUP1 REVERT JUMPDEST POP JUMP JUMPDEST PUSH1 0x0 DUP2 CALLDATALOAD SWAP1 POP PUSH2 0x2A2 DUP2 PUSH2 0x27C JUMP JUMPDEST SWAP3 SWAP2 POP POP JUMP JUMPDEST PUSH1 0x0 DUP1 PUSH1 0x40 DUP4 DUP6 SUB SLT ISZERO PUSH2 0x2BF JUMPI PUSH2 0x2BE PUSH2 0x26D JUMP JUMPDEST JUMPDEST PUSH1 0x0 PUSH2 0x2CD DUP6 DUP3 DUP7 ADD PUSH2 0x293 JUMP JUMPDEST SWAP3 POP POP PUSH1 0x20 PUSH2 0x2DE DUP6 DUP3 DUP7 ADD PUSH2 0x293 JUMP JUMPDEST SWAP2 POP POP SWAP3 POP SWAP3 SWAP1 POP JUMP JUMPDEST PUSH32 0x4E487B7100000000000000000000000000000000000000000000000000000000 PUSH1 0x0 MSTORE PUSH1 0x11 PUSH1 0x4 MSTORE PUSH1 0x24 PUSH1 0x0 REVERT JUMPDEST PUSH1 0x0 PUSH2 0x322 DUP3 PUSH2 0x272 JUMP JUMPDEST SWAP2 POP PUSH2 0x32D DUP4 PUSH2 0x272 JUMP JUMPDEST SWAP3 POP DUP3 DUP3 ADD SWAP1 POP DUP1 DUP3 GT ISZERO PUSH2 0x345 JUMPI PUSH2 0x344 PUSH2 0x2E8 JUMP JUMPDEST JUMPDEST SWAP3 SWAP2 POP POP JUMP JUMPDEST PUSH32 0x4E487B7100000000000000000000000000000000000000000000000000000000 PUSH1 0x0 MSTORE PUSH1 0x1 PUSH1 0x4 MSTORE PUSH1 0x24 PUSH1 0x0 REVERT INVALID LOG2 PUSH5 0x6970667358 0x22 SLT KECCAK256 GT PC CREATE2 PUSH28 0xF5507F7E110F1BBAB408C4B764F6CA8E05E7C5C702090BB5AEE8E75C PUSH5 0x736F6C6343 STOP ADDMOD 0x22 STOP CALLER "
				},
				"gasEstimates": {
					"creation": {
						"codeDepositCost": "188800",
						"executionCost": "232",
						"totalCost": "189032"
					},
					"external": {
						"checkOverflow(uint256,uint256)": "infinite",
						"getresults()": "infinite",
						"result()": "2468"
					}
				},
				"methodIdentifiers": {
					"checkOverflow(uint256,uint256)": "d6956970",
					"getresults()": "1de7e977",
					"result()": "65372147"
				}
			},
			"storageLayout": {
				"storage": [
					{
						"astId": 3,
						"contract": "Assert.sol:Asserstatement",
						"label": "result",
						"offset": 0,
						"slot": "0",
						"type": "t_bool"
					}
				],
				"types": {
					"t_bool": {
						"encoding": "inplace",
						"label": "bool",
						"numberOfBytes": "1"
					}
				}
			},
			"userdoc": {
				"kind": "user",
				"methods": {},
				"version": 1
			}
		}
	}
}