{
	"Require.sol": {
		"Require": {
			"abi": [
				{
					"inputs": [
						{
							"internalType": "uint256",
							"name": "_input",
							"type": "uint256"
						}
					],
					"name": "checkInput",
					"outputs": [
						{
							"internalType": "string",
							"name": "",
							"type": "string"
						}
					],
					"stateMutability": "pure",
					"type": "function"
				},
				{
					"inputs": [
						{
							"internalType": "uint256",
							"name": "_input",
							"type": "uint256"
						}
					],
					"name": "odd",
					"outputs": [
						{
							"internalType": "bool",
							"name": "",
							"type": "bool"
						}
					],
					"stateMutability": "pure",
					"type": "function"
				}
			],
			"devdoc": {
				"kind": "dev",
				"methods": {},
				"version": 1
			},
			"evm": {
				"assembly": "    /* \"Require.sol\":61:496  contract Require {... */\n  mstore(0x40, 0x80)\n  callvalue\n  dup1\n  iszero\n  tag_1\n  jumpi\n  0x00\n  dup1\n  revert\ntag_1:\n  pop\n  dataSize(sub_0)\n  dup1\n  dataOffset(sub_0)\n  0x00\n  codecopy\n  0x00\n  return\nstop\n\nsub_0: assembly {\n        /* \"Require.sol\":61:496  contract Require {... */\n      mstore(0x40, 0x80)\n      callvalue\n      dup1\n      iszero\n      tag_1\n      jumpi\n      0x00\n      dup1\n      revert\n    tag_1:\n      pop\n      jumpi(tag_2, lt(calldatasize, 0x04))\n      shr(0xe0, calldataload(0x00))\n      dup1\n      0x021b8a7f\n      eq\n      tag_3\n      jumpi\n      dup1\n      0x0602c36a\n      eq\n      tag_4\n      jumpi\n    tag_2:\n      0x00\n      dup1\n      revert\n        /* \"Require.sol\":87:310  function checkInput(uint256 _input)... */\n    tag_3:\n      tag_5\n      0x04\n      dup1\n      calldatasize\n      sub\n      dup2\n      add\n      swap1\n      tag_6\n      swap2\n      swap1\n      tag_7\n      jump\t// in\n    tag_6:\n      tag_8\n      jump\t// in\n    tag_5:\n      mload(0x40)\n      tag_9\n      swap2\n      swap1\n      tag_10\n      jump\t// in\n    tag_9:\n      mload(0x40)\n      dup1\n      swap2\n      sub\n      swap1\n      return\n        /* \"Require.sol\":318:493  function odd(uint256 _input)... */\n    tag_4:\n      tag_11\n      0x04\n      dup1\n      calldatasize\n      sub\n      dup2\n      add\n      swap1\n      tag_12\n      swap2\n      swap1\n      tag_7\n      jump\t// in\n    tag_12:\n      tag_13\n      jump\t// in\n    tag_11:\n      mload(0x40)\n      tag_14\n      swap2\n      swap1\n      tag_15\n      jump\t// in\n    tag_14:\n      mload(0x40)\n      dup1\n      swap2\n      sub\n      swap1\n      return\n        /* \"Require.sol\":87:310  function checkInput(uint256 _input)... */\n    tag_8:\n        /* \"Require.sol\":171:184  string memory */\n      0x60\n        /* \"Require.sol\":220:223  255 */\n      0xff\n        /* \"Require.sol\":210:216  _input */\n      dup3\n        /* \"Require.sol\":210:223  _input <= 255 */\n      gt\n      iszero\n        /* \"Require.sol\":202:261  require(_input <= 255, \"Input is greater than uint8 range\") */\n      tag_17\n      jumpi\n      mload(0x40)\n      0x08c379a000000000000000000000000000000000000000000000000000000000\n      dup2\n      mstore\n      0x04\n      add\n      tag_18\n      swap1\n      tag_19\n      jump\t// in\n    tag_18:\n      mload(0x40)\n      dup1\n      swap2\n      sub\n      swap1\n      revert\n    tag_17:\n        /* \"Require.sol\":274:302  return \"Input fits in uint8\" */\n      mload(0x40)\n      dup1\n      0x40\n      add\n      0x40\n      mstore\n      dup1\n      0x13\n      dup2\n      mstore\n      0x20\n      add\n      0x496e707574206669747320696e2075696e743800000000000000000000000000\n      dup2\n      mstore\n      pop\n      swap1\n      pop\n        /* \"Require.sol\":87:310  function checkInput(uint256 _input)... */\n      swap2\n      swap1\n      pop\n      jump\t// out\n        /* \"Require.sol\":318:493  function odd(uint256 _input)... */\n    tag_13:\n        /* \"Require.sol\":395:399  bool */\n      0x00\n        /* \"Require.sol\":439:440  0 */\n      dup1\n        /* \"Require.sol\":434:435  2 */\n      0x02\n        /* \"Require.sol\":425:431  _input */\n      dup4\n        /* \"Require.sol\":425:435  _input % 2 */\n      tag_21\n      swap2\n      swap1\n      tag_22\n      jump\t// in\n    tag_21:\n        /* \"Require.sol\":425:440  _input % 2 != 0 */\n      sub\n        /* \"Require.sol\":417:461  require(_input % 2 != 0, \"Input is not odd\") */\n      tag_23\n      jumpi\n      mload(0x40)\n      0x08c379a000000000000000000000000000000000000000000000000000000000\n      dup2\n      mstore\n      0x04\n      add\n      tag_24\n      swap1\n      tag_25\n      jump\t// in\n    tag_24:\n      mload(0x40)\n      dup1\n      swap2\n      sub\n      swap1\n      revert\n    tag_23:\n        /* \"Require.sol\":481:485  true */\n      0x01\n        /* \"Require.sol\":474:485  return true */\n      swap1\n      pop\n        /* \"Require.sol\":318:493  function odd(uint256 _input)... */\n      swap2\n      swap1\n      pop\n      jump\t// out\n        /* \"#utility.yul\":88:205   */\n    tag_27:\n        /* \"#utility.yul\":197:198   */\n      0x00\n        /* \"#utility.yul\":194:195   */\n      dup1\n        /* \"#utility.yul\":187:199   */\n      revert\n        /* \"#utility.yul\":334:411   */\n    tag_29:\n        /* \"#utility.yul\":371:378   */\n      0x00\n        /* \"#utility.yul\":400:405   */\n      dup2\n        /* \"#utility.yul\":389:405   */\n      swap1\n      pop\n        /* \"#utility.yul\":334:411   */\n      swap2\n      swap1\n      pop\n      jump\t// out\n        /* \"#utility.yul\":417:539   */\n    tag_30:\n        /* \"#utility.yul\":490:514   */\n      tag_50\n        /* \"#utility.yul\":508:513   */\n      dup2\n        /* \"#utility.yul\":490:514   */\n      tag_29\n      jump\t// in\n    tag_50:\n        /* \"#utility.yul\":483:488   */\n      dup2\n        /* \"#utility.yul\":480:515   */\n      eq\n        /* \"#utility.yul\":470:533   */\n      tag_51\n      jumpi\n        /* \"#utility.yul\":529:530   */\n      0x00\n        /* \"#utility.yul\":526:527   */\n      dup1\n        /* \"#utility.yul\":519:531   */\n      revert\n        /* \"#utility.yul\":470:533   */\n    tag_51:\n        /* \"#utility.yul\":417:539   */\n      pop\n      jump\t// out\n        /* \"#utility.yul\":545:684   */\n    tag_31:\n        /* \"#utility.yul\":591:596   */\n      0x00\n        /* \"#utility.yul\":629:635   */\n      dup2\n        /* \"#utility.yul\":616:636   */\n      calldataload\n        /* \"#utility.yul\":607:636   */\n      swap1\n      pop\n        /* \"#utility.yul\":645:678   */\n      tag_53\n        /* \"#utility.yul\":672:677   */\n      dup2\n        /* \"#utility.yul\":645:678   */\n      tag_30\n      jump\t// in\n    tag_53:\n        /* \"#utility.yul\":545:684   */\n      swap3\n      swap2\n      pop\n      pop\n      jump\t// out\n        /* \"#utility.yul\":690:1019   */\n    tag_7:\n        /* \"#utility.yul\":749:755   */\n      0x00\n        /* \"#utility.yul\":798:800   */\n      0x20\n        /* \"#utility.yul\":786:795   */\n      dup3\n        /* \"#utility.yul\":777:784   */\n      dup5\n        /* \"#utility.yul\":773:796   */\n      sub\n        /* \"#utility.yul\":769:801   */\n      slt\n        /* \"#utility.yul\":766:885   */\n      iszero\n      tag_55\n      jumpi\n        /* \"#utility.yul\":804:883   */\n      tag_56\n      tag_27\n      jump\t// in\n    tag_56:\n        /* \"#utility.yul\":766:885   */\n    tag_55:\n        /* \"#utility.yul\":924:925   */\n      0x00\n        /* \"#utility.yul\":949:1002   */\n      tag_57\n        /* \"#utility.yul\":994:1001   */\n      dup5\n        /* \"#utility.yul\":985:991   */\n      dup3\n        /* \"#utility.yul\":974:983   */\n      dup6\n        /* \"#utility.yul\":970:992   */\n      add\n        /* \"#utility.yul\":949:1002   */\n      tag_31\n      jump\t// in\n    tag_57:\n        /* \"#utility.yul\":939:1002   */\n      swap2\n      pop\n        /* \"#utility.yul\":895:1012   */\n      pop\n        /* \"#utility.yul\":690:1019   */\n      swap3\n      swap2\n      pop\n      pop\n      jump\t// out\n        /* \"#utility.yul\":1025:1124   */\n    tag_32:\n        /* \"#utility.yul\":1077:1083   */\n      0x00\n        /* \"#utility.yul\":1111:1116   */\n      dup2\n        /* \"#utility.yul\":1105:1117   */\n      mload\n        /* \"#utility.yul\":1095:1117   */\n      swap1\n      pop\n        /* \"#utility.yul\":1025:1124   */\n      swap2\n      swap1\n      pop\n      jump\t// out\n        /* \"#utility.yul\":1130:1299   */\n    tag_33:\n        /* \"#utility.yul\":1214:1225   */\n      0x00\n        /* \"#utility.yul\":1248:1254   */\n      dup3\n        /* \"#utility.yul\":1243:1246   */\n      dup3\n        /* \"#utility.yul\":1236:1255   */\n      mstore\n        /* \"#utility.yul\":1288:1292   */\n      0x20\n        /* \"#utility.yul\":1283:1286   */\n      dup3\n        /* \"#utility.yul\":1279:1293   */\n      add\n        /* \"#utility.yul\":1264:1293   */\n      swap1\n      pop\n        /* \"#utility.yul\":1130:1299   */\n      swap3\n      swap2\n      pop\n      pop\n      jump\t// out\n        /* \"#utility.yul\":1305:1553   */\n    tag_34:\n        /* \"#utility.yul\":1387:1388   */\n      0x00\n        /* \"#utility.yul\":1397:1510   */\n    tag_61:\n        /* \"#utility.yul\":1411:1417   */\n      dup4\n        /* \"#utility.yul\":1408:1409   */\n      dup2\n        /* \"#utility.yul\":1405:1418   */\n      lt\n        /* \"#utility.yul\":1397:1510   */\n      iszero\n      tag_63\n      jumpi\n        /* \"#utility.yul\":1496:1497   */\n      dup1\n        /* \"#utility.yul\":1491:1494   */\n      dup3\n        /* \"#utility.yul\":1487:1498   */\n      add\n        /* \"#utility.yul\":1481:1499   */\n      mload\n        /* \"#utility.yul\":1477:1478   */\n      dup2\n        /* \"#utility.yul\":1472:1475   */\n      dup5\n        /* \"#utility.yul\":1468:1479   */\n      add\n        /* \"#utility.yul\":1461:1500   */\n      mstore\n        /* \"#utility.yul\":1433:1435   */\n      0x20\n        /* \"#utility.yul\":1430:1431   */\n      dup2\n        /* \"#utility.yul\":1426:1436   */\n      add\n        /* \"#utility.yul\":1421:1436   */\n      swap1\n      pop\n        /* \"#utility.yul\":1397:1510   */\n      jump(tag_61)\n    tag_63:\n        /* \"#utility.yul\":1544:1545   */\n      0x00\n        /* \"#utility.yul\":1535:1541   */\n      dup5\n        /* \"#utility.yul\":1530:1533   */\n      dup5\n        /* \"#utility.yul\":1526:1542   */\n      add\n        /* \"#utility.yul\":1519:1546   */\n      mstore\n        /* \"#utility.yul\":1367:1553   */\n      pop\n        /* \"#utility.yul\":1305:1553   */\n      pop\n      pop\n      pop\n      jump\t// out\n        /* \"#utility.yul\":1559:1661   */\n    tag_35:\n        /* \"#utility.yul\":1600:1606   */\n      0x00\n        /* \"#utility.yul\":1651:1653   */\n      0x1f\n        /* \"#utility.yul\":1647:1654   */\n      not\n        /* \"#utility.yul\":1642:1644   */\n      0x1f\n        /* \"#utility.yul\":1635:1640   */\n      dup4\n        /* \"#utility.yul\":1631:1645   */\n      add\n        /* \"#utility.yul\":1627:1655   */\n      and\n        /* \"#utility.yul\":1617:1655   */\n      swap1\n      pop\n        /* \"#utility.yul\":1559:1661   */\n      swap2\n      swap1\n      pop\n      jump\t// out\n        /* \"#utility.yul\":1667:2044   */\n    tag_36:\n        /* \"#utility.yul\":1755:1758   */\n      0x00\n        /* \"#utility.yul\":1783:1822   */\n      tag_66\n        /* \"#utility.yul\":1816:1821   */\n      dup3\n        /* \"#utility.yul\":1783:1822   */\n      tag_32\n      jump\t// in\n    tag_66:\n        /* \"#utility.yul\":1838:1909   */\n      tag_67\n        /* \"#utility.yul\":1902:1908   */\n      dup2\n        /* \"#utility.yul\":1897:1900   */\n      dup6\n        /* \"#utility.yul\":1838:1909   */\n      tag_33\n      jump\t// in\n    tag_67:\n        /* \"#utility.yul\":1831:1909   */\n      swap4\n      pop\n        /* \"#utility.yul\":1918:1983   */\n      tag_68\n        /* \"#utility.yul\":1976:1982   */\n      dup2\n        /* \"#utility.yul\":1971:1974   */\n      dup6\n        /* \"#utility.yul\":1964:1968   */\n      0x20\n        /* \"#utility.yul\":1957:1962   */\n      dup7\n        /* \"#utility.yul\":1953:1969   */\n      add\n        /* \"#utility.yul\":1918:1983   */\n      tag_34\n      jump\t// in\n    tag_68:\n        /* \"#utility.yul\":2008:2037   */\n      tag_69\n        /* \"#utility.yul\":2030:2036   */\n      dup2\n        /* \"#utility.yul\":2008:2037   */\n      tag_35\n      jump\t// in\n    tag_69:\n        /* \"#utility.yul\":2003:2006   */\n      dup5\n        /* \"#utility.yul\":1999:2038   */\n      add\n        /* \"#utility.yul\":1992:2038   */\n      swap2\n      pop\n        /* \"#utility.yul\":1759:2044   */\n      pop\n        /* \"#utility.yul\":1667:2044   */\n      swap3\n      swap2\n      pop\n      pop\n      jump\t// out\n        /* \"#utility.yul\":2050:2363   */\n    tag_10:\n        /* \"#utility.yul\":2163:2167   */\n      0x00\n        /* \"#utility.yul\":2201:2203   */\n      0x20\n        /* \"#utility.yul\":2190:2199   */\n      dup3\n        /* \"#utility.yul\":2186:2204   */\n      add\n        /* \"#utility.yul\":2178:2204   */\n      swap1\n      pop\n        /* \"#utility.yul\":2250:2259   */\n      dup2\n        /* \"#utility.yul\":2244:2248   */\n      dup2\n        /* \"#utility.yul\":2240:2260   */\n      sub\n        /* \"#utility.yul\":2236:2237   */\n      0x00\n        /* \"#utility.yul\":2225:2234   */\n      dup4\n        /* \"#utility.yul\":2221:2238   */\n      add\n        /* \"#utility.yul\":2214:2261   */\n      mstore\n        /* \"#utility.yul\":2278:2356   */\n      tag_71\n        /* \"#utility.yul\":2351:2355   */\n      dup2\n        /* \"#utility.yul\":2342:2348   */\n      dup5\n        /* \"#utility.yul\":2278:2356   */\n      tag_36\n      jump\t// in\n    tag_71:\n        /* \"#utility.yul\":2270:2356   */\n      swap1\n      pop\n        /* \"#utility.yul\":2050:2363   */\n      swap3\n      swap2\n      pop\n      pop\n      jump\t// out\n        /* \"#utility.yul\":2369:2459   */\n    tag_37:\n        /* \"#utility.yul\":2403:2410   */\n      0x00\n        /* \"#utility.yul\":2446:2451   */\n      dup2\n        /* \"#utility.yul\":2439:2452   */\n      iszero\n        /* \"#utility.yul\":2432:2453   */\n      iszero\n        /* \"#utility.yul\":2421:2453   */\n      swap1\n      pop\n        /* \"#utility.yul\":2369:2459   */\n      swap2\n      swap1\n      pop\n      jump\t// out\n        /* \"#utility.yul\":2465:2574   */\n    tag_38:\n        /* \"#utility.yul\":2546:2567   */\n      tag_74\n        /* \"#utility.yul\":2561:2566   */\n      dup2\n        /* \"#utility.yul\":2546:2567   */\n      tag_37\n      jump\t// in\n    tag_74:\n        /* \"#utility.yul\":2541:2544   */\n      dup3\n        /* \"#utility.yul\":2534:2568   */\n      mstore\n        /* \"#utility.yul\":2465:2574   */\n      pop\n      pop\n      jump\t// out\n        /* \"#utility.yul\":2580:2790   */\n    tag_15:\n        /* \"#utility.yul\":2667:2671   */\n      0x00\n        /* \"#utility.yul\":2705:2707   */\n      0x20\n        /* \"#utility.yul\":2694:2703   */\n      dup3\n        /* \"#utility.yul\":2690:2708   */\n      add\n        /* \"#utility.yul\":2682:2708   */\n      swap1\n      pop\n        /* \"#utility.yul\":2718:2783   */\n      tag_76\n        /* \"#utility.yul\":2780:2781   */\n      0x00\n        /* \"#utility.yul\":2769:2778   */\n      dup4\n        /* \"#utility.yul\":2765:2782   */\n      add\n        /* \"#utility.yul\":2756:2762   */\n      dup5\n        /* \"#utility.yul\":2718:2783   */\n      tag_38\n      jump\t// in\n    tag_76:\n        /* \"#utility.yul\":2580:2790   */\n      swap3\n      swap2\n      pop\n      pop\n      jump\t// out\n        /* \"#utility.yul\":2796:3016   */\n    tag_39:\n        /* \"#utility.yul\":2936:2970   */\n      0x496e7075742069732067726561746572207468616e2075696e74382072616e67\n        /* \"#utility.yul\":2932:2933   */\n      0x00\n        /* \"#utility.yul\":2924:2930   */\n      dup3\n        /* \"#utility.yul\":2920:2934   */\n      add\n        /* \"#utility.yul\":2913:2971   */\n      mstore\n        /* \"#utility.yul\":3005:3008   */\n      0x6500000000000000000000000000000000000000000000000000000000000000\n        /* \"#utility.yul\":3000:3002   */\n      0x20\n        /* \"#utility.yul\":2992:2998   */\n      dup3\n        /* \"#utility.yul\":2988:3003   */\n      add\n        /* \"#utility.yul\":2981:3009   */\n      mstore\n        /* \"#utility.yul\":2796:3016   */\n      pop\n      jump\t// out\n        /* \"#utility.yul\":3022:3388   */\n    tag_40:\n        /* \"#utility.yul\":3164:3167   */\n      0x00\n        /* \"#utility.yul\":3185:3252   */\n      tag_79\n        /* \"#utility.yul\":3249:3251   */\n      0x21\n        /* \"#utility.yul\":3244:3247   */\n      dup4\n        /* \"#utility.yul\":3185:3252   */\n      tag_33\n      jump\t// in\n    tag_79:\n        /* \"#utility.yul\":3178:3252   */\n      swap2\n      pop\n        /* \"#utility.yul\":3261:3354   */\n      tag_80\n        /* \"#utility.yul\":3350:3353   */\n      dup3\n        /* \"#utility.yul\":3261:3354   */\n      tag_39\n      jump\t// in\n    tag_80:\n        /* \"#utility.yul\":3379:3381   */\n      0x40\n        /* \"#utility.yul\":3374:3377   */\n      dup3\n        /* \"#utility.yul\":3370:3382   */\n      add\n        /* \"#utility.yul\":3363:3382   */\n      swap1\n      pop\n        /* \"#utility.yul\":3022:3388   */\n      swap2\n      swap1\n      pop\n      jump\t// out\n        /* \"#utility.yul\":3394:3813   */\n    tag_19:\n        /* \"#utility.yul\":3560:3564   */\n      0x00\n        /* \"#utility.yul\":3598:3600   */\n      0x20\n        /* \"#utility.yul\":3587:3596   */\n      dup3\n        /* \"#utility.yul\":3583:3601   */\n      add\n        /* \"#utility.yul\":3575:3601   */\n      swap1\n      pop\n        /* \"#utility.yul\":3647:3656   */\n      dup2\n        /* \"#utility.yul\":3641:3645   */\n      dup2\n        /* \"#utility.yul\":3637:3657   */\n      sub\n        /* \"#utility.yul\":3633:3634   */\n      0x00\n        /* \"#utility.yul\":3622:3631   */\n      dup4\n        /* \"#utility.yul\":3618:3635   */\n      add\n        /* \"#utility.yul\":3611:3658   */\n      mstore\n        /* \"#utility.yul\":3675:3806   */\n      tag_82\n        /* \"#utility.yul\":3801:3805   */\n      dup2\n        /* \"#utility.yul\":3675:3806   */\n      tag_40\n      jump\t// in\n    tag_82:\n        /* \"#utility.yul\":3667:3806   */\n      swap1\n      pop\n        /* \"#utility.yul\":3394:3813   */\n      swap2\n      swap1\n      pop\n      jump\t// out\n        /* \"#utility.yul\":3819:3999   */\n    tag_41:\n        /* \"#utility.yul\":3867:3944   */\n      0x4e487b7100000000000000000000000000000000000000000000000000000000\n        /* \"#utility.yul\":3864:3865   */\n      0x00\n        /* \"#utility.yul\":3857:3945   */\n      mstore\n        /* \"#utility.yul\":3964:3968   */\n      0x12\n        /* \"#utility.yul\":3961:3962   */\n      0x04\n        /* \"#utility.yul\":3954:3969   */\n      mstore\n        /* \"#utility.yul\":3988:3992   */\n      0x24\n        /* \"#utility.yul\":3985:3986   */\n      0x00\n        /* \"#utility.yul\":3978:3993   */\n      revert\n        /* \"#utility.yul\":4005:4181   */\n    tag_22:\n        /* \"#utility.yul\":4037:4038   */\n      0x00\n        /* \"#utility.yul\":4054:4074   */\n      tag_85\n        /* \"#utility.yul\":4072:4073   */\n      dup3\n        /* \"#utility.yul\":4054:4074   */\n      tag_29\n      jump\t// in\n    tag_85:\n        /* \"#utility.yul\":4049:4074   */\n      swap2\n      pop\n        /* \"#utility.yul\":4088:4108   */\n      tag_86\n        /* \"#utility.yul\":4106:4107   */\n      dup4\n        /* \"#utility.yul\":4088:4108   */\n      tag_29\n      jump\t// in\n    tag_86:\n        /* \"#utility.yul\":4083:4108   */\n      swap3\n      pop\n        /* \"#utility.yul\":4127:4128   */\n      dup3\n        /* \"#utility.yul\":4117:4152   */\n      tag_87\n      jumpi\n        /* \"#utility.yul\":4132:4150   */\n      tag_88\n      tag_41\n      jump\t// in\n    tag_88:\n        /* \"#utility.yul\":4117:4152   */\n    tag_87:\n        /* \"#utility.yul\":4173:4174   */\n      dup3\n        /* \"#utility.yul\":4170:4171   */\n      dup3\n        /* \"#utility.yul\":4166:4175   */\n      mod\n        /* \"#utility.yul\":4161:4175   */\n      swap1\n      pop\n        /* \"#utility.yul\":4005:4181   */\n      swap3\n      swap2\n      pop\n      pop\n      jump\t// out\n        /* \"#utility.yul\":4187:4353   */\n    tag_42:\n        /* \"#utility.yul\":4327:4345   */\n      0x496e707574206973206e6f74206f646400000000000000000000000000000000\n        /* \"#utility.yul\":4323:4324   */\n      0x00\n        /* \"#utility.yul\":4315:4321   */\n      dup3\n        /* \"#utility.yul\":4311:4325   */\n      add\n        /* \"#utility.yul\":4304:4346   */\n      mstore\n        /* \"#utility.yul\":4187:4353   */\n      pop\n      jump\t// out\n        /* \"#utility.yul\":4359:4725   */\n    tag_43:\n        /* \"#utility.yul\":4501:4504   */\n      0x00\n        /* \"#utility.yul\":4522:4589   */\n      tag_91\n        /* \"#utility.yul\":4586:4588   */\n      0x10\n        /* \"#utility.yul\":4581:4584   */\n      dup4\n        /* \"#utility.yul\":4522:4589   */\n      tag_33\n      jump\t// in\n    tag_91:\n        /* \"#utility.yul\":4515:4589   */\n      swap2\n      pop\n        /* \"#utility.yul\":4598:4691   */\n      tag_92\n        /* \"#utility.yul\":4687:4690   */\n      dup3\n        /* \"#utility.yul\":4598:4691   */\n      tag_42\n      jump\t// in\n    tag_92:\n        /* \"#utility.yul\":4716:4718   */\n      0x20\n        /* \"#utility.yul\":4711:4714   */\n      dup3\n        /* \"#utility.yul\":4707:4719   */\n      add\n        /* \"#utility.yul\":4700:4719   */\n      swap1\n      pop\n        /* \"#utility.yul\":4359:4725   */\n      swap2\n      swap1\n      pop\n      jump\t// out\n        /* \"#utility.yul\":4731:5150   */\n    tag_25:\n        /* \"#utility.yul\":4897:4901   */\n      0x00\n        /* \"#utility.yul\":4935:4937   */\n      0x20\n        /* \"#utility.yul\":4924:4933   */\n      dup3\n        /* \"#utility.yul\":4920:4938   */\n      add\n        /* \"#utility.yul\":4912:4938   */\n      swap1\n      pop\n        /* \"#utility.yul\":4984:4993   */\n      dup2\n        /* \"#utility.yul\":4978:4982   */\n      dup2\n        /* \"#utility.yul\":4974:4994   */\n      sub\n        /* \"#utility.yul\":4970:4971   */\n      0x00\n        /* \"#utility.yul\":4959:4968   */\n      dup4\n        /* \"#utility.yul\":4955:4972   */\n      add\n        /* \"#utility.yul\":4948:4995   */\n      mstore\n        /* \"#utility.yul\":5012:5143   */\n      tag_94\n        /* \"#utility.yul\":5138:5142   */\n      dup2\n        /* \"#utility.yul\":5012:5143   */\n      tag_43\n      jump\t// in\n    tag_94:\n        /* \"#utility.yul\":5004:5143   */\n      swap1\n      pop\n        /* \"#utility.yul\":4731:5150   */\n      swap2\n      swap1\n      pop\n      jump\t// out\n\n    auxdata: 0xa2646970667358221220d664e48024168eadfa788de219f1a63fd574508f6470e5bf74fe3f7d80ffe66f64736f6c63430008220033\n}\n",
				"bytecode": {
					"linkReferences": {},
					"object": "6080604052348015600f57600080fd5b5061045b8061001f6000396000f3fe608060405234801561001057600080fd5b50600436106100365760003560e01c8063021b8a7f1461003b5780630602c36a1461006b575b600080fd5b610055600480360381019061005091906101b2565b61009b565b604051610062919061026f565b60405180910390f35b610085600480360381019061008091906101b2565b61011e565b60405161009291906102ac565b60405180910390f35b606060ff8211156100e1576040517f08c379a00000000000000000000000000000000000000000000000000000000081526004016100d890610339565b60405180910390fd5b6040518060400160405280601381526020017f496e707574206669747320696e2075696e7438000000000000000000000000008152509050919050565b60008060028361012e9190610388565b0361016e576040517f08c379a000000000000000000000000000000000000000000000000000000000815260040161016590610405565b60405180910390fd5b60019050919050565b600080fd5b6000819050919050565b61018f8161017c565b811461019a57600080fd5b50565b6000813590506101ac81610186565b92915050565b6000602082840312156101c8576101c7610177565b5b60006101d68482850161019d565b91505092915050565b600081519050919050565b600082825260208201905092915050565b60005b838110156102195780820151818401526020810190506101fe565b60008484015250505050565b6000601f19601f8301169050919050565b6000610241826101df565b61024b81856101ea565b935061025b8185602086016101fb565b61026481610225565b840191505092915050565b600060208201905081810360008301526102898184610236565b905092915050565b60008115159050919050565b6102a681610291565b82525050565b60006020820190506102c1600083018461029d565b92915050565b7f496e7075742069732067726561746572207468616e2075696e74382072616e6760008201527f6500000000000000000000000000000000000000000000000000000000000000602082015250565b60006103236021836101ea565b915061032e826102c7565b604082019050919050565b6000602082019050818103600083015261035281610316565b9050919050565b7f4e487b7100000000000000000000000000000000000000000000000000000000600052601260045260246000fd5b60006103938261017c565b915061039e8361017c565b9250826103ae576103ad610359565b5b828206905092915050565b7f496e707574206973206e6f74206f646400000000000000000000000000000000600082015250565b60006103ef6010836101ea565b91506103fa826103b9565b602082019050919050565b6000602082019050818103600083015261041e816103e2565b905091905056fea2646970667358221220d664e48024168eadfa788de219f1a63fd574508f6470e5bf74fe3f7d80ffe66f64736f6c63430008220033",
					"opcodes": "PUSH1 0x80 PUSH1 0x40 MSTORE CALLVALUE DUP1 ISZERO PUSH1 0xF JUMPI PUSH1 0x0 DUP1 REVERT JUMPDEST POP PUSH2 0x45B DUP1 PUSH2 0x1F PUSH1 0x0 CODECOPY PUSH1 0x0 RETURN INVALID PUSH1 0x80 PUSH1 0x40 MSTORE CALLVALUE DUP1 ISZERO PUSH2 0x10 JUMPI PUSH1 0x0 DUP1 REVERT JUMPDEST POP PUSH1 0x4 CALLDATASIZE LT PUSH2 0x36 JUMPI PUSH1 0x0 CALLDATALOAD PUSH1 0xE0 SHR DUP1 PUSH4 0x21B8A7F EQ PUSH2 0x3B JUMPI DUP1 PUSH4 0x602C36A EQ PUSH2 0x6B JUMPI JUMPDEST PUSH1 0x0 DUP1 REVERT JUMPDEST PUSH2 0x55 PUSH1 0x4 DUP1 CALLDATASIZE SUB DUP2 ADD SWAP1 PUSH2 0x50 SWAP2 SWAP1 PUSH2 0x1B2 JUMP JUMPDEST PUSH2 0x9B JUMP JUMPDEST PUSH1 0x40 MLOAD PUSH2 0x62 SWAP2 SWAP1 PUSH2 0x26F JUMP JUMPDEST PUSH1 0x40 MLOAD DUP1 SWAP2 SUB SWAP1 RETURN JUMPDEST PUSH2 0x85 PUSH1 0x4 DUP1 CALLDATASIZE SUB DUP2 ADD SWAP1 PUSH2 0x80 SWAP2 SWAP1 PUSH2 0x1B2 JUMP JUMPDEST PUSH2 0x11E JUMP JUMPDEST PUSH1 0x40 MLOAD PUSH2 0x92 SWAP2 SWAP1 PUSH2 0x2AC JUMP JUMPDEST PUSH1 0x40 MLOAD DUP1 SWAP2 SUB SWAP1 RETURN JUMPDEST PUSH1 0x60 PUSH1 0xFF DUP3 GT ISZERO PUSH2 0xE1 JUMPI PUSH1 0x40 MLOAD PUSH32 0x8C379A000000000000000000000000000000000000000000000000000000000 DUP2 MSTORE PUSH1 0x4 ADD PUSH2 0xD8 SWAP1 PUSH2 0x339 JUMP JUMPDEST PUSH1 0x40 MLOAD DUP1 SWAP2 SUB SWAP1 REVERT JUMPDEST PUSH1 0x40 MLOAD DUP1 PUSH1 0x40 ADD PUSH1 0x40 MSTORE DUP1 PUSH1 0x13 DUP2 MSTORE PUSH1 0x20 ADD PUSH32 0x496E707574206669747320696E2075696E743800000000000000000000000000 DUP2 MSTORE POP SWAP1 POP SWAP2 SWAP1 POP JUMP JUMPDEST PUSH1 0x0 DUP1 PUSH1 0x2 DUP4 PUSH2 0x12E SWAP2 SWAP1 PUSH2 0x388 JUMP JUMPDEST SUB PUSH2 0x16E JUMPI PUSH1 0x40 MLOAD PUSH32 0x8C379A000000000000000000000000000000000000000000000000000000000 DUP2 MSTORE PUSH1 0x4 ADD PUSH2 0x165 SWAP1 PUSH2 0x405 JUMP JUMPDEST PUSH1 0x40 MLOAD DUP1 SWAP2 SUB SWAP1 REVERT JUMPDEST PUSH1 0x1 SWAP1 POP SWAP2 SWAP1 POP JUMP JUMPDEST PUSH1 0x0 DUP1 REVERT JUMPDEST PUSH1 0x0 DUP2 SWAP1 POP SWAP2 SWAP1 POP JUMP JUMPDEST PUSH2 0x18F DUP2 PUSH2 0x17C JUMP JUMPDEST DUP2 EQ PUSH2 0x19A JUMPI PUSH1 0x0 DUP1 REVERT JUMPDEST POP JUMP JUMPDEST PUSH1 0x0 DUP2 CALLDATALOAD SWAP1 POP PUSH2 0x1AC DUP2 PUSH2 0x186 JUMP JUMPDEST SWAP3 SWAP2 POP POP JUMP JUMPDEST PUSH1 0x0 PUSH1 0x20 DUP3 DUP5 SUB SLT ISZERO PUSH2 0x1C8 JUMPI PUSH2 0x1C7 PUSH2 0x177 JUMP JUMPDEST JUMPDEST PUSH1 0x0 PUSH2 0x1D6 DUP5 DUP3 DUP6 ADD PUSH2 0x19D JUMP JUMPDEST SWAP2 POP POP SWAP3 SWAP2 POP POP JUMP JUMPDEST PUSH1 0x0 DUP2 MLOAD SWAP1 POP SWAP2 SWAP1 POP JUMP JUMPDEST PUSH1 0x0 DUP3 DUP3 MSTORE PUSH1 0x20 DUP3 ADD SWAP1 POP SWAP3 SWAP2 POP POP JUMP JUMPDEST PUSH1 0x0 JUMPDEST DUP4 DUP2 LT ISZERO PUSH2 0x219 JUMPI DUP1 DUP3 ADD MLOAD DUP2 DUP5 ADD MSTORE PUSH1 0x20 DUP2 ADD SWAP1 POP PUSH2 0x1FE JUMP JUMPDEST PUSH1 0x0 DUP5 DUP5 ADD MSTORE POP POP POP POP JUMP JUMPDEST PUSH1 0x0 PUSH1 0x1F NOT PUSH1 0x1F DUP4 ADD AND SWAP1 POP SWAP2 SWAP1 POP JUMP JUMPDEST PUSH1 0x0 PUSH2 0x241 DUP3 PUSH2 0x1DF JUMP JUMPDEST PUSH2 0x24B DUP2 DUP6 PUSH2 0x1EA JUMP JUMPDEST SWAP4 POP PUSH2 0x25B DUP2 DUP6 PUSH1 0x20 DUP7 ADD PUSH2 0x1FB JUMP JUMPDEST PUSH2 0x264 DUP2 PUSH2 0x225 JUMP JUMPDEST DUP5 ADD SWAP2 POP POP SWAP3 SWAP2 POP POP JUMP JUMPDEST PUSH1 0x0 PUSH1 0x20 DUP3 ADD SWAP1 POP DUP2 DUP2 SUB PUSH1 0x0 DUP4 ADD MSTORE PUSH2 0x289 DUP2 DUP5 PUSH2 0x236 JUMP JUMPDEST SWAP1 POP SWAP3 SWAP2 POP POP JUMP JUMPDEST PUSH1 0x0 DUP2 ISZERO ISZERO SWAP1 POP SWAP2 SWAP1 POP JUMP JUMPDEST PUSH2 0x2A6 DUP2 PUSH2 0x291 JUMP JUMPDEST DUP3 MSTORE POP POP JUMP JUMPDEST PUSH1 0x0 PUSH1 0x20 DUP3 ADD SWAP1 POP PUSH2 0x2C1 PUSH1 0x0 DUP4 ADD DUP5 PUSH2 0x29D JUMP JUMPDEST SWAP3 SWAP2 POP POP JUMP JUMPDEST PUSH32 0x496E7075742069732067726561746572207468616E2075696E74382072616E67 PUSH1 0x0 DUP3 ADD MSTORE PUSH32 0x6500000000000000000000000000000000000000000000000000000000000000 PUSH1 0x20 DUP3 ADD MSTORE POP JUMP JUMPDEST PUSH1 0x0 PUSH2 0x323 PUSH1 0x21 DUP4 PUSH2 0x1EA JUMP JUMPDEST SWAP2 POP PUSH2 0x32E DUP3 PUSH2 0x2C7 JUMP JUMPDEST PUSH1 0x40 DUP3 ADD SWAP1 POP SWAP2 SWAP1 POP JUMP JUMPDEST PUSH1 0x0 PUSH1 0x20 DUP3 ADD SWAP1 POP DUP2 DUP2 SUB PUSH1 0x0 DUP4 ADD MSTORE PUSH2 0x352 DUP2 PUSH2 0x316 JUMP JUMPDEST SWAP1 POP SWAP2 SWAP1 POP JUMP JUMPDEST PUSH32 0x4E487B7100000000000000000000000000000000000000000000000000000000 PUSH1 0x0 MSTORE PUSH1 0x12 PUSH1 0x4 MSTORE PUSH1 0x24 PUSH1 0x0 REVERT JUMPDEST PUSH1 0x0 PUSH2 0x393 DUP3 PUSH2 0x17C JUMP JUMPDEST SWAP2 POP PUSH2 0x39E DUP4 PUSH2 0x17C JUMP JUMPDEST SWAP3 POP DUP3 PUSH2 0x3AE JUMPI PUSH2 0x3AD PUSH2 0x359 JUMP JUMPDEST JUMPDEST DUP3 DUP3 MOD SWAP1 POP SWAP3 SWAP2 POP POP JUMP JUMPDEST PUSH32 0x496E707574206973206E6F74206F646400000000000000000000000000000000 PUSH1 0x0 DUP3 ADD MSTORE POP JUMP JUMPDEST PUSH1 0x0 PUSH2 0x3EF PUSH1 0x10 DUP4 PUSH2 0x1EA JUMP JUMPDEST SWAP2 POP PUSH2 0x3FA DUP3 PUSH2 0x3B9 JUMP JUMPDEST PUSH1 0x20 DUP3 ADD SWAP1 POP SWAP2 SWAP1 POP JUMP JUMPDEST PUSH1 0x0 PUSH1 0x20 DUP3 ADD SWAP1 POP DUP2 DUP2 SUB PUSH1 0x0 DUP4 ADD MSTORE PUSH2 0x41E DUP2 PUSH2 0x3E2 JUMP JUMPDEST SWAP1 POP SWAP2 SWAP1 POP JUMP INVALID LOG2 PUSH5 0x6970667358 0x22 SLT KECCAK256 0xD6 PUSH5 0xE48024168E 0xAD STATICCALL PUSH25 0x8DE219F1A63FD574508F6470E5BF74FE3F7D80FFE66F64736F PUSH13 0x63430008220033000000000000 "
				},
				"gasEstimates": {
					"creation": {
						"codeDepositCost": "223000",
						"executionCost": "263",
						"totalCost": "223263"
					},
					"external": {
						"checkInput(uint256)": "infinite",
						"odd(uint256)": "infinite"
					}
				},
				"methodIdentifiers": {
					"checkInput(uint256)": "021b8a7f",
					"odd(uint256)": "0602c36a"
				}
			},
			"storageLayout": {
				"storage": [],
				"types": null
			},
			"userdoc": {
				"kind": "user",
				"methods": {},
				"version": 1
			}
		}
	}
}