{
	"Arrayremoving.sol": {
		"arrayremovebyshifting": {
			"abi": [
				{
					"inputs": [
						{
							"internalType": "uint256",
							"name": "_index",
							"type": "uint256"
						}
					],
					"name": "remove",
					"outputs": [],
					"stateMutability": "nonpayable",
					"type": "function"
				},
				{
					"inputs": [],
					"name": "test",
					"outputs": [],
					"stateMutability": "nonpayable",
					"type": "function"
				}
			],
			"devdoc": {
				"kind": "dev",
				"methods": {},
				"version": 1
			},
			"evm": {
				"assembly": "    /* \"Arrayremoving.sol\":61:534  contract arrayremovebyshifting{... */\n  mstore(0x40, 0x80)\n  callvalue\n  dup1\n  iszero\n  tag_1\n  jumpi\n  0x00\n  dup1\n  revert\ntag_1:\n  pop\n  dataSize(sub_0)\n  dup1\n  dataOffset(sub_0)\n  0x00\n  codecopy\n  0x00\n  return\nstop\n\nsub_0: assembly {\n        /* \"Arrayremoving.sol\":61:534  contract arrayremovebyshifting{... */\n      mstore(0x40, 0x80)\n      callvalue\n      dup1\n      iszero\n      tag_1\n      jumpi\n      0x00\n      dup1\n      revert\n    tag_1:\n      pop\n      jumpi(tag_2, lt(calldatasize, 0x04))\n      shr(0xe0, calldataload(0x00))\n      dup1\n      0x4cc82215\n      eq\n      tag_3\n      jumpi\n      dup1\n      0xf8a8fd6d\n      eq\n      tag_4\n      jumpi\n    tag_2:\n      0x00\n      dup1\n      revert\n        /* \"Arrayremoving.sol\":119:317  function remove(uint _index)public{... */\n    tag_3:\n      tag_5\n      0x04\n      dup1\n      calldatasize\n      sub\n      dup2\n      add\n      swap1\n      tag_6\n      swap2\n      swap1\n      tag_7\n      jump\t// in\n    tag_6:\n      tag_8\n      jump\t// in\n    tag_5:\n      stop\n        /* \"Arrayremoving.sol\":321:531  function test() external {... */\n    tag_4:\n      tag_9\n      tag_10\n      jump\t// in\n    tag_9:\n      stop\n        /* \"Arrayremoving.sol\":119:317  function remove(uint _index)public{... */\n    tag_8:\n        /* \"Arrayremoving.sol\":177:180  arr */\n      0x00\n        /* \"Arrayremoving.sol\":177:187  arr.length */\n      dup1\n      sload\n      swap1\n      pop\n        /* \"Arrayremoving.sol\":168:174  _index */\n      dup2\n        /* \"Arrayremoving.sol\":168:187  _index < arr.length */\n      lt\n        /* \"Arrayremoving.sol\":160:209  require(_index < arr.length, \"Index outof bound\") */\n      tag_12\n      jumpi\n      mload(0x40)\n      0x08c379a000000000000000000000000000000000000000000000000000000000\n      dup2\n      mstore\n      0x04\n      add\n      tag_13\n      swap1\n      tag_14\n      jump\t// in\n    tag_13:\n      mload(0x40)\n      dup1\n      swap2\n      sub\n      swap1\n      revert\n    tag_12:\n        /* \"Arrayremoving.sol\":222:228  uint i */\n      0x00\n        /* \"Arrayremoving.sol\":231:237  _index */\n      dup2\n        /* \"Arrayremoving.sol\":222:237  uint i = _index */\n      swap1\n      pop\n        /* \"Arrayremoving.sol\":218:298  for(uint i = _index; i < arr.length -1; i++){... */\n    tag_15:\n        /* \"Arrayremoving.sol\":255:256  1 */\n      0x01\n        /* \"Arrayremoving.sol\":243:246  arr */\n      0x00\n        /* \"Arrayremoving.sol\":243:253  arr.length */\n      dup1\n      sload\n      swap1\n      pop\n        /* \"Arrayremoving.sol\":243:256  arr.length -1 */\n      tag_18\n      swap2\n      swap1\n      tag_19\n      jump\t// in\n    tag_18:\n        /* \"Arrayremoving.sol\":239:240  i */\n      dup2\n        /* \"Arrayremoving.sol\":239:256  i < arr.length -1 */\n      lt\n        /* \"Arrayremoving.sol\":218:298  for(uint i = _index; i < arr.length -1; i++){... */\n      iszero\n      tag_16\n      jumpi\n        /* \"Arrayremoving.sol\":282:285  arr */\n      0x00\n        /* \"Arrayremoving.sol\":288:289  1 */\n      0x01\n        /* \"Arrayremoving.sol\":286:287  i */\n      dup3\n        /* \"Arrayremoving.sol\":286:289  i+1 */\n      tag_20\n      swap2\n      swap1\n      tag_21\n      jump\t// in\n    tag_20:\n        /* \"Arrayremoving.sol\":282:290  arr[i+1] */\n      dup2\n      sload\n      dup2\n      lt\n      tag_22\n      jumpi\n      tag_23\n      tag_24\n      jump\t// in\n    tag_23:\n    tag_22:\n      swap1\n      0x00\n      mstore\n      keccak256(0x00, 0x20)\n      add\n      sload\n        /* \"Arrayremoving.sol\":273:276  arr */\n      0x00\n        /* \"Arrayremoving.sol\":277:278  i */\n      dup3\n        /* \"Arrayremoving.sol\":273:279  arr[i] */\n      dup2\n      sload\n      dup2\n      lt\n      tag_26\n      jumpi\n      tag_27\n      tag_24\n      jump\t// in\n    tag_27:\n    tag_26:\n      swap1\n      0x00\n      mstore\n      keccak256(0x00, 0x20)\n      add\n        /* \"Arrayremoving.sol\":273:290  arr[i] = arr[i+1] */\n      dup2\n      swap1\n      sstore\n      pop\n        /* \"Arrayremoving.sol\":258:261  i++ */\n      dup1\n      dup1\n      0x01\n      add\n      swap2\n      pop\n      pop\n        /* \"Arrayremoving.sol\":218:298  for(uint i = _index; i < arr.length -1; i++){... */\n      jump(tag_15)\n    tag_16:\n      pop\n        /* \"Arrayremoving.sol\":304:307  arr */\n      0x00\n        /* \"Arrayremoving.sol\":304:313  arr.pop() */\n      dup1\n      sload\n      dup1\n      tag_29\n      jumpi\n      tag_30\n      tag_31\n      jump\t// in\n    tag_30:\n    tag_29:\n      0x01\n      swap1\n      sub\n      dup2\n      dup2\n      swap1\n      0x00\n      mstore\n      keccak256(0x00, 0x20)\n      add\n      0x00\n      swap1\n      sstore\n      swap1\n      sstore\n        /* \"Arrayremoving.sol\":119:317  function remove(uint _index)public{... */\n      pop\n      jump\t// out\n        /* \"Arrayremoving.sol\":321:531  function test() external {... */\n    tag_10:\n        /* \"Arrayremoving.sol\":353:369  arr =[1,2,3,4,5] */\n      mload(0x40)\n      dup1\n      0xa0\n      add\n      0x40\n      mstore\n      dup1\n        /* \"Arrayremoving.sol\":359:360  1 */\n      0x01\n        /* \"Arrayremoving.sol\":353:369  arr =[1,2,3,4,5] */\n      0xff\n      and\n      dup2\n      mstore\n      0x20\n      add\n        /* \"Arrayremoving.sol\":361:362  2 */\n      0x02\n        /* \"Arrayremoving.sol\":353:369  arr =[1,2,3,4,5] */\n      0xff\n      and\n      dup2\n      mstore\n      0x20\n      add\n        /* \"Arrayremoving.sol\":363:364  3 */\n      0x03\n        /* \"Arrayremoving.sol\":353:369  arr =[1,2,3,4,5] */\n      0xff\n      and\n      dup2\n      mstore\n      0x20\n      add\n        /* \"Arrayremoving.sol\":365:366  4 */\n      0x04\n        /* \"Arrayremoving.sol\":353:369  arr =[1,2,3,4,5] */\n      0xff\n      and\n      dup2\n      mstore\n      0x20\n      add\n        /* \"Arrayremoving.sol\":367:368  5 */\n      0x05\n        /* \"Arrayremoving.sol\":353:369  arr =[1,2,3,4,5] */\n      0xff\n      and\n      dup2\n      mstore\n      pop\n        /* \"Arrayremoving.sol\":353:356  arr */\n      0x00\n        /* \"Arrayremoving.sol\":353:369  arr =[1,2,3,4,5] */\n      swap1\n      dup2\n      tag_34\n      swap2\n      swap1\n      tag_35\n      jump\t// in\n    tag_34:\n      pop\n        /* \"Arrayremoving.sol\":376:385  remove(2) */\n      tag_36\n        /* \"Arrayremoving.sol\":383:384  2 */\n      0x02\n        /* \"Arrayremoving.sol\":376:382  remove */\n      tag_8\n        /* \"Arrayremoving.sol\":376:385  remove(2) */\n      jump\t// in\n    tag_36:\n        /* \"Arrayremoving.sol\":409:410  1 */\n      0x01\n        /* \"Arrayremoving.sol\":399:402  arr */\n      0x00\n        /* \"Arrayremoving.sol\":403:404  0 */\n      dup1\n        /* \"Arrayremoving.sol\":399:405  arr[0] */\n      dup2\n      sload\n      dup2\n      lt\n      tag_37\n      jumpi\n      tag_38\n      tag_24\n      jump\t// in\n    tag_38:\n    tag_37:\n      swap1\n      0x00\n      mstore\n      keccak256(0x00, 0x20)\n      add\n      sload\n        /* \"Arrayremoving.sol\":399:410  arr[0] == 1 */\n      eq\n        /* \"Arrayremoving.sol\":392:411  assert(arr[0] == 1) */\n      tag_40\n      jumpi\n      tag_41\n      tag_42\n      jump\t// in\n    tag_41:\n    tag_40:\n        /* \"Arrayremoving.sol\":435:436  2 */\n      0x02\n        /* \"Arrayremoving.sol\":425:428  arr */\n      0x00\n        /* \"Arrayremoving.sol\":429:430  1 */\n      0x01\n        /* \"Arrayremoving.sol\":425:431  arr[1] */\n      dup2\n      sload\n      dup2\n      lt\n      tag_43\n      jumpi\n      tag_44\n      tag_24\n      jump\t// in\n    tag_44:\n    tag_43:\n      swap1\n      0x00\n      mstore\n      keccak256(0x00, 0x20)\n      add\n      sload\n        /* \"Arrayremoving.sol\":425:436  arr[1] == 2 */\n      eq\n        /* \"Arrayremoving.sol\":418:437  assert(arr[1] == 2) */\n      tag_46\n      jumpi\n      tag_47\n      tag_42\n      jump\t// in\n    tag_47:\n    tag_46:\n        /* \"Arrayremoving.sol\":461:462  4 */\n      0x04\n        /* \"Arrayremoving.sol\":451:454  arr */\n      0x00\n        /* \"Arrayremoving.sol\":455:456  2 */\n      0x02\n        /* \"Arrayremoving.sol\":451:457  arr[2] */\n      dup2\n      sload\n      dup2\n      lt\n      tag_48\n      jumpi\n      tag_49\n      tag_24\n      jump\t// in\n    tag_49:\n    tag_48:\n      swap1\n      0x00\n      mstore\n      keccak256(0x00, 0x20)\n      add\n      sload\n        /* \"Arrayremoving.sol\":451:462  arr[2] == 4 */\n      eq\n        /* \"Arrayremoving.sol\":444:463  assert(arr[2] == 4) */\n      tag_51\n      jumpi\n      tag_52\n      tag_42\n      jump\t// in\n    tag_52:\n    tag_51:\n        /* \"Arrayremoving.sol\":487:488  5 */\n      0x05\n        /* \"Arrayremoving.sol\":477:480  arr */\n      0x00\n        /* \"Arrayremoving.sol\":481:482  3 */\n      0x03\n        /* \"Arrayremoving.sol\":477:483  arr[3] */\n      dup2\n      sload\n      dup2\n      lt\n      tag_53\n      jumpi\n      tag_54\n      tag_24\n      jump\t// in\n    tag_54:\n    tag_53:\n      swap1\n      0x00\n      mstore\n      keccak256(0x00, 0x20)\n      add\n      sload\n        /* \"Arrayremoving.sol\":477:488  arr[3] == 5 */\n      eq\n        /* \"Arrayremoving.sol\":470:489  assert(arr[3] == 5) */\n      tag_56\n      jumpi\n      tag_57\n      tag_42\n      jump\t// in\n    tag_57:\n    tag_56:\n        /* \"Arrayremoving.sol\":517:518  4 */\n      0x04\n        /* \"Arrayremoving.sol\":503:506  arr */\n      0x00\n        /* \"Arrayremoving.sol\":503:513  arr.length */\n      dup1\n      sload\n      swap1\n      pop\n        /* \"Arrayremoving.sol\":503:518  arr.length == 4 */\n      eq\n        /* \"Arrayremoving.sol\":496:519  assert(arr.length == 4) */\n      tag_58\n      jumpi\n      tag_59\n      tag_42\n      jump\t// in\n    tag_59:\n    tag_58:\n        /* \"Arrayremoving.sol\":321:531  function test() external {... */\n      jump\t// out\n        /* \"#utility.yul\":88:205   */\n    tag_61:\n        /* \"#utility.yul\":197:198   */\n      0x00\n        /* \"#utility.yul\":194:195   */\n      dup1\n        /* \"#utility.yul\":187:199   */\n      revert\n        /* \"#utility.yul\":334:411   */\n    tag_63:\n        /* \"#utility.yul\":371:378   */\n      0x00\n        /* \"#utility.yul\":400:405   */\n      dup2\n        /* \"#utility.yul\":389:405   */\n      swap1\n      pop\n        /* \"#utility.yul\":334:411   */\n      swap2\n      swap1\n      pop\n      jump\t// out\n        /* \"#utility.yul\":417:539   */\n    tag_64:\n        /* \"#utility.yul\":490:514   */\n      tag_101\n        /* \"#utility.yul\":508:513   */\n      dup2\n        /* \"#utility.yul\":490:514   */\n      tag_63\n      jump\t// in\n    tag_101:\n        /* \"#utility.yul\":483:488   */\n      dup2\n        /* \"#utility.yul\":480:515   */\n      eq\n        /* \"#utility.yul\":470:533   */\n      tag_102\n      jumpi\n        /* \"#utility.yul\":529:530   */\n      0x00\n        /* \"#utility.yul\":526:527   */\n      dup1\n        /* \"#utility.yul\":519:531   */\n      revert\n        /* \"#utility.yul\":470:533   */\n    tag_102:\n        /* \"#utility.yul\":417:539   */\n      pop\n      jump\t// out\n        /* \"#utility.yul\":545:684   */\n    tag_65:\n        /* \"#utility.yul\":591:596   */\n      0x00\n        /* \"#utility.yul\":629:635   */\n      dup2\n        /* \"#utility.yul\":616:636   */\n      calldataload\n        /* \"#utility.yul\":607:636   */\n      swap1\n      pop\n        /* \"#utility.yul\":645:678   */\n      tag_104\n        /* \"#utility.yul\":672:677   */\n      dup2\n        /* \"#utility.yul\":645:678   */\n      tag_64\n      jump\t// in\n    tag_104:\n        /* \"#utility.yul\":545:684   */\n      swap3\n      swap2\n      pop\n      pop\n      jump\t// out\n        /* \"#utility.yul\":690:1019   */\n    tag_7:\n        /* \"#utility.yul\":749:755   */\n      0x00\n        /* \"#utility.yul\":798:800   */\n      0x20\n        /* \"#utility.yul\":786:795   */\n      dup3\n        /* \"#utility.yul\":777:784   */\n      dup5\n        /* \"#utility.yul\":773:796   */\n      sub\n        /* \"#utility.yul\":769:801   */\n      slt\n        /* \"#utility.yul\":766:885   */\n      iszero\n      tag_106\n      jumpi\n        /* \"#utility.yul\":804:883   */\n      tag_107\n      tag_61\n      jump\t// in\n    tag_107:\n        /* \"#utility.yul\":766:885   */\n    tag_106:\n        /* \"#utility.yul\":924:925   */\n      0x00\n        /* \"#utility.yul\":949:1002   */\n      tag_108\n        /* \"#utility.yul\":994:1001   */\n      dup5\n        /* \"#utility.yul\":985:991   */\n      dup3\n        /* \"#utility.yul\":974:983   */\n      dup6\n        /* \"#utility.yul\":970:992   */\n      add\n        /* \"#utility.yul\":949:1002   */\n      tag_65\n      jump\t// in\n    tag_108:\n        /* \"#utility.yul\":939:1002   */\n      swap2\n      pop\n        /* \"#utility.yul\":895:1012   */\n      pop\n        /* \"#utility.yul\":690:1019   */\n      swap3\n      swap2\n      pop\n      pop\n      jump\t// out\n        /* \"#utility.yul\":1025:1194   */\n    tag_66:\n        /* \"#utility.yul\":1109:1120   */\n      0x00\n        /* \"#utility.yul\":1143:1149   */\n      dup3\n        /* \"#utility.yul\":1138:1141   */\n      dup3\n        /* \"#utility.yul\":1131:1150   */\n      mstore\n        /* \"#utility.yul\":1183:1187   */\n      0x20\n        /* \"#utility.yul\":1178:1181   */\n      dup3\n        /* \"#utility.yul\":1174:1188   */\n      add\n        /* \"#utility.yul\":1159:1188   */\n      swap1\n      pop\n        /* \"#utility.yul\":1025:1194   */\n      swap3\n      swap2\n      pop\n      pop\n      jump\t// out\n        /* \"#utility.yul\":1200:1367   */\n    tag_67:\n        /* \"#utility.yul\":1340:1359   */\n      0x496e646578206f75746f6620626f756e64000000000000000000000000000000\n        /* \"#utility.yul\":1336:1337   */\n      0x00\n        /* \"#utility.yul\":1328:1334   */\n      dup3\n        /* \"#utility.yul\":1324:1338   */\n      add\n        /* \"#utility.yul\":1317:1360   */\n      mstore\n        /* \"#utility.yul\":1200:1367   */\n      pop\n      jump\t// out\n        /* \"#utility.yul\":1373:1739   */\n    tag_68:\n        /* \"#utility.yul\":1515:1518   */\n      0x00\n        /* \"#utility.yul\":1536:1603   */\n      tag_112\n        /* \"#utility.yul\":1600:1602   */\n      0x11\n        /* \"#utility.yul\":1595:1598   */\n      dup4\n        /* \"#utility.yul\":1536:1603   */\n      tag_66\n      jump\t// in\n    tag_112:\n        /* \"#utility.yul\":1529:1603   */\n      swap2\n      pop\n        /* \"#utility.yul\":1612:1705   */\n      tag_113\n        /* \"#utility.yul\":1701:1704   */\n      dup3\n        /* \"#utility.yul\":1612:1705   */\n      tag_67\n      jump\t// in\n    tag_113:\n        /* \"#utility.yul\":1730:1732   */\n      0x20\n        /* \"#utility.yul\":1725:1728   */\n      dup3\n        /* \"#utility.yul\":1721:1733   */\n      add\n        /* \"#utility.yul\":1714:1733   */\n      swap1\n      pop\n        /* \"#utility.yul\":1373:1739   */\n      swap2\n      swap1\n      pop\n      jump\t// out\n        /* \"#utility.yul\":1745:2164   */\n    tag_14:\n        /* \"#utility.yul\":1911:1915   */\n      0x00\n        /* \"#utility.yul\":1949:1951   */\n      0x20\n        /* \"#utility.yul\":1938:1947   */\n      dup3\n        /* \"#utility.yul\":1934:1952   */\n      add\n        /* \"#utility.yul\":1926:1952   */\n      swap1\n      pop\n        /* \"#utility.yul\":1998:2007   */\n      dup2\n        /* \"#utility.yul\":1992:1996   */\n      dup2\n        /* \"#utility.yul\":1988:2008   */\n      sub\n        /* \"#utility.yul\":1984:1985   */\n      0x00\n        /* \"#utility.yul\":1973:1982   */\n      dup4\n        /* \"#utility.yul\":1969:1986   */\n      add\n        /* \"#utility.yul\":1962:2009   */\n      mstore\n        /* \"#utility.yul\":2026:2157   */\n      tag_115\n        /* \"#utility.yul\":2152:2156   */\n      dup2\n        /* \"#utility.yul\":2026:2157   */\n      tag_68\n      jump\t// in\n    tag_115:\n        /* \"#utility.yul\":2018:2157   */\n      swap1\n      pop\n        /* \"#utility.yul\":1745:2164   */\n      swap2\n      swap1\n      pop\n      jump\t// out\n        /* \"#utility.yul\":2170:2350   */\n    tag_69:\n        /* \"#utility.yul\":2218:2295   */\n      0x4e487b7100000000000000000000000000000000000000000000000000000000\n        /* \"#utility.yul\":2215:2216   */\n      0x00\n        /* \"#utility.yul\":2208:2296   */\n      mstore\n        /* \"#utility.yul\":2315:2319   */\n      0x11\n        /* \"#utility.yul\":2312:2313   */\n      0x04\n        /* \"#utility.yul\":2305:2320   */\n      mstore\n        /* \"#utility.yul\":2339:2343   */\n      0x24\n        /* \"#utility.yul\":2336:2337   */\n      0x00\n        /* \"#utility.yul\":2329:2344   */\n      revert\n        /* \"#utility.yul\":2356:2550   */\n    tag_19:\n        /* \"#utility.yul\":2396:2400   */\n      0x00\n        /* \"#utility.yul\":2416:2436   */\n      tag_118\n        /* \"#utility.yul\":2434:2435   */\n      dup3\n        /* \"#utility.yul\":2416:2436   */\n      tag_63\n      jump\t// in\n    tag_118:\n        /* \"#utility.yul\":2411:2436   */\n      swap2\n      pop\n        /* \"#utility.yul\":2450:2470   */\n      tag_119\n        /* \"#utility.yul\":2468:2469   */\n      dup4\n        /* \"#utility.yul\":2450:2470   */\n      tag_63\n      jump\t// in\n    tag_119:\n        /* \"#utility.yul\":2445:2470   */\n      swap3\n      pop\n        /* \"#utility.yul\":2494:2495   */\n      dup3\n        /* \"#utility.yul\":2491:2492   */\n      dup3\n        /* \"#utility.yul\":2487:2496   */\n      sub\n        /* \"#utility.yul\":2479:2496   */\n      swap1\n      pop\n        /* \"#utility.yul\":2518:2519   */\n      dup2\n        /* \"#utility.yul\":2512:2516   */\n      dup2\n        /* \"#utility.yul\":2509:2520   */\n      gt\n        /* \"#utility.yul\":2506:2543   */\n      iszero\n      tag_120\n      jumpi\n        /* \"#utility.yul\":2523:2541   */\n      tag_121\n      tag_69\n      jump\t// in\n    tag_121:\n        /* \"#utility.yul\":2506:2543   */\n    tag_120:\n        /* \"#utility.yul\":2356:2550   */\n      swap3\n      swap2\n      pop\n      pop\n      jump\t// out\n        /* \"#utility.yul\":2556:2747   */\n    tag_21:\n        /* \"#utility.yul\":2596:2599   */\n      0x00\n        /* \"#utility.yul\":2615:2635   */\n      tag_123\n        /* \"#utility.yul\":2633:2634   */\n      dup3\n        /* \"#utility.yul\":2615:2635   */\n      tag_63\n      jump\t// in\n    tag_123:\n        /* \"#utility.yul\":2610:2635   */\n      swap2\n      pop\n        /* \"#utility.yul\":2649:2669   */\n      tag_124\n        /* \"#utility.yul\":2667:2668   */\n      dup4\n        /* \"#utility.yul\":2649:2669   */\n      tag_63\n      jump\t// in\n    tag_124:\n        /* \"#utility.yul\":2644:2669   */\n      swap3\n      pop\n        /* \"#utility.yul\":2692:2693   */\n      dup3\n        /* \"#utility.yul\":2689:2690   */\n      dup3\n        /* \"#utility.yul\":2685:2694   */\n      add\n        /* \"#utility.yul\":2678:2694   */\n      swap1\n      pop\n        /* \"#utility.yul\":2713:2716   */\n      dup1\n        /* \"#utility.yul\":2710:2711   */\n      dup3\n        /* \"#utility.yul\":2707:2717   */\n      gt\n        /* \"#utility.yul\":2704:2740   */\n      iszero\n      tag_125\n      jumpi\n        /* \"#utility.yul\":2720:2738   */\n      tag_126\n      tag_69\n      jump\t// in\n    tag_126:\n        /* \"#utility.yul\":2704:2740   */\n    tag_125:\n        /* \"#utility.yul\":2556:2747   */\n      swap3\n      swap2\n      pop\n      pop\n      jump\t// out\n        /* \"#utility.yul\":2753:2933   */\n    tag_24:\n        /* \"#utility.yul\":2801:2878   */\n      0x4e487b7100000000000000000000000000000000000000000000000000000000\n        /* \"#utility.yul\":2798:2799   */\n      0x00\n        /* \"#utility.yul\":2791:2879   */\n      mstore\n        /* \"#utility.yul\":2898:2902   */\n      0x32\n        /* \"#utility.yul\":2895:2896   */\n      0x04\n        /* \"#utility.yul\":2888:2903   */\n      mstore\n        /* \"#utility.yul\":2922:2926   */\n      0x24\n        /* \"#utility.yul\":2919:2920   */\n      0x00\n        /* \"#utility.yul\":2912:2927   */\n      revert\n        /* \"#utility.yul\":2939:3119   */\n    tag_31:\n        /* \"#utility.yul\":2987:3064   */\n      0x4e487b7100000000000000000000000000000000000000000000000000000000\n        /* \"#utility.yul\":2984:2985   */\n      0x00\n        /* \"#utility.yul\":2977:3065   */\n      mstore\n        /* \"#utility.yul\":3084:3088   */\n      0x31\n        /* \"#utility.yul\":3081:3082   */\n      0x04\n        /* \"#utility.yul\":3074:3089   */\n      mstore\n        /* \"#utility.yul\":3108:3112   */\n      0x24\n        /* \"#utility.yul\":3105:3106   */\n      0x00\n        /* \"#utility.yul\":3098:3113   */\n      revert\n        /* \"#utility.yul\":3125:3305   */\n    tag_70:\n        /* \"#utility.yul\":3173:3250   */\n      0x4e487b7100000000000000000000000000000000000000000000000000000000\n        /* \"#utility.yul\":3170:3171   */\n      0x00\n        /* \"#utility.yul\":3163:3251   */\n      mstore\n        /* \"#utility.yul\":3270:3274   */\n      0x41\n        /* \"#utility.yul\":3267:3268   */\n      0x04\n        /* \"#utility.yul\":3260:3275   */\n      mstore\n        /* \"#utility.yul\":3294:3298   */\n      0x24\n        /* \"#utility.yul\":3291:3292   */\n      0x00\n        /* \"#utility.yul\":3284:3299   */\n      revert\n        /* \"#utility.yul\":3311:3422   */\n    tag_71:\n        /* \"#utility.yul\":3375:3381   */\n      0x00\n        /* \"#utility.yul\":3409:3414   */\n      dup2\n        /* \"#utility.yul\":3403:3415   */\n      sload\n        /* \"#utility.yul\":3393:3415   */\n      swap1\n      pop\n        /* \"#utility.yul\":3311:3422   */\n      swap2\n      swap1\n      pop\n      jump\t// out\n        /* \"#utility.yul\":3844:4047   */\n    tag_73:\n        /* \"#utility.yul\":3925:3929   */\n      0x00\n        /* \"#utility.yul\":3948:3954   */\n      dup2\n        /* \"#utility.yul\":3940:3954   */\n      swap1\n      pop\n        /* \"#utility.yul\":4038:4039   */\n      0x01\n        /* \"#utility.yul\":4033:4034   */\n      dup1\n        /* \"#utility.yul\":4030:4031   */\n      0x01\n        /* \"#utility.yul\":4026:4035   */\n      sub\n        /* \"#utility.yul\":4018:4024   */\n      dup4\n        /* \"#utility.yul\":4014:4036   */\n      add\n        /* \"#utility.yul\":4010:4040   */\n      div\n        /* \"#utility.yul\":4002:4040   */\n      swap1\n      pop\n        /* \"#utility.yul\":3844:4047   */\n      swap2\n      swap1\n      pop\n      jump\t// out\n        /* \"#utility.yul\":4052:4208   */\n    tag_74:\n        /* \"#utility.yul\":4116:4120   */\n      0x00\n        /* \"#utility.yul\":4139:4142   */\n      dup2\n        /* \"#utility.yul\":4131:4142   */\n      swap1\n      pop\n        /* \"#utility.yul\":4162:4165   */\n      dup2\n        /* \"#utility.yul\":4159:4160   */\n      0x00\n        /* \"#utility.yul\":4152:4166   */\n      mstore\n        /* \"#utility.yul\":4196:4200   */\n      0x20\n        /* \"#utility.yul\":4193:4194   */\n      0x00\n        /* \"#utility.yul\":4183:4201   */\n      keccak256\n        /* \"#utility.yul\":4175:4201   */\n      swap1\n      pop\n        /* \"#utility.yul\":4052:4208   */\n      swap2\n      swap1\n      pop\n      jump\t// out\n        /* \"#utility.yul\":4214:4321   */\n    tag_75:\n        /* \"#utility.yul\":4258:4266   */\n      0x00\n        /* \"#utility.yul\":4308:4313   */\n      dup3\n        /* \"#utility.yul\":4302:4306   */\n      dup3\n        /* \"#utility.yul\":4298:4314   */\n      shl\n        /* \"#utility.yul\":4277:4314   */\n      swap1\n      pop\n        /* \"#utility.yul\":4214:4321   */\n      swap3\n      swap2\n      pop\n      pop\n      jump\t// out\n        /* \"#utility.yul\":4327:4720   */\n    tag_76:\n        /* \"#utility.yul\":4396:4402   */\n      0x00\n        /* \"#utility.yul\":4446:4447   */\n      0x08\n        /* \"#utility.yul\":4434:4444   */\n      dup4\n        /* \"#utility.yul\":4430:4448   */\n      mul\n        /* \"#utility.yul\":4469:4566   */\n      tag_141\n        /* \"#utility.yul\":4499:4565   */\n      0xffffffffffffffffffffffffffffffffffffffffffffffffffffffffffffffff\n        /* \"#utility.yul\":4488:4497   */\n      dup3\n        /* \"#utility.yul\":4469:4566   */\n      tag_75\n      jump\t// in\n    tag_141:\n        /* \"#utility.yul\":4587:4626   */\n      tag_142\n        /* \"#utility.yul\":4617:4625   */\n      dup7\n        /* \"#utility.yul\":4606:4615   */\n      dup4\n        /* \"#utility.yul\":4587:4626   */\n      tag_75\n      jump\t// in\n    tag_142:\n        /* \"#utility.yul\":4575:4626   */\n      swap6\n      pop\n        /* \"#utility.yul\":4659:4663   */\n      dup1\n        /* \"#utility.yul\":4655:4664   */\n      not\n        /* \"#utility.yul\":4648:4653   */\n      dup5\n        /* \"#utility.yul\":4644:4665   */\n      and\n        /* \"#utility.yul\":4635:4665   */\n      swap4\n      pop\n        /* \"#utility.yul\":4708:4712   */\n      dup1\n        /* \"#utility.yul\":4698:4706   */\n      dup7\n        /* \"#utility.yul\":4694:4713   */\n      and\n        /* \"#utility.yul\":4687:4692   */\n      dup5\n        /* \"#utility.yul\":4684:4714   */\n      or\n        /* \"#utility.yul\":4674:4714   */\n      swap3\n      pop\n        /* \"#utility.yul\":4403:4720   */\n      pop\n      pop\n        /* \"#utility.yul\":4327:4720   */\n      swap4\n      swap3\n      pop\n      pop\n      pop\n      jump\t// out\n        /* \"#utility.yul\":4726:4786   */\n    tag_77:\n        /* \"#utility.yul\":4754:4757   */\n      0x00\n        /* \"#utility.yul\":4775:4780   */\n      dup2\n        /* \"#utility.yul\":4768:4780   */\n      swap1\n      pop\n        /* \"#utility.yul\":4726:4786   */\n      swap2\n      swap1\n      pop\n      jump\t// out\n        /* \"#utility.yul\":4792:4934   */\n    tag_78:\n        /* \"#utility.yul\":4842:4851   */\n      0x00\n        /* \"#utility.yul\":4875:4928   */\n      tag_145\n        /* \"#utility.yul\":4893:4927   */\n      tag_146\n        /* \"#utility.yul\":4902:4926   */\n      tag_147\n        /* \"#utility.yul\":4920:4925   */\n      dup5\n        /* \"#utility.yul\":4902:4926   */\n      tag_63\n      jump\t// in\n    tag_147:\n        /* \"#utility.yul\":4893:4927   */\n      tag_77\n      jump\t// in\n    tag_146:\n        /* \"#utility.yul\":4875:4928   */\n      tag_63\n      jump\t// in\n    tag_145:\n        /* \"#utility.yul\":4862:4928   */\n      swap1\n      pop\n        /* \"#utility.yul\":4792:4934   */\n      swap2\n      swap1\n      pop\n      jump\t// out\n        /* \"#utility.yul\":4940:5015   */\n    tag_79:\n        /* \"#utility.yul\":4983:4986   */\n      0x00\n        /* \"#utility.yul\":5004:5009   */\n      dup2\n        /* \"#utility.yul\":4997:5009   */\n      swap1\n      pop\n        /* \"#utility.yul\":4940:5015   */\n      swap2\n      swap1\n      pop\n      jump\t// out\n        /* \"#utility.yul\":5021:5290   */\n    tag_80:\n        /* \"#utility.yul\":5131:5170   */\n      tag_150\n        /* \"#utility.yul\":5162:5169   */\n      dup4\n        /* \"#utility.yul\":5131:5170   */\n      tag_78\n      jump\t// in\n    tag_150:\n        /* \"#utility.yul\":5192:5283   */\n      tag_151\n        /* \"#utility.yul\":5241:5282   */\n      tag_152\n        /* \"#utility.yul\":5265:5281   */\n      dup3\n        /* \"#utility.yul\":5241:5282   */\n      tag_79\n      jump\t// in\n    tag_152:\n        /* \"#utility.yul\":5233:5239   */\n      dup5\n        /* \"#utility.yul\":5226:5230   */\n      dup5\n        /* \"#utility.yul\":5220:5231   */\n      sload\n        /* \"#utility.yul\":5192:5283   */\n      tag_76\n      jump\t// in\n    tag_151:\n        /* \"#utility.yul\":5186:5190   */\n      dup3\n        /* \"#utility.yul\":5179:5284   */\n      sstore\n        /* \"#utility.yul\":5097:5290   */\n      pop\n        /* \"#utility.yul\":5021:5290   */\n      pop\n      pop\n      pop\n      jump\t// out\n        /* \"#utility.yul\":5296:5369   */\n    tag_81:\n        /* \"#utility.yul\":5341:5344   */\n      0x00\n        /* \"#utility.yul\":5296:5369   */\n      swap1\n      jump\t// out\n        /* \"#utility.yul\":5375:5564   */\n    tag_82:\n        /* \"#utility.yul\":5452:5484   */\n      tag_155\n      tag_81\n      jump\t// in\n    tag_155:\n        /* \"#utility.yul\":5493:5558   */\n      tag_156\n        /* \"#utility.yul\":5551:5557   */\n      dup2\n        /* \"#utility.yul\":5543:5549   */\n      dup5\n        /* \"#utility.yul\":5537:5541   */\n      dup5\n        /* \"#utility.yul\":5493:5558   */\n      tag_80\n      jump\t// in\n    tag_156:\n        /* \"#utility.yul\":5428:5564   */\n      pop\n        /* \"#utility.yul\":5375:5564   */\n      pop\n      pop\n      jump\t// out\n        /* \"#utility.yul\":5570:5785   */\n    tag_83:\n        /* \"#utility.yul\":5656:5657   */\n      0x00\n        /* \"#utility.yul\":5641:5779   */\n    tag_158:\n        /* \"#utility.yul\":5666:5675   */\n      dup3\n        /* \"#utility.yul\":5663:5664   */\n      dup2\n        /* \"#utility.yul\":5660:5676   */\n      lt\n        /* \"#utility.yul\":5641:5779   */\n      iszero\n      tag_160\n      jumpi\n        /* \"#utility.yul\":5718:5769   */\n      tag_161\n        /* \"#utility.yul\":5767:5768   */\n      0x00\n        /* \"#utility.yul\":5763:5764   */\n      dup3\n        /* \"#utility.yul\":5752:5761   */\n      dup5\n        /* \"#utility.yul\":5748:5765   */\n      add\n        /* \"#utility.yul\":5718:5769   */\n      tag_82\n      jump\t// in\n    tag_161:\n        /* \"#utility.yul\":5691:5692   */\n      0x01\n        /* \"#utility.yul\":5688:5689   */\n      dup2\n        /* \"#utility.yul\":5684:5693   */\n      add\n        /* \"#utility.yul\":5679:5693   */\n      swap1\n      pop\n        /* \"#utility.yul\":5641:5779   */\n      jump(tag_158)\n    tag_160:\n        /* \"#utility.yul\":5645:5659   */\n      pop\n        /* \"#utility.yul\":5570:5785   */\n      pop\n      pop\n      jump\t// out\n        /* \"#utility.yul\":6164:6804   */\n    tag_86:\n        /* \"#utility.yul\":6284:6287   */\n      dup2\n        /* \"#utility.yul\":6272:6282   */\n      dup4\n        /* \"#utility.yul\":6269:6288   */\n      lt\n        /* \"#utility.yul\":6266:6797   */\n      iszero\n      tag_166\n      jumpi\n        /* \"#utility.yul\":6375:6440   */\n      tag_167\n        /* \"#utility.yul\":6436:6439   */\n      dup3\n        /* \"#utility.yul\":6375:6440   */\n      tag_73\n      jump\t// in\n    tag_167:\n        /* \"#utility.yul\":6473:6545   */\n      tag_168\n        /* \"#utility.yul\":6534:6544   */\n      dup5\n        /* \"#utility.yul\":6473:6545   */\n      tag_73\n      jump\t// in\n    tag_168:\n        /* \"#utility.yul\":6580:6633   */\n      tag_169\n        /* \"#utility.yul\":6627:6632   */\n      dup4\n        /* \"#utility.yul\":6580:6633   */\n      tag_74\n      jump\t// in\n    tag_169:\n        /* \"#utility.yul\":6685:6697   */\n      dup2\n        /* \"#utility.yul\":6669:6683   */\n      dup2\n        /* \"#utility.yul\":6665:6698   */\n      add\n        /* \"#utility.yul\":6712:6787   */\n      tag_170\n        /* \"#utility.yul\":6773:6785   */\n      dup4\n        /* \"#utility.yul\":6759:6771   */\n      dup6\n        /* \"#utility.yul\":6755:6786   */\n      sub\n        /* \"#utility.yul\":6742:6753   */\n      dup3\n        /* \"#utility.yul\":6712:6787   */\n      tag_83\n      jump\t// in\n    tag_170:\n        /* \"#utility.yul\":6289:6797   */\n      pop\n      pop\n      pop\n      pop\n        /* \"#utility.yul\":6266:6797   */\n    tag_166:\n        /* \"#utility.yul\":6164:6804   */\n      pop\n      pop\n      pop\n      jump\t// out\n        /* \"#utility.yul\":6810:7198   */\n    tag_87:\n        /* \"#utility.yul\":6903:6923   */\n      0x010000000000000000\n        /* \"#utility.yul\":6895:6901   */\n      dup3\n        /* \"#utility.yul\":6892:6924   */\n      gt\n        /* \"#utility.yul\":6889:6967   */\n      iszero\n      tag_172\n      jumpi\n        /* \"#utility.yul\":6939:6957   */\n      tag_173\n      tag_70\n      jump\t// in\n    tag_173:\n        /* \"#utility.yul\":6889:6967   */\n    tag_172:\n        /* \"#utility.yul\":6991:7042   */\n      tag_174\n        /* \"#utility.yul\":7036:7041   */\n      dup2\n        /* \"#utility.yul\":6991:7042   */\n      tag_71\n      jump\t// in\n    tag_174:\n        /* \"#utility.yul\":7094:7100   */\n      dup3\n        /* \"#utility.yul\":7087:7092   */\n      dup3\n        /* \"#utility.yul\":7080:7101   */\n      sstore\n        /* \"#utility.yul\":7111:7191   */\n      tag_175\n        /* \"#utility.yul\":7184:7190   */\n      dup4\n        /* \"#utility.yul\":7176:7182   */\n      dup3\n        /* \"#utility.yul\":7169:7174   */\n      dup5\n        /* \"#utility.yul\":7111:7191   */\n      tag_86\n      jump\t// in\n    tag_175:\n        /* \"#utility.yul\":6879:7198   */\n      pop\n        /* \"#utility.yul\":6810:7198   */\n      pop\n      pop\n      jump\t// out\n        /* \"#utility.yul\":7203:7305   */\n    tag_88:\n        /* \"#utility.yul\":7266:7272   */\n      0x00\n        /* \"#utility.yul\":7294:7298   */\n      0x05\n        /* \"#utility.yul\":7284:7298   */\n      swap1\n      pop\n        /* \"#utility.yul\":7203:7305   */\n      swap2\n      swap1\n      pop\n      jump\t// out\n        /* \"#utility.yul\":7311:7397   */\n    tag_89:\n        /* \"#utility.yul\":7346:7353   */\n      0x00\n        /* \"#utility.yul\":7386:7390   */\n      0xff\n        /* \"#utility.yul\":7379:7384   */\n      dup3\n        /* \"#utility.yul\":7375:7391   */\n      and\n        /* \"#utility.yul\":7364:7391   */\n      swap1\n      pop\n        /* \"#utility.yul\":7311:7397   */\n      swap2\n      swap1\n      pop\n      jump\t// out\n        /* \"#utility.yul\":7403:7553   */\n    tag_90:\n        /* \"#utility.yul\":7444:7455   */\n      0x00\n        /* \"#utility.yul\":7480:7507   */\n      tag_179\n        /* \"#utility.yul\":7502:7505   */\n      dup3\n        /* \"#utility.yul\":7496:7506   */\n      mload\n        /* \"#utility.yul\":7480:7507   */\n      tag_89\n      jump\t// in\n    tag_179:\n        /* \"#utility.yul\":7541:7546   */\n      dup1\n        /* \"#utility.yul\":7517:7546   */\n      swap2\n      pop\n        /* \"#utility.yul\":7456:7553   */\n      pop\n        /* \"#utility.yul\":7403:7553   */\n      swap2\n      swap1\n      pop\n      jump\t// out\n        /* \"#utility.yul\":7559:7655   */\n    tag_91:\n        /* \"#utility.yul\":7622:7626   */\n      0x00\n        /* \"#utility.yul\":7645:7648   */\n      dup2\n        /* \"#utility.yul\":7637:7648   */\n      swap1\n      pop\n        /* \"#utility.yul\":7559:7655   */\n      swap2\n      swap1\n      pop\n      jump\t// out\n        /* \"#utility.yul\":8107:9094   */\n    tag_35:\n        /* \"#utility.yul\":8244:8292   */\n      tag_190\n        /* \"#utility.yul\":8288:8291   */\n      dup3\n        /* \"#utility.yul\":8244:8292   */\n      tag_88\n      jump\t// in\n    tag_190:\n        /* \"#utility.yul\":8357:8375   */\n      0xffffffffffffffff\n        /* \"#utility.yul\":8349:8355   */\n      dup2\n        /* \"#utility.yul\":8346:8376   */\n      gt\n        /* \"#utility.yul\":8343:8399   */\n      iszero\n      tag_191\n      jumpi\n        /* \"#utility.yul\":8379:8397   */\n      tag_192\n      tag_70\n      jump\t// in\n    tag_192:\n        /* \"#utility.yul\":8343:8399   */\n    tag_191:\n        /* \"#utility.yul\":8408:8465   */\n      tag_193\n        /* \"#utility.yul\":8458:8464   */\n      dup2\n        /* \"#utility.yul\":8453:8456   */\n      dup4\n        /* \"#utility.yul\":8408:8465   */\n      tag_87\n      jump\t// in\n    tag_193:\n        /* \"#utility.yul\":8489:8539   */\n      tag_194\n        /* \"#utility.yul\":8535:8538   */\n      dup4\n        /* \"#utility.yul\":8489:8539   */\n      tag_91\n      jump\t// in\n    tag_194:\n        /* \"#utility.yul\":8563:8614   */\n      tag_195\n        /* \"#utility.yul\":8610:8613   */\n      dup4\n        /* \"#utility.yul\":8563:8614   */\n      tag_74\n      jump\t// in\n    tag_195:\n        /* \"#utility.yul\":8653:8654   */\n      0x01\n        /* \"#utility.yul\":8645:8651   */\n      dup4\n        /* \"#utility.yul\":8641:8655   */\n      div\n        /* \"#utility.yul\":8680:8681   */\n      0x00\n        /* \"#utility.yul\":8665:9087   */\n    tag_196:\n        /* \"#utility.yul\":8690:8699   */\n      dup2\n        /* \"#utility.yul\":8687:8688   */\n      dup2\n        /* \"#utility.yul\":8684:8700   */\n      lt\n        /* \"#utility.yul\":8665:9087   */\n      iszero\n      tag_198\n      jumpi\n        /* \"#utility.yul\":8754:8755   */\n      0x00\n        /* \"#utility.yul\":8807:8838   */\n      tag_199\n        /* \"#utility.yul\":8831:8837   */\n      dup6\n        /* \"#utility.yul\":8807:8838   */\n      tag_90\n      jump\t// in\n    tag_199:\n        /* \"#utility.yul\":8873:8909   */\n      tag_200\n        /* \"#utility.yul\":8897:8908   */\n      dup2\n        /* \"#utility.yul\":8873:8909   */\n      tag_79\n      jump\t// in\n    tag_200:\n        /* \"#utility.yul\":8959:8968   */\n      dup1\n        /* \"#utility.yul\":8926:8968   */\n      swap3\n      pop\n        /* \"#utility.yul\":9008:9010   */\n      0x20\n        /* \"#utility.yul\":9000:9006   */\n      dup8\n        /* \"#utility.yul\":8996:9011   */\n      add\n        /* \"#utility.yul\":8986:9011   */\n      swap7\n      pop\n        /* \"#utility.yul\":8769:9026   */\n      pop\n      pop\n        /* \"#utility.yul\":9064:9076   */\n      dup1\n        /* \"#utility.yul\":9060:9061   */\n      dup3\n        /* \"#utility.yul\":9051:9058   */\n      dup6\n        /* \"#utility.yul\":9047:9062   */\n      add\n        /* \"#utility.yul\":9040:9077   */\n      sstore\n        /* \"#utility.yul\":8720:9087   */\n      pop\n        /* \"#utility.yul\":8715:8716   */\n      0x01\n        /* \"#utility.yul\":8712:8713   */\n      dup2\n        /* \"#utility.yul\":8708:8717   */\n      add\n        /* \"#utility.yul\":8703:8717   */\n      swap1\n      pop\n        /* \"#utility.yul\":8665:9087   */\n      jump(tag_196)\n    tag_198:\n        /* \"#utility.yul\":8669:8683   */\n      pop\n        /* \"#utility.yul\":8219:9094   */\n      pop\n      pop\n      pop\n      pop\n        /* \"#utility.yul\":8107:9094   */\n      pop\n      pop\n      jump\t// out\n        /* \"#utility.yul\":9100:9280   */\n    tag_42:\n        /* \"#utility.yul\":9148:9225   */\n      0x4e487b7100000000000000000000000000000000000000000000000000000000\n        /* \"#utility.yul\":9145:9146   */\n      0x00\n        /* \"#utility.yul\":9138:9226   */\n      mstore\n        /* \"#utility.yul\":9245:9249   */\n      0x01\n        /* \"#utility.yul\":9242:9243   */\n      0x04\n        /* \"#utility.yul\":9235:9250   */\n      mstore\n        /* \"#utility.yul\":9269:9273   */\n      0x24\n        /* \"#utility.yul\":9266:9267   */\n      0x00\n        /* \"#utility.yul\":9259:9274   */\n      revert\n\n    auxdata: 0xa2646970667358221220d400a4b44ce5a11c919527e553c5e8449d2df42190378e2cc3fe0cff16b0adbd64736f6c63430008220033\n}\n",
				"bytecode": {
					"linkReferences": {},
					"object": "6080604052348015600f57600080fd5b506107498061001f6000396000f3fe608060405234801561001057600080fd5b50600436106100365760003560e01c80634cc822151461003b578063f8a8fd6d14610057575b600080fd5b610055600480360381019061005091906102b3565b610061565b005b61005f61014d565b005b60008054905081106100a8576040517f08c379a000000000000000000000000000000000000000000000000000000000815260040161009f9061033d565b60405180910390fd5b60008190505b60016000805490506100c0919061038c565b8110156101215760006001826100d691906103c0565b815481106100e7576100e66103f4565b5b906000526020600020015460008281548110610106576101056103f4565b5b906000526020600020018190555080806001019150506100ae565b50600080548061013457610133610423565b5b6001900381819060005260206000200160009055905550565b6040518060a00160405280600160ff168152602001600260ff168152602001600360ff168152602001600460ff168152602001600560ff1681525060009081610196919061065e565b506101a16002610061565b6001600080815481106101b7576101b66103f4565b5b9060005260206000200154146101d0576101cf6106e4565b5b600260006001815481106101e7576101e66103f4565b5b906000526020600020015414610200576101ff6106e4565b5b60046000600281548110610217576102166103f4565b5b9060005260206000200154146102305761022f6106e4565b5b60056000600381548110610247576102466103f4565b5b9060005260206000200154146102605761025f6106e4565b5b600460008054905014610276576102756106e4565b5b565b600080fd5b6000819050919050565b6102908161027d565b811461029b57600080fd5b50565b6000813590506102ad81610287565b92915050565b6000602082840312156102c9576102c8610278565b5b60006102d78482850161029e565b91505092915050565b600082825260208201905092915050565b7f496e646578206f75746f6620626f756e64000000000000000000000000000000600082015250565b60006103276011836102e0565b9150610332826102f1565b602082019050919050565b600060208201905081810360008301526103568161031a565b9050919050565b7f4e487b7100000000000000000000000000000000000000000000000000000000600052601160045260246000fd5b60006103978261027d565b91506103a28361027d565b92508282039050818111156103ba576103b961035d565b5b92915050565b60006103cb8261027d565b91506103d68361027d565b92508282019050808211156103ee576103ed61035d565b5b92915050565b7f4e487b7100000000000000000000000000000000000000000000000000000000600052603260045260246000fd5b7f4e487b7100000000000000000000000000000000000000000000000000000000600052603160045260246000fd5b7f4e487b7100000000000000000000000000000000000000000000000000000000600052604160045260246000fd5b600081549050919050565b60008190506001806001038301049050919050565b60008190508160005260206000209050919050565b600082821b905092915050565b6000600883026104f37fffffffffffffffffffffffffffffffffffffffffffffffffffffffffffffffff826104b6565b6104fd86836104b6565b95508019841693508086168417925050509392505050565b6000819050919050565b600061053a6105356105308461027d565b610515565b61027d565b9050919050565b6000819050919050565b6105548361051f565b61056861056082610541565b8484546104c3565b825550505050565b600090565b61057d610570565b61058881848461054b565b505050565b60005b828110156105b0576105a56000828401610575565b600181019050610590565b505050565b818310156105ec576105c68261048c565b6105cf8461048c565b6105d8836104a1565b8181016105e78385038261058d565b505050505b505050565b6801000000000000000082111561060b5761060a610452565b5b61061481610481565b8282556106228382846105b5565b505050565b600060059050919050565b600060ff82169050919050565b600061064b8251610632565b80915050919050565b6000819050919050565b61066782610627565b67ffffffffffffffff8111156106805761067f610452565b5b61068a81836105f1565b61069383610654565b61069c836104a1565b6001830460005b818110156106db5760006106b68561063f565b6106bf81610541565b80925060208701965050508082850155506001810190506106a3565b50505050505050565b7f4e487b7100000000000000000000000000000000000000000000000000000000600052600160045260246000fdfea2646970667358221220d400a4b44ce5a11c919527e553c5e8449d2df42190378e2cc3fe0cff16b0adbd64736f6c63430008220033",
					"opcodes": "PUSH1 0x80 PUSH1 0x40 MSTORE CALLVALUE DUP1 ISZERO PUSH1 0xF JUMPI PUSH1 0x0 DUP1 REVERT JUMPDEST POP PUSH2 0x749 DUP1 PUSH2 0x1F PUSH1 0x0 CODECOPY PUSH1 0x0 RETURN INVALID PUSH1 0x80 PUSH1 0x40 MSTORE CALLVALUE DUP1 ISZERO PUSH2 0x10 JUMPI PUSH1 0x0 DUP1 REVERT JUMPDEST POP PUSH1 0x4 CALLDATASIZE LT PUSH2 0x36 JUMPI PUSH1 0x0 CALLDATALOAD PUSH1 0xE0 SHR DUP1 PUSH4 0x4CC82215 EQ PUSH2 0x3B JUMPI DUP1 PUSH4 0xF8A8FD6D EQ PUSH2 0x57 JUMPI JUMPDEST PUSH1 0x0 DUP1 REVERT JUMPDEST PUSH2 0x55 PUSH1 0x4 DUP1 CALLDATASIZE SUB DUP2 ADD SWAP1 PUSH2 0x50 SWAP2 SWAP1 PUSH2 0x2B3 JUMP JUMPDEST PUSH2 0x61 JUMP JUMPDEST STOP JUMPDEST PUSH2 0x5F PUSH2 0x14D JUMP JUMPDEST STOP JUMPDEST PUSH1 0x0 DUP1 SLOAD SWAP1 POP DUP2 LT PUSH2 0xA8 JUMPI PUSH1 0x40 MLOAD PUSH32 0x8C379A000000000000000000000000000000000000000000000000000000000 DUP2 MSTORE PUSH1 0x4 ADD PUSH2 0x9F SWAP1 PUSH2 0x33D JUMP JUMPDEST PUSH1 0x40 MLOAD DUP1 SWAP2 SUB SWAP1 REVERT JUMPDEST PUSH1 0x0 DUP2 SWAP1 POP JUMPDEST PUSH1 0x1 PUSH1 0x0 DUP1 SLOAD SWAP1 POP PUSH2 0xC0 SWAP2 SWAP1 PUSH2 0x38C JUMP JUMPDEST DUP2 LT ISZERO PUSH2 0x121 JUMPI PUSH1 0x0 PUSH1 0x1 DUP3 PUSH2 0xD6 SWAP2 SWAP1 PUSH2 0x3C0 JUMP JUMPDEST DUP2 SLOAD DUP2 LT PUSH2 0xE7 JUMPI PUSH2 0xE6 PUSH2 0x3F4 JUMP JUMPDEST JUMPDEST SWAP1 PUSH1 0x0 MSTORE PUSH1 0x20 PUSH1 0x0 KECCAK256 ADD SLOAD PUSH1 0x0 DUP3 DUP2 SLOAD DUP2 LT PUSH2 0x106 JUMPI PUSH2 0x105 PUSH2 0x3F4 JUMP JUMPDEST JUMPDEST SWAP1 PUSH1 0x0 MSTORE PUSH1 0x20 PUSH1 0x0 KECCAK256 ADD DUP2 SWAP1 SSTORE POP DUP1 DUP1 PUSH1 0x1 ADD SWAP2 POP POP PUSH2 0xAE JUMP JUMPDEST POP PUSH1 0x0 DUP1 SLOAD DUP1 PUSH2 0x134 JUMPI PUSH2 0x133 PUSH2 0x423 JUMP JUMPDEST JUMPDEST PUSH1 0x1 SWAP1 SUB DUP2 DUP2 SWAP1 PUSH1 0x0 MSTORE PUSH1 0x20 PUSH1 0x0 KECCAK256 ADD PUSH1 0x0 SWAP1 SSTORE SWAP1 SSTORE POP JUMP JUMPDEST PUSH1 0x40 MLOAD DUP1 PUSH1 0xA0 ADD PUSH1 0x40 MSTORE DUP1 PUSH1 0x1 PUSH1 0xFF AND DUP2 MSTORE PUSH1 0x20 ADD PUSH1 0x2 PUSH1 0xFF AND DUP2 MSTORE PUSH1 0x20 ADD PUSH1 0x3 PUSH1 0xFF AND DUP2 MSTORE PUSH1 0x20 ADD PUSH1 0x4 PUSH1 0xFF AND DUP2 MSTORE PUSH1 0x20 ADD PUSH1 0x5 PUSH1 0xFF AND DUP2 MSTORE POP PUSH1 0x0 SWAP1 DUP2 PUSH2 0x196 SWAP2 SWAP1 PUSH2 0x65E JUMP JUMPDEST POP PUSH2 0x1A1 PUSH1 0x2 PUSH2 0x61 JUMP JUMPDEST PUSH1 0x1 PUSH1 0x0 DUP1 DUP2 SLOAD DUP2 LT PUSH2 0x1B7 JUMPI PUSH2 0x1B6 PUSH2 0x3F4 JUMP JUMPDEST JUMPDEST SWAP1 PUSH1 0x0 MSTORE PUSH1 0x20 PUSH1 0x0 KECCAK256 ADD SLOAD EQ PUSH2 0x1D0 JUMPI PUSH2 0x1CF PUSH2 0x6E4 JUMP JUMPDEST JUMPDEST PUSH1 0x2 PUSH1 0x0 PUSH1 0x1 DUP2 SLOAD DUP2 LT PUSH2 0x1E7 JUMPI PUSH2 0x1E6 PUSH2 0x3F4 JUMP JUMPDEST JUMPDEST SWAP1 PUSH1 0x0 MSTORE PUSH1 0x20 PUSH1 0x0 KECCAK256 ADD SLOAD EQ PUSH2 0x200 JUMPI PUSH2 0x1FF PUSH2 0x6E4 JUMP JUMPDEST JUMPDEST PUSH1 0x4 PUSH1 0x0 PUSH1 0x2 DUP2 SLOAD DUP2 LT PUSH2 0x217 JUMPI PUSH2 0x216 PUSH2 0x3F4 JUMP JUMPDEST JUMPDEST SWAP1 PUSH1 0x0 MSTORE PUSH1 0x20 PUSH1 0x0 KECCAK256 ADD SLOAD EQ PUSH2 0x230 JUMPI PUSH2 0x22F PUSH2 0x6E4 JUMP JUMPDEST JUMPDEST PUSH1 0x5 PUSH1 0x0 PUSH1 0x3 DUP2 SLOAD DUP2 LT PUSH2 0x247 JUMPI PUSH2 0x246 PUSH2 0x3F4 JUMP JUMPDEST JUMPDEST SWAP1 PUSH1 0x0 MSTORE PUSH1 0x20 PUSH1 0x0 KECCAK256 ADD SLOAD EQ PUSH2 0x260 JUMPI PUSH2 0x25F PUSH2 0x6E4 JUMP JUMPDEST JUMPDEST PUSH1 0x4 PUSH1 0x0 DUP1 SLOAD SWAP1 POP EQ PUSH2 0x276 JUMPI PUSH2 0x275 PUSH2 0x6E4 JUMP JUMPDEST JUMPDEST JUMP JUMPDEST PUSH1 0x0 DUP1 REVERT JUMPDEST PUSH1 0x0 DUP2 SWAP1 POP SWAP2 SWAP1 POP JUMP JUMPDEST PUSH2 0x290 DUP2 PUSH2 0x27D JUMP JUMPDEST DUP2 EQ PUSH2 0x29B JUMPI PUSH1 0x0 DUP1 REVERT JUMPDEST POP JUMP JUMPDEST PUSH1 0x0 DUP2 CALLDATALOAD SWAP1 POP PUSH2 0x2AD DUP2 PUSH2 0x287 JUMP JUMPDEST SWAP3 SWAP2 POP POP JUMP JUMPDEST PUSH1 0x0 PUSH1 0x20 DUP3 DUP5 SUB SLT ISZERO PUSH2 0x2C9 JUMPI PUSH2 0x2C8 PUSH2 0x278 JUMP JUMPDEST JUMPDEST PUSH1 0x0 PUSH2 0x2D7 DUP5 DUP3 DUP6 ADD PUSH2 0x29E JUMP JUMPDEST SWAP2 POP POP SWAP3 SWAP2 POP POP JUMP JUMPDEST PUSH1 0x0 DUP3 DUP3 MSTORE PUSH1 0x20 DUP3 ADD SWAP1 POP SWAP3 SWAP2 POP POP JUMP JUMPDEST PUSH32 0x496E646578206F75746F6620626F756E64000000000000000000000000000000 PUSH1 0x0 DUP3 ADD MSTORE POP JUMP JUMPDEST PUSH1 0x0 PUSH2 0x327 PUSH1 0x11 DUP4 PUSH2 0x2E0 JUMP JUMPDEST SWAP2 POP PUSH2 0x332 DUP3 PUSH2 0x2F1 JUMP JUMPDEST PUSH1 0x20 DUP3 ADD SWAP1 POP SWAP2 SWAP1 POP JUMP JUMPDEST PUSH1 0x0 PUSH1 0x20 DUP3 ADD SWAP1 POP DUP2 DUP2 SUB PUSH1 0x0 DUP4 ADD MSTORE PUSH2 0x356 DUP2 PUSH2 0x31A JUMP JUMPDEST SWAP1 POP SWAP2 SWAP1 POP JUMP JUMPDEST PUSH32 0x4E487B7100000000000000000000000000000000000000000000000000000000 PUSH1 0x0 MSTORE PUSH1 0x11 PUSH1 0x4 MSTORE PUSH1 0x24 PUSH1 0x0 REVERT JUMPDEST PUSH1 0x0 PUSH2 0x397 DUP3 PUSH2 0x27D JUMP JUMPDEST SWAP2 POP PUSH2 0x3A2 DUP4 PUSH2 0x27D JUMP JUMPDEST SWAP3 POP DUP3 DUP3 SUB SWAP1 POP DUP2 DUP2 GT ISZERO PUSH2 0x3BA JUMPI PUSH2 0x3B9 PUSH2 0x35D JUMP JUMPDEST JUMPDEST SWAP3 SWAP2 POP POP JUMP JUMPDEST PUSH1 0x0 PUSH2 0x3CB DUP3 PUSH2 0x27D JUMP JUMPDEST SWAP2 POP PUSH2 0x3D6 DUP4 PUSH2 0x27D JUMP JUMPDEST SWAP3 POP DUP3 DUP3 ADD SWAP1 POP DUP1 DUP3 GT ISZERO PUSH2 0x3EE JUMPI PUSH2 0x3ED PUSH2 0x35D JUMP JUMPDEST JUMPDEST SWAP3 SWAP2 POP POP JUMP JUMPDEST PUSH32 0x4E487B7100000000000000000000000000000000000000000000000000000000 PUSH1 0x0 MSTORE PUSH1 0x32 PUSH1 0x4 MSTORE PUSH1 0x24 PUSH1 0x0 REVERT JUMPDEST PUSH32 0x4E487B7100000000000000000000000000000000000000000000000000000000 PUSH1 0x0 MSTORE PUSH1 0x31 PUSH1 0x4 MSTORE PUSH1 0x24 PUSH1 0x0 REVERT JUMPDEST PUSH32 0x4E487B7100000000000000000000000000000000000000000000000000000000 PUSH1 0x0 MSTORE PUSH1 0x41 PUSH1 0x4 MSTORE PUSH1 0x24 PUSH1 0x0 REVERT JUMPDEST PUSH1 0x0 DUP2 SLOAD SWAP1 POP SWAP2 SWAP1 POP JUMP JUMPDEST PUSH1 0x0 DUP2 SWAP1 POP PUSH1 0x1 DUP1 PUSH1 0x1 SUB DUP4 ADD DIV SWAP1 POP SWAP2 SWAP1 POP JUMP JUMPDEST PUSH1 0x0 DUP2 SWAP1 POP DUP2 PUSH1 0x0 MSTORE PUSH1 0x20 PUSH1 0x0 KECCAK256 SWAP1 POP SWAP2 SWAP1 POP JUMP JUMPDEST PUSH1 0x0 DUP3 DUP3 SHL SWAP1 POP SWAP3 SWAP2 POP POP JUMP JUMPDEST PUSH1 0x0 PUSH1 0x8 DUP4 MUL PUSH2 0x4F3 PUSH32 0xFFFFFFFFFFFFFFFFFFFFFFFFFFFFFFFFFFFFFFFFFFFFFFFFFFFFFFFFFFFFFFFF DUP3 PUSH2 0x4B6 JUMP JUMPDEST PUSH2 0x4FD DUP7 DUP4 PUSH2 0x4B6 JUMP JUMPDEST SWAP6 POP DUP1 NOT DUP5 AND SWAP4 POP DUP1 DUP7 AND DUP5 OR SWAP3 POP POP POP SWAP4 SWAP3 POP POP POP JUMP JUMPDEST PUSH1 0x0 DUP2 SWAP1 POP SWAP2 SWAP1 POP JUMP JUMPDEST PUSH1 0x0 PUSH2 0x53A PUSH2 0x535 PUSH2 0x530 DUP5 PUSH2 0x27D JUMP JUMPDEST PUSH2 0x515 JUMP JUMPDEST PUSH2 0x27D JUMP JUMPDEST SWAP1 POP SWAP2 SWAP1 POP JUMP JUMPDEST PUSH1 0x0 DUP2 SWAP1 POP SWAP2 SWAP1 POP JUMP JUMPDEST PUSH2 0x554 DUP4 PUSH2 0x51F JUMP JUMPDEST PUSH2 0x568 PUSH2 0x560 DUP3 PUSH2 0x541 JUMP JUMPDEST DUP5 DUP5 SLOAD PUSH2 0x4C3 JUMP JUMPDEST DUP3 SSTORE POP POP POP POP JUMP JUMPDEST PUSH1 0x0 SWAP1 JUMP JUMPDEST PUSH2 0x57D PUSH2 0x570 JUMP JUMPDEST PUSH2 0x588 DUP2 DUP5 DUP5 PUSH2 0x54B JUMP JUMPDEST POP POP POP JUMP JUMPDEST PUSH1 0x0 JUMPDEST DUP3 DUP2 LT ISZERO PUSH2 0x5B0 JUMPI PUSH2 0x5A5 PUSH1 0x0 DUP3 DUP5 ADD PUSH2 0x575 JUMP JUMPDEST PUSH1 0x1 DUP2 ADD SWAP1 POP PUSH2 0x590 JUMP JUMPDEST POP POP POP JUMP JUMPDEST DUP2 DUP4 LT ISZERO PUSH2 0x5EC JUMPI PUSH2 0x5C6 DUP3 PUSH2 0x48C JUMP JUMPDEST PUSH2 0x5CF DUP5 PUSH2 0x48C JUMP JUMPDEST PUSH2 0x5D8 DUP4 PUSH2 0x4A1 JUMP JUMPDEST DUP2 DUP2 ADD PUSH2 0x5E7 DUP4 DUP6 SUB DUP3 PUSH2 0x58D JUMP JUMPDEST POP POP POP POP JUMPDEST POP POP POP JUMP JUMPDEST PUSH9 0x10000000000000000 DUP3 GT ISZERO PUSH2 0x60B JUMPI PUSH2 0x60A PUSH2 0x452 JUMP JUMPDEST JUMPDEST PUSH2 0x614 DUP2 PUSH2 0x481 JUMP JUMPDEST DUP3 DUP3 SSTORE PUSH2 0x622 DUP4 DUP3 DUP5 PUSH2 0x5B5 JUMP JUMPDEST POP POP POP JUMP JUMPDEST PUSH1 0x0 PUSH1 0x5 SWAP1 POP SWAP2 SWAP1 POP JUMP JUMPDEST PUSH1 0x0 PUSH1 0xFF DUP3 AND SWAP1 POP SWAP2 SWAP1 POP JUMP JUMPDEST PUSH1 0x0 PUSH2 0x64B DUP3 MLOAD PUSH2 0x632 JUMP JUMPDEST DUP1 SWAP2 POP POP SWAP2 SWAP1 POP JUMP JUMPDEST PUSH1 0x0 DUP2 SWAP1 POP SWAP2 SWAP1 POP JUMP JUMPDEST PUSH2 0x667 DUP3 PUSH2 0x627 JUMP JUMPDEST PUSH8 0xFFFFFFFFFFFFFFFF DUP2 GT ISZERO PUSH2 0x680 JUMPI PUSH2 0x67F PUSH2 0x452 JUMP JUMPDEST JUMPDEST PUSH2 0x68A DUP2 DUP4 PUSH2 0x5F1 JUMP JUMPDEST PUSH2 0x693 DUP4 PUSH2 0x654 JUMP JUMPDEST PUSH2 0x69C DUP4 PUSH2 0x4A1 JUMP JUMPDEST PUSH1 0x1 DUP4 DIV PUSH1 0x0 JUMPDEST DUP2 DUP2 LT ISZERO PUSH2 0x6DB JUMPI PUSH1 0x0 PUSH2 0x6B6 DUP6 PUSH2 0x63F JUMP JUMPDEST PUSH2 0x6BF DUP2 PUSH2 0x541 JUMP JUMPDEST DUP1 SWAP3 POP PUSH1 0x20 DUP8 ADD SWAP7 POP POP POP DUP1 DUP3 DUP6 ADD SSTORE POP PUSH1 0x1 DUP2 ADD SWAP1 POP PUSH2 0x6A3 JUMP JUMPDEST POP POP POP POP POP POP POP JUMP JUMPDEST PUSH32 0x4E487B7100000000000000000000000000000000000000000000000000000000 PUSH1 0x0 MSTORE PUSH1 0x1 PUSH1 0x4 MSTORE PUSH1 0x24 PUSH1 0x0 REVERT INVALID LOG2 PUSH5 0x6970667358 0x22 SLT KECCAK256 0xD4 STOP LOG4 0xB4 0x4C JUMPF 0xA11C SWAP2 SWAP6 0x27 JUMPF 0x53C5 0xE8 PREVRANDAO SWAP14 0x2D DELEGATECALL 0x21 SWAP1 CALLDATACOPY DUP15 0x2C 0xC3 INVALID 0xC SELFDESTRUCT AND 0xB0 0xAD 0xBD PUSH5 0x736F6C6343 STOP ADDMOD 0x22 STOP CALLER "
				},
				"gasEstimates": {
					"creation": {
						"codeDepositCost": "373000",
						"executionCost": "411",
						"totalCost": "373411"
					},
					"external": {
						"remove(uint256)": "infinite",
						"test()": "infinite"
					}
				},
				"methodIdentifiers": {
					"remove(uint256)": "4cc82215",
					"test()": "f8a8fd6d"
				}
			},
			"storageLayout": {
				"storage": [
					{
						"astId": 4,
						"contract": "Arrayremoving.sol:arrayremovebyshifting",
						"label": "arr",
						"offset": 0,
						"slot": "0",
						"type": "t_array(t_uint256)dyn_storage"
					}
				],
				"types": {
					"t_array(t_uint256)dyn_storage": {
						"base": "t_uint256",
						"encoding": "dynamic_array",
						"label": "uint256[]",
						"numberOfBytes": "32"
					},
					"t_uint256": {
						"encoding": "inplace",
						"label": "uint256",
						"numberOfBytes": "32"
					}
				}
			},
			"userdoc": {
				"kind": "user",
				"methods": {},
				"version": 1
			}
		}
	}
}